{
	"contracts/Struct.sol": {
		"Struct": {
			"abi": [
				{
					"inputs": [
						{
							"internalType": "uint256",
							"name": "_id",
							"type": "uint256"
						},
						{
							"internalType": "string",
							"name": "_name",
							"type": "string"
						},
						{
							"internalType": "uint256",
							"name": "_rank",
							"type": "uint256"
						},
						{
							"internalType": "enum StudentType",
							"name": "_type",
							"type": "uint8"
						}
					],
					"name": "addStudent",
					"outputs": [],
					"stateMutability": "nonpayable",
					"type": "function"
				},
				{
					"inputs": [],
					"name": "memUpdate",
					"outputs": [],
					"stateMutability": "view",
					"type": "function"
				},
				{
					"inputs": [
						{
							"internalType": "uint256",
							"name": "",
							"type": "uint256"
						}
					],
					"name": "quota",
					"outputs": [
						{
							"internalType": "string",
							"name": "",
							"type": "string"
						}
					],
					"stateMutability": "view",
					"type": "function"
				},
				{
					"inputs": [],
					"name": "storeUpdate",
					"outputs": [],
					"stateMutability": "nonpayable",
					"type": "function"
				},
				{
					"inputs": [
						{
							"internalType": "uint256",
							"name": "",
							"type": "uint256"
						}
					],
					"name": "students",
					"outputs": [
						{
							"internalType": "uint256",
							"name": "id",
							"type": "uint256"
						},
						{
							"internalType": "string",
							"name": "name",
							"type": "string"
						},
						{
							"internalType": "enum StudentType",
							"name": "stype",
							"type": "uint8"
						},
						{
							"internalType": "uint256",
							"name": "rank",
							"type": "uint256"
						}
					],
					"stateMutability": "view",
					"type": "function"
				}
			],
			"devdoc": {
				"kind": "dev",
				"methods": {},
				"version": 1
			},
			"evm": {
				"assembly": "    /* \"contracts/Struct.sol\":225:866  contract Struct{... */\n  mstore(0x40, 0x80)\n    /* \"contracts/Struct.sol\":297:340  string[] public quota = [\"10%\",\"24%\",\"36%\"] */\n  mload(0x40)\n  dup1\n  0x60\n  add\n  0x40\n  mstore\n  dup1\n  mload(0x40)\n  dup1\n  0x40\n  add\n  0x40\n  mstore\n  dup1\n  0x03\n  dup2\n  mstore\n  0x20\n  add\n  0x3130250000000000000000000000000000000000000000000000000000000000\n  dup2\n  mstore\n  pop\n  dup2\n  mstore\n  0x20\n  add\n  mload(0x40)\n  dup1\n  0x40\n  add\n  0x40\n  mstore\n  dup1\n  0x03\n  dup2\n  mstore\n  0x20\n  add\n  0x3234250000000000000000000000000000000000000000000000000000000000\n  dup2\n  mstore\n  pop\n  dup2\n  mstore\n  0x20\n  add\n  mload(0x40)\n  dup1\n  0x40\n  add\n  0x40\n  mstore\n  dup1\n  0x03\n  dup2\n  mstore\n  0x20\n  add\n  0x3336250000000000000000000000000000000000000000000000000000000000\n  dup2\n  mstore\n  pop\n  dup2\n  mstore\n  pop\n  0x01\n  swap1\n  0x03\n  tag_1\n  swap3\n  swap2\n  swap1\n  tag_2\n  jump\t// in\ntag_1:\n  pop\n    /* \"contracts/Struct.sol\":225:866  contract Struct{... */\n  callvalue\n  dup1\n  iszero\n  tag_3\n  jumpi\n  0x00\n  dup1\n  revert\ntag_3:\n  pop\n  jump(tag_4)\ntag_2:\n  dup3\n  dup1\n  sload\n  dup3\n  dup3\n  sstore\n  swap1\n  0x00\n  mstore\n  keccak256(0x00, 0x20)\n  swap1\n  dup2\n  add\n  swap3\n  dup3\n  iszero\n  tag_5\n  jumpi\n  swap2\n  0x20\n  mul\n  dup3\n  add\ntag_6:\n  dup3\n  dup2\n  gt\n  iszero\n  tag_7\n  jumpi\n  dup3\n  mload\n  dup3\n  swap1\n  dup2\n  tag_8\n  swap2\n  swap1\n  tag_9\n  jump\t// in\ntag_8:\n  pop\n  swap2\n  0x20\n  add\n  swap2\n  swap1\n  0x01\n  add\n  swap1\n  jump(tag_6)\ntag_7:\ntag_5:\n  pop\n  swap1\n  pop\n  tag_10\n  swap2\n  swap1\n  tag_11\n  jump\t// in\ntag_10:\n  pop\n  swap1\n  jump\t// out\ntag_11:\ntag_12:\n  dup1\n  dup3\n  gt\n  iszero\n  tag_13\n  jumpi\n  0x00\n  dup2\n  dup2\n  tag_14\n  swap2\n  swap1\n  tag_15\n  jump\t// in\ntag_14:\n  pop\n  0x01\n  add\n  jump(tag_12)\ntag_13:\n  pop\n  swap1\n  jump\t// out\ntag_15:\n  pop\n  dup1\n  sload\n  tag_16\n  swap1\n  tag_17\n  jump\t// in\ntag_16:\n  0x00\n  dup3\n  sstore\n  dup1\n  0x1f\n  lt\n  tag_19\n  jumpi\n  pop\n  jump(tag_18)\ntag_19:\n  0x1f\n  add\n  0x20\n  swap1\n  div\n  swap1\n  0x00\n  mstore\n  keccak256(0x00, 0x20)\n  swap1\n  dup2\n  add\n  swap1\n  tag_20\n  swap2\n  swap1\n  tag_21\n  jump\t// in\ntag_20:\ntag_18:\n  pop\n  jump\t// out\ntag_21:\ntag_22:\n  dup1\n  dup3\n  gt\n  iszero\n  tag_23\n  jumpi\n  0x00\n  dup2\n  0x00\n  swap1\n  sstore\n  pop\n  0x01\n  add\n  jump(tag_22)\ntag_23:\n  pop\n  swap1\n  jump\t// out\n    /* \"#utility.yul\":7:106   */\ntag_24:\n    /* \"#utility.yul\":59:65   */\n  0x00\n    /* \"#utility.yul\":93:98   */\n  dup2\n    /* \"#utility.yul\":87:99   */\n  mload\n    /* \"#utility.yul\":77:99   */\n  swap1\n  pop\n    /* \"#utility.yul\":7:106   */\n  swap2\n  swap1\n  pop\n  jump\t// out\n    /* \"#utility.yul\":112:292   */\ntag_25:\n    /* \"#utility.yul\":160:237   */\n  0x4e487b7100000000000000000000000000000000000000000000000000000000\n    /* \"#utility.yul\":157:158   */\n  0x00\n    /* \"#utility.yul\":150:238   */\n  mstore\n    /* \"#utility.yul\":257:261   */\n  0x41\n    /* \"#utility.yul\":254:255   */\n  0x04\n    /* \"#utility.yul\":247:262   */\n  mstore\n    /* \"#utility.yul\":281:285   */\n  0x24\n    /* \"#utility.yul\":278:279   */\n  0x00\n    /* \"#utility.yul\":271:286   */\n  revert\n    /* \"#utility.yul\":298:478   */\ntag_26:\n    /* \"#utility.yul\":346:423   */\n  0x4e487b7100000000000000000000000000000000000000000000000000000000\n    /* \"#utility.yul\":343:344   */\n  0x00\n    /* \"#utility.yul\":336:424   */\n  mstore\n    /* \"#utility.yul\":443:447   */\n  0x22\n    /* \"#utility.yul\":440:441   */\n  0x04\n    /* \"#utility.yul\":433:448   */\n  mstore\n    /* \"#utility.yul\":467:471   */\n  0x24\n    /* \"#utility.yul\":464:465   */\n  0x00\n    /* \"#utility.yul\":457:472   */\n  revert\n    /* \"#utility.yul\":484:804   */\ntag_17:\n    /* \"#utility.yul\":528:534   */\n  0x00\n    /* \"#utility.yul\":565:566   */\n  0x02\n    /* \"#utility.yul\":559:563   */\n  dup3\n    /* \"#utility.yul\":555:567   */\n  div\n    /* \"#utility.yul\":545:567   */\n  swap1\n  pop\n    /* \"#utility.yul\":612:613   */\n  0x01\n    /* \"#utility.yul\":606:610   */\n  dup3\n    /* \"#utility.yul\":602:614   */\n  and\n    /* \"#utility.yul\":633:651   */\n  dup1\n    /* \"#utility.yul\":623:704   */\n  tag_48\n  jumpi\n    /* \"#utility.yul\":689:693   */\n  0x7f\n    /* \"#utility.yul\":681:687   */\n  dup3\n    /* \"#utility.yul\":677:694   */\n  and\n    /* \"#utility.yul\":667:694   */\n  swap2\n  pop\n    /* \"#utility.yul\":623:704   */\ntag_48:\n    /* \"#utility.yul\":751:753   */\n  0x20\n    /* \"#utility.yul\":743:749   */\n  dup3\n    /* \"#utility.yul\":740:754   */\n  lt\n    /* \"#utility.yul\":720:738   */\n  dup2\n    /* \"#utility.yul\":717:755   */\n  sub\n    /* \"#utility.yul\":714:798   */\n  tag_49\n  jumpi\n    /* \"#utility.yul\":770:788   */\n  tag_50\n  tag_26\n  jump\t// in\ntag_50:\n    /* \"#utility.yul\":714:798   */\ntag_49:\n    /* \"#utility.yul\":535:804   */\n  pop\n    /* \"#utility.yul\":484:804   */\n  swap2\n  swap1\n  pop\n  jump\t// out\n    /* \"#utility.yul\":810:951   */\ntag_27:\n    /* \"#utility.yul\":859:863   */\n  0x00\n    /* \"#utility.yul\":882:885   */\n  dup2\n    /* \"#utility.yul\":874:885   */\n  swap1\n  pop\n    /* \"#utility.yul\":905:908   */\n  dup2\n    /* \"#utility.yul\":902:903   */\n  0x00\n    /* \"#utility.yul\":895:909   */\n  mstore\n    /* \"#utility.yul\":939:943   */\n  0x20\n    /* \"#utility.yul\":936:937   */\n  0x00\n    /* \"#utility.yul\":926:944   */\n  keccak256\n    /* \"#utility.yul\":918:944   */\n  swap1\n  pop\n    /* \"#utility.yul\":810:951   */\n  swap2\n  swap1\n  pop\n  jump\t// out\n    /* \"#utility.yul\":957:1050   */\ntag_28:\n    /* \"#utility.yul\":994:1000   */\n  0x00\n    /* \"#utility.yul\":1041:1043   */\n  0x20\n    /* \"#utility.yul\":1036:1038   */\n  0x1f\n    /* \"#utility.yul\":1029:1034   */\n  dup4\n    /* \"#utility.yul\":1025:1039   */\n  add\n    /* \"#utility.yul\":1021:1044   */\n  div\n    /* \"#utility.yul\":1011:1044   */\n  swap1\n  pop\n    /* \"#utility.yul\":957:1050   */\n  swap2\n  swap1\n  pop\n  jump\t// out\n    /* \"#utility.yul\":1056:1163   */\ntag_29:\n    /* \"#utility.yul\":1100:1108   */\n  0x00\n    /* \"#utility.yul\":1150:1155   */\n  dup3\n    /* \"#utility.yul\":1144:1148   */\n  dup3\n    /* \"#utility.yul\":1140:1156   */\n  shl\n    /* \"#utility.yul\":1119:1156   */\n  swap1\n  pop\n    /* \"#utility.yul\":1056:1163   */\n  swap3\n  swap2\n  pop\n  pop\n  jump\t// out\n    /* \"#utility.yul\":1169:1562   */\ntag_30:\n    /* \"#utility.yul\":1238:1244   */\n  0x00\n    /* \"#utility.yul\":1288:1289   */\n  0x08\n    /* \"#utility.yul\":1276:1286   */\n  dup4\n    /* \"#utility.yul\":1272:1290   */\n  mul\n    /* \"#utility.yul\":1311:1408   */\n  tag_55\n    /* \"#utility.yul\":1341:1407   */\n  0xffffffffffffffffffffffffffffffffffffffffffffffffffffffffffffffff\n    /* \"#utility.yul\":1330:1339   */\n  dup3\n    /* \"#utility.yul\":1311:1408   */\n  tag_29\n  jump\t// in\ntag_55:\n    /* \"#utility.yul\":1429:1468   */\n  tag_56\n    /* \"#utility.yul\":1459:1467   */\n  dup7\n    /* \"#utility.yul\":1448:1457   */\n  dup4\n    /* \"#utility.yul\":1429:1468   */\n  tag_29\n  jump\t// in\ntag_56:\n    /* \"#utility.yul\":1417:1468   */\n  swap6\n  pop\n    /* \"#utility.yul\":1501:1505   */\n  dup1\n    /* \"#utility.yul\":1497:1506   */\n  not\n    /* \"#utility.yul\":1490:1495   */\n  dup5\n    /* \"#utility.yul\":1486:1507   */\n  and\n    /* \"#utility.yul\":1477:1507   */\n  swap4\n  pop\n    /* \"#utility.yul\":1550:1554   */\n  dup1\n    /* \"#utility.yul\":1540:1548   */\n  dup7\n    /* \"#utility.yul\":1536:1555   */\n  and\n    /* \"#utility.yul\":1529:1534   */\n  dup5\n    /* \"#utility.yul\":1526:1556   */\n  or\n    /* \"#utility.yul\":1516:1556   */\n  swap3\n  pop\n    /* \"#utility.yul\":1245:1562   */\n  pop\n  pop\n    /* \"#utility.yul\":1169:1562   */\n  swap4\n  swap3\n  pop\n  pop\n  pop\n  jump\t// out\n    /* \"#utility.yul\":1568:1645   */\ntag_31:\n    /* \"#utility.yul\":1605:1612   */\n  0x00\n    /* \"#utility.yul\":1634:1639   */\n  dup2\n    /* \"#utility.yul\":1623:1639   */\n  swap1\n  pop\n    /* \"#utility.yul\":1568:1645   */\n  swap2\n  swap1\n  pop\n  jump\t// out\n    /* \"#utility.yul\":1651:1711   */\ntag_32:\n    /* \"#utility.yul\":1679:1682   */\n  0x00\n    /* \"#utility.yul\":1700:1705   */\n  dup2\n    /* \"#utility.yul\":1693:1705   */\n  swap1\n  pop\n    /* \"#utility.yul\":1651:1711   */\n  swap2\n  swap1\n  pop\n  jump\t// out\n    /* \"#utility.yul\":1717:1859   */\ntag_33:\n    /* \"#utility.yul\":1767:1776   */\n  0x00\n    /* \"#utility.yul\":1800:1853   */\n  tag_60\n    /* \"#utility.yul\":1818:1852   */\n  tag_61\n    /* \"#utility.yul\":1827:1851   */\n  tag_62\n    /* \"#utility.yul\":1845:1850   */\n  dup5\n    /* \"#utility.yul\":1827:1851   */\n  tag_31\n  jump\t// in\ntag_62:\n    /* \"#utility.yul\":1818:1852   */\n  tag_32\n  jump\t// in\ntag_61:\n    /* \"#utility.yul\":1800:1853   */\n  tag_31\n  jump\t// in\ntag_60:\n    /* \"#utility.yul\":1787:1853   */\n  swap1\n  pop\n    /* \"#utility.yul\":1717:1859   */\n  swap2\n  swap1\n  pop\n  jump\t// out\n    /* \"#utility.yul\":1865:1940   */\ntag_34:\n    /* \"#utility.yul\":1908:1911   */\n  0x00\n    /* \"#utility.yul\":1929:1934   */\n  dup2\n    /* \"#utility.yul\":1922:1934   */\n  swap1\n  pop\n    /* \"#utility.yul\":1865:1940   */\n  swap2\n  swap1\n  pop\n  jump\t// out\n    /* \"#utility.yul\":1946:2215   */\ntag_35:\n    /* \"#utility.yul\":2056:2095   */\n  tag_65\n    /* \"#utility.yul\":2087:2094   */\n  dup4\n    /* \"#utility.yul\":2056:2095   */\n  tag_33\n  jump\t// in\ntag_65:\n    /* \"#utility.yul\":2117:2208   */\n  tag_66\n    /* \"#utility.yul\":2166:2207   */\n  tag_67\n    /* \"#utility.yul\":2190:2206   */\n  dup3\n    /* \"#utility.yul\":2166:2207   */\n  tag_34\n  jump\t// in\ntag_67:\n    /* \"#utility.yul\":2158:2164   */\n  dup5\n    /* \"#utility.yul\":2151:2155   */\n  dup5\n    /* \"#utility.yul\":2145:2156   */\n  sload\n    /* \"#utility.yul\":2117:2208   */\n  tag_30\n  jump\t// in\ntag_66:\n    /* \"#utility.yul\":2111:2115   */\n  dup3\n    /* \"#utility.yul\":2104:2209   */\n  sstore\n    /* \"#utility.yul\":2022:2215   */\n  pop\n    /* \"#utility.yul\":1946:2215   */\n  pop\n  pop\n  pop\n  jump\t// out\n    /* \"#utility.yul\":2221:2294   */\ntag_36:\n    /* \"#utility.yul\":2266:2269   */\n  0x00\n    /* \"#utility.yul\":2221:2294   */\n  swap1\n  jump\t// out\n    /* \"#utility.yul\":2300:2489   */\ntag_37:\n    /* \"#utility.yul\":2377:2409   */\n  tag_70\n  tag_36\n  jump\t// in\ntag_70:\n    /* \"#utility.yul\":2418:2483   */\n  tag_71\n    /* \"#utility.yul\":2476:2482   */\n  dup2\n    /* \"#utility.yul\":2468:2474   */\n  dup5\n    /* \"#utility.yul\":2462:2466   */\n  dup5\n    /* \"#utility.yul\":2418:2483   */\n  tag_35\n  jump\t// in\ntag_71:\n    /* \"#utility.yul\":2353:2489   */\n  pop\n    /* \"#utility.yul\":2300:2489   */\n  pop\n  pop\n  jump\t// out\n    /* \"#utility.yul\":2495:2681   */\ntag_38:\n    /* \"#utility.yul\":2555:2675   */\ntag_73:\n    /* \"#utility.yul\":2572:2575   */\n  dup2\n    /* \"#utility.yul\":2565:2570   */\n  dup2\n    /* \"#utility.yul\":2562:2576   */\n  lt\n    /* \"#utility.yul\":2555:2675   */\n  iszero\n  tag_75\n  jumpi\n    /* \"#utility.yul\":2626:2665   */\n  tag_76\n    /* \"#utility.yul\":2663:2664   */\n  0x00\n    /* \"#utility.yul\":2656:2661   */\n  dup3\n    /* \"#utility.yul\":2626:2665   */\n  tag_37\n  jump\t// in\ntag_76:\n    /* \"#utility.yul\":2599:2600   */\n  0x01\n    /* \"#utility.yul\":2592:2597   */\n  dup2\n    /* \"#utility.yul\":2588:2601   */\n  add\n    /* \"#utility.yul\":2579:2601   */\n  swap1\n  pop\n    /* \"#utility.yul\":2555:2675   */\n  jump(tag_73)\ntag_75:\n    /* \"#utility.yul\":2495:2681   */\n  pop\n  pop\n  jump\t// out\n    /* \"#utility.yul\":2687:3230   */\ntag_39:\n    /* \"#utility.yul\":2788:2790   */\n  0x1f\n    /* \"#utility.yul\":2783:2786   */\n  dup3\n    /* \"#utility.yul\":2780:2791   */\n  gt\n    /* \"#utility.yul\":2777:3223   */\n  iszero\n  tag_78\n  jumpi\n    /* \"#utility.yul\":2822:2860   */\n  tag_79\n    /* \"#utility.yul\":2854:2859   */\n  dup2\n    /* \"#utility.yul\":2822:2860   */\n  tag_27\n  jump\t// in\ntag_79:\n    /* \"#utility.yul\":2906:2935   */\n  tag_80\n    /* \"#utility.yul\":2924:2934   */\n  dup5\n    /* \"#utility.yul\":2906:2935   */\n  tag_28\n  jump\t// in\ntag_80:\n    /* \"#utility.yul\":2896:2904   */\n  dup2\n    /* \"#utility.yul\":2892:2936   */\n  add\n    /* \"#utility.yul\":3089:3091   */\n  0x20\n    /* \"#utility.yul\":3077:3087   */\n  dup6\n    /* \"#utility.yul\":3074:3092   */\n  lt\n    /* \"#utility.yul\":3071:3120   */\n  iszero\n  tag_81\n  jumpi\n    /* \"#utility.yul\":3110:3118   */\n  dup2\n    /* \"#utility.yul\":3095:3118   */\n  swap1\n  pop\n    /* \"#utility.yul\":3071:3120   */\ntag_81:\n    /* \"#utility.yul\":3133:3213   */\n  tag_82\n    /* \"#utility.yul\":3189:3211   */\n  tag_83\n    /* \"#utility.yul\":3207:3210   */\n  dup6\n    /* \"#utility.yul\":3189:3211   */\n  tag_28\n  jump\t// in\ntag_83:\n    /* \"#utility.yul\":3179:3187   */\n  dup4\n    /* \"#utility.yul\":3175:3212   */\n  add\n    /* \"#utility.yul\":3162:3173   */\n  dup3\n    /* \"#utility.yul\":3133:3213   */\n  tag_38\n  jump\t// in\ntag_82:\n    /* \"#utility.yul\":2792:3223   */\n  pop\n  pop\n    /* \"#utility.yul\":2777:3223   */\ntag_78:\n    /* \"#utility.yul\":2687:3230   */\n  pop\n  pop\n  pop\n  jump\t// out\n    /* \"#utility.yul\":3236:3353   */\ntag_40:\n    /* \"#utility.yul\":3290:3298   */\n  0x00\n    /* \"#utility.yul\":3340:3345   */\n  dup3\n    /* \"#utility.yul\":3334:3338   */\n  dup3\n    /* \"#utility.yul\":3330:3346   */\n  shr\n    /* \"#utility.yul\":3309:3346   */\n  swap1\n  pop\n    /* \"#utility.yul\":3236:3353   */\n  swap3\n  swap2\n  pop\n  pop\n  jump\t// out\n    /* \"#utility.yul\":3359:3528   */\ntag_41:\n    /* \"#utility.yul\":3403:3409   */\n  0x00\n    /* \"#utility.yul\":3436:3487   */\n  tag_86\n    /* \"#utility.yul\":3484:3485   */\n  0x00\n    /* \"#utility.yul\":3480:3486   */\n  not\n    /* \"#utility.yul\":3472:3477   */\n  dup5\n    /* \"#utility.yul\":3469:3470   */\n  0x08\n    /* \"#utility.yul\":3465:3478   */\n  mul\n    /* \"#utility.yul\":3436:3487   */\n  tag_40\n  jump\t// in\ntag_86:\n    /* \"#utility.yul\":3432:3488   */\n  not\n    /* \"#utility.yul\":3517:3521   */\n  dup1\n    /* \"#utility.yul\":3511:3515   */\n  dup4\n    /* \"#utility.yul\":3507:3522   */\n  and\n    /* \"#utility.yul\":3497:3522   */\n  swap2\n  pop\n    /* \"#utility.yul\":3410:3528   */\n  pop\n    /* \"#utility.yul\":3359:3528   */\n  swap3\n  swap2\n  pop\n  pop\n  jump\t// out\n    /* \"#utility.yul\":3533:3828   */\ntag_42:\n    /* \"#utility.yul\":3609:3613   */\n  0x00\n    /* \"#utility.yul\":3755:3784   */\n  tag_88\n    /* \"#utility.yul\":3780:3783   */\n  dup4\n    /* \"#utility.yul\":3774:3778   */\n  dup4\n    /* \"#utility.yul\":3755:3784   */\n  tag_41\n  jump\t// in\ntag_88:\n    /* \"#utility.yul\":3747:3784   */\n  swap2\n  pop\n    /* \"#utility.yul\":3817:3820   */\n  dup3\n    /* \"#utility.yul\":3814:3815   */\n  0x02\n    /* \"#utility.yul\":3810:3821   */\n  mul\n    /* \"#utility.yul\":3804:3808   */\n  dup3\n    /* \"#utility.yul\":3801:3822   */\n  or\n    /* \"#utility.yul\":3793:3822   */\n  swap1\n  pop\n    /* \"#utility.yul\":3533:3828   */\n  swap3\n  swap2\n  pop\n  pop\n  jump\t// out\n    /* \"#utility.yul\":3833:5228   */\ntag_9:\n    /* \"#utility.yul\":3950:3987   */\n  tag_90\n    /* \"#utility.yul\":3983:3986   */\n  dup3\n    /* \"#utility.yul\":3950:3987   */\n  tag_24\n  jump\t// in\ntag_90:\n    /* \"#utility.yul\":4052:4070   */\n  0xffffffffffffffff\n    /* \"#utility.yul\":4044:4050   */\n  dup2\n    /* \"#utility.yul\":4041:4071   */\n  gt\n    /* \"#utility.yul\":4038:4094   */\n  iszero\n  tag_91\n  jumpi\n    /* \"#utility.yul\":4074:4092   */\n  tag_92\n  tag_25\n  jump\t// in\ntag_92:\n    /* \"#utility.yul\":4038:4094   */\ntag_91:\n    /* \"#utility.yul\":4118:4156   */\n  tag_93\n    /* \"#utility.yul\":4150:4154   */\n  dup3\n    /* \"#utility.yul\":4144:4155   */\n  sload\n    /* \"#utility.yul\":4118:4156   */\n  tag_17\n  jump\t// in\ntag_93:\n    /* \"#utility.yul\":4203:4270   */\n  tag_94\n    /* \"#utility.yul\":4263:4269   */\n  dup3\n    /* \"#utility.yul\":4255:4261   */\n  dup3\n    /* \"#utility.yul\":4249:4253   */\n  dup6\n    /* \"#utility.yul\":4203:4270   */\n  tag_39\n  jump\t// in\ntag_94:\n    /* \"#utility.yul\":4297:4298   */\n  0x00\n    /* \"#utility.yul\":4321:4325   */\n  0x20\n    /* \"#utility.yul\":4308:4325   */\n  swap1\n  pop\n    /* \"#utility.yul\":4353:4355   */\n  0x1f\n    /* \"#utility.yul\":4345:4351   */\n  dup4\n    /* \"#utility.yul\":4342:4356   */\n  gt\n    /* \"#utility.yul\":4370:4371   */\n  0x01\n    /* \"#utility.yul\":4365:4983   */\n  dup2\n  eq\n  tag_96\n  jumpi\n    /* \"#utility.yul\":5027:5028   */\n  0x00\n    /* \"#utility.yul\":5044:5050   */\n  dup5\n    /* \"#utility.yul\":5041:5118   */\n  iszero\n  tag_97\n  jumpi\n    /* \"#utility.yul\":5093:5102   */\n  dup3\n    /* \"#utility.yul\":5088:5091   */\n  dup8\n    /* \"#utility.yul\":5084:5103   */\n  add\n    /* \"#utility.yul\":5078:5104   */\n  mload\n    /* \"#utility.yul\":5069:5104   */\n  swap1\n  pop\n    /* \"#utility.yul\":5041:5118   */\ntag_97:\n    /* \"#utility.yul\":5144:5211   */\n  tag_98\n    /* \"#utility.yul\":5204:5210   */\n  dup6\n    /* \"#utility.yul\":5197:5202   */\n  dup3\n    /* \"#utility.yul\":5144:5211   */\n  tag_42\n  jump\t// in\ntag_98:\n    /* \"#utility.yul\":5138:5142   */\n  dup7\n    /* \"#utility.yul\":5131:5212   */\n  sstore\n    /* \"#utility.yul\":5000:5222   */\n  pop\n    /* \"#utility.yul\":4335:5222   */\n  jump(tag_95)\n    /* \"#utility.yul\":4365:4983   */\ntag_96:\n    /* \"#utility.yul\":4417:4421   */\n  0x1f\n    /* \"#utility.yul\":4413:4422   */\n  not\n    /* \"#utility.yul\":4405:4411   */\n  dup5\n    /* \"#utility.yul\":4401:4423   */\n  and\n    /* \"#utility.yul\":4451:4488   */\n  tag_99\n    /* \"#utility.yul\":4483:4487   */\n  dup7\n    /* \"#utility.yul\":4451:4488   */\n  tag_27\n  jump\t// in\ntag_99:\n    /* \"#utility.yul\":4510:4511   */\n  0x00\n    /* \"#utility.yul\":4524:4732   */\ntag_100:\n    /* \"#utility.yul\":4538:4545   */\n  dup3\n    /* \"#utility.yul\":4535:4536   */\n  dup2\n    /* \"#utility.yul\":4532:4546   */\n  lt\n    /* \"#utility.yul\":4524:4732   */\n  iszero\n  tag_102\n  jumpi\n    /* \"#utility.yul\":4617:4626   */\n  dup5\n    /* \"#utility.yul\":4612:4615   */\n  dup10\n    /* \"#utility.yul\":4608:4627   */\n  add\n    /* \"#utility.yul\":4602:4628   */\n  mload\n    /* \"#utility.yul\":4594:4600   */\n  dup3\n    /* \"#utility.yul\":4587:4629   */\n  sstore\n    /* \"#utility.yul\":4668:4669   */\n  0x01\n    /* \"#utility.yul\":4660:4666   */\n  dup3\n    /* \"#utility.yul\":4656:4670   */\n  add\n    /* \"#utility.yul\":4646:4670   */\n  swap2\n  pop\n    /* \"#utility.yul\":4715:4717   */\n  0x20\n    /* \"#utility.yul\":4704:4713   */\n  dup6\n    /* \"#utility.yul\":4700:4718   */\n  add\n    /* \"#utility.yul\":4687:4718   */\n  swap5\n  pop\n    /* \"#utility.yul\":4561:4565   */\n  0x20\n    /* \"#utility.yul\":4558:4559   */\n  dup2\n    /* \"#utility.yul\":4554:4566   */\n  add\n    /* \"#utility.yul\":4549:4566   */\n  swap1\n  pop\n    /* \"#utility.yul\":4524:4732   */\n  jump(tag_100)\ntag_102:\n    /* \"#utility.yul\":4760:4766   */\n  dup7\n    /* \"#utility.yul\":4751:4758   */\n  dup4\n    /* \"#utility.yul\":4748:4767   */\n  lt\n    /* \"#utility.yul\":4745:4924   */\n  iszero\n  tag_103\n  jumpi\n    /* \"#utility.yul\":4818:4827   */\n  dup5\n    /* \"#utility.yul\":4813:4816   */\n  dup10\n    /* \"#utility.yul\":4809:4828   */\n  add\n    /* \"#utility.yul\":4803:4829   */\n  mload\n    /* \"#utility.yul\":4861:4909   */\n  tag_104\n    /* \"#utility.yul\":4903:4907   */\n  0x1f\n    /* \"#utility.yul\":4895:4901   */\n  dup10\n    /* \"#utility.yul\":4891:4908   */\n  and\n    /* \"#utility.yul\":4880:4889   */\n  dup3\n    /* \"#utility.yul\":4861:4909   */\n  tag_41\n  jump\t// in\ntag_104:\n    /* \"#utility.yul\":4853:4859   */\n  dup4\n    /* \"#utility.yul\":4846:4910   */\n  sstore\n    /* \"#utility.yul\":4768:4924   */\n  pop\n    /* \"#utility.yul\":4745:4924   */\ntag_103:\n    /* \"#utility.yul\":4970:4971   */\n  0x01\n    /* \"#utility.yul\":4966:4967   */\n  0x02\n    /* \"#utility.yul\":4958:4964   */\n  dup9\n    /* \"#utility.yul\":4954:4968   */\n  mul\n    /* \"#utility.yul\":4950:4972   */\n  add\n    /* \"#utility.yul\":4944:4948   */\n  dup9\n    /* \"#utility.yul\":4937:4973   */\n  sstore\n    /* \"#utility.yul\":4372:4983   */\n  pop\n  pop\n  pop\n    /* \"#utility.yul\":4335:5222   */\ntag_95:\n  pop\n    /* \"#utility.yul\":3925:5228   */\n  pop\n  pop\n  pop\n    /* \"#utility.yul\":3833:5228   */\n  pop\n  pop\n  jump\t// out\n    /* \"contracts/Struct.sol\":225:866  contract Struct{... */\ntag_4:\n  dataSize(sub_0)\n  dup1\n  dataOffset(sub_0)\n  0x00\n  codecopy\n  0x00\n  return\nstop\n\nsub_0: assembly {\n        /* \"contracts/Struct.sol\":225:866  contract Struct{... */\n      mstore(0x40, 0x80)\n      callvalue\n      dup1\n      iszero\n      tag_1\n      jumpi\n      0x00\n      dup1\n      revert\n    tag_1:\n      pop\n      jumpi(tag_2, lt(calldatasize, 0x04))\n      shr(0xe0, calldataload(0x00))\n      dup1\n      0x06ead22e\n      eq\n      tag_3\n      jumpi\n      dup1\n      0x5652d682\n      eq\n      tag_4\n      jumpi\n      dup1\n      0xa162b0a2\n      eq\n      tag_5\n      jumpi\n      dup1\n      0xe5e11a7f\n      eq\n      tag_6\n      jumpi\n      dup1\n      0xe6b46445\n      eq\n      tag_7\n      jumpi\n    tag_2:\n      0x00\n      dup1\n      revert\n        /* \"contracts/Struct.sol\":247:288  mapping (uint => Student) public students */\n    tag_3:\n      tag_8\n      0x04\n      dup1\n      calldatasize\n      sub\n      dup2\n      add\n      swap1\n      tag_9\n      swap2\n      swap1\n      tag_10\n      jump\t// in\n    tag_9:\n      tag_11\n      jump\t// in\n    tag_8:\n      mload(0x40)\n      tag_12\n      swap5\n      swap4\n      swap3\n      swap2\n      swap1\n      tag_13\n      jump\t// in\n    tag_12:\n      mload(0x40)\n      dup1\n      swap2\n      sub\n      swap1\n      return\n        /* \"contracts/Struct.sol\":756:863  function storeUpdate() public{... */\n    tag_4:\n      tag_14\n      tag_15\n      jump\t// in\n    tag_14:\n      stop\n        /* \"contracts/Struct.sol\":297:340  string[] public quota = [\"10%\",\"24%\",\"36%\"] */\n    tag_5:\n      tag_16\n      0x04\n      dup1\n      calldatasize\n      sub\n      dup2\n      add\n      swap1\n      tag_17\n      swap2\n      swap1\n      tag_10\n      jump\t// in\n    tag_17:\n      tag_18\n      jump\t// in\n    tag_16:\n      mload(0x40)\n      tag_19\n      swap2\n      swap1\n      tag_20\n      jump\t// in\n    tag_19:\n      mload(0x40)\n      dup1\n      swap2\n      sub\n      swap1\n      return\n        /* \"contracts/Struct.sol\":640:748  function memUpdate() public view{... */\n    tag_6:\n      tag_21\n      tag_22\n      jump\t// in\n    tag_21:\n      stop\n        /* \"contracts/Struct.sol\":351:632  function addStudent(uint _id, string memory _name, uint _rank, StudentType _type) public{... */\n    tag_7:\n      tag_23\n      0x04\n      dup1\n      calldatasize\n      sub\n      dup2\n      add\n      swap1\n      tag_24\n      swap2\n      swap1\n      tag_25\n      jump\t// in\n    tag_24:\n      tag_26\n      jump\t// in\n    tag_23:\n      stop\n        /* \"contracts/Struct.sol\":247:288  mapping (uint => Student) public students */\n    tag_11:\n      mstore(0x20, 0x00)\n      dup1\n      0x00\n      mstore\n      keccak256(0x00, 0x40)\n      0x00\n      swap2\n      pop\n      swap1\n      pop\n      dup1\n      0x00\n      add\n      sload\n      swap1\n      dup1\n      0x01\n      add\n      dup1\n      sload\n      tag_27\n      swap1\n      tag_28\n      jump\t// in\n    tag_27:\n      dup1\n      0x1f\n      add\n      0x20\n      dup1\n      swap2\n      div\n      mul\n      0x20\n      add\n      mload(0x40)\n      swap1\n      dup2\n      add\n      0x40\n      mstore\n      dup1\n      swap3\n      swap2\n      swap1\n      dup2\n      dup2\n      mstore\n      0x20\n      add\n      dup3\n      dup1\n      sload\n      tag_29\n      swap1\n      tag_28\n      jump\t// in\n    tag_29:\n      dup1\n      iszero\n      tag_30\n      jumpi\n      dup1\n      0x1f\n      lt\n      tag_31\n      jumpi\n      0x0100\n      dup1\n      dup4\n      sload\n      div\n      mul\n      dup4\n      mstore\n      swap2\n      0x20\n      add\n      swap2\n      jump(tag_30)\n    tag_31:\n      dup3\n      add\n      swap2\n      swap1\n      0x00\n      mstore\n      keccak256(0x00, 0x20)\n      swap1\n    tag_32:\n      dup2\n      sload\n      dup2\n      mstore\n      swap1\n      0x01\n      add\n      swap1\n      0x20\n      add\n      dup1\n      dup4\n      gt\n      tag_32\n      jumpi\n      dup3\n      swap1\n      sub\n      0x1f\n      and\n      dup3\n      add\n      swap2\n    tag_30:\n      pop\n      pop\n      pop\n      pop\n      pop\n      swap1\n      dup1\n      0x02\n      add\n      0x00\n      swap1\n      sload\n      swap1\n      0x0100\n      exp\n      swap1\n      div\n      0xff\n      and\n      swap1\n      dup1\n      0x03\n      add\n      sload\n      swap1\n      pop\n      dup5\n      jump\t// out\n        /* \"contracts/Struct.sol\":756:863  function storeUpdate() public{... */\n    tag_15:\n        /* \"contracts/Struct.sol\":796:819  string[] storage quota1 */\n      0x00\n        /* \"contracts/Struct.sol\":822:827  quota */\n      0x01\n        /* \"contracts/Struct.sol\":796:827  string[] storage quota1 = quota */\n      swap1\n      pop\n        /* \"contracts/Struct.sol\":838:855  quota1[0] = \"87%\" */\n      mload(0x40)\n      dup1\n      0x40\n      add\n      0x40\n      mstore\n      dup1\n      0x03\n      dup2\n      mstore\n      0x20\n      add\n      0x3837250000000000000000000000000000000000000000000000000000000000\n      dup2\n      mstore\n      pop\n        /* \"contracts/Struct.sol\":838:844  quota1 */\n      dup2\n        /* \"contracts/Struct.sol\":845:846  0 */\n      0x00\n        /* \"contracts/Struct.sol\":838:847  quota1[0] */\n      dup2\n      sload\n      dup2\n      lt\n      tag_34\n      jumpi\n      tag_35\n      tag_36\n      jump\t// in\n    tag_35:\n    tag_34:\n      swap1\n      0x00\n      mstore\n      keccak256(0x00, 0x20)\n      add\n        /* \"contracts/Struct.sol\":838:855  quota1[0] = \"87%\" */\n      swap1\n      dup2\n      tag_38\n      swap2\n      swap1\n      tag_39\n      jump\t// in\n    tag_38:\n      pop\n        /* \"contracts/Struct.sol\":785:863  {... */\n      pop\n        /* \"contracts/Struct.sol\":756:863  function storeUpdate() public{... */\n      jump\t// out\n        /* \"contracts/Struct.sol\":297:340  string[] public quota = [\"10%\",\"24%\",\"36%\"] */\n    tag_18:\n      0x01\n      dup2\n      dup2\n      sload\n      dup2\n      lt\n      tag_40\n      jumpi\n      0x00\n      dup1\n      revert\n    tag_40:\n      swap1\n      0x00\n      mstore\n      keccak256(0x00, 0x20)\n      add\n      0x00\n      swap2\n      pop\n      swap1\n      pop\n      dup1\n      sload\n      tag_42\n      swap1\n      tag_28\n      jump\t// in\n    tag_42:\n      dup1\n      0x1f\n      add\n      0x20\n      dup1\n      swap2\n      div\n      mul\n      0x20\n      add\n      mload(0x40)\n      swap1\n      dup2\n      add\n      0x40\n      mstore\n      dup1\n      swap3\n      swap2\n      swap1\n      dup2\n      dup2\n      mstore\n      0x20\n      add\n      dup3\n      dup1\n      sload\n      tag_43\n      swap1\n      tag_28\n      jump\t// in\n    tag_43:\n      dup1\n      iszero\n      tag_44\n      jumpi\n      dup1\n      0x1f\n      lt\n      tag_45\n      jumpi\n      0x0100\n      dup1\n      dup4\n      sload\n      div\n      mul\n      dup4\n      mstore\n      swap2\n      0x20\n      add\n      swap2\n      jump(tag_44)\n    tag_45:\n      dup3\n      add\n      swap2\n      swap1\n      0x00\n      mstore\n      keccak256(0x00, 0x20)\n      swap1\n    tag_46:\n      dup2\n      sload\n      dup2\n      mstore\n      swap1\n      0x01\n      add\n      swap1\n      0x20\n      add\n      dup1\n      dup4\n      gt\n      tag_46\n      jumpi\n      dup3\n      swap1\n      sub\n      0x1f\n      and\n      dup3\n      add\n      swap2\n    tag_44:\n      pop\n      pop\n      pop\n      pop\n      pop\n      dup2\n      jump\t// out\n        /* \"contracts/Struct.sol\":640:748  function memUpdate() public view{... */\n    tag_22:\n        /* \"contracts/Struct.sol\":683:705  string[] memory quota1 */\n      0x00\n        /* \"contracts/Struct.sol\":708:713  quota */\n      0x01\n        /* \"contracts/Struct.sol\":683:713  string[] memory quota1 = quota */\n      dup1\n      sload\n      dup1\n      0x20\n      mul\n      0x20\n      add\n      mload(0x40)\n      swap1\n      dup2\n      add\n      0x40\n      mstore\n      dup1\n      swap3\n      swap2\n      swap1\n      dup2\n      dup2\n      mstore\n      0x20\n      add\n      0x00\n      swap1\n    tag_48:\n      dup3\n      dup3\n      lt\n      iszero\n      tag_49\n      jumpi\n      dup4\n      dup3\n      swap1\n      0x00\n      mstore\n      keccak256(0x00, 0x20)\n      add\n      dup1\n      sload\n      tag_51\n      swap1\n      tag_28\n      jump\t// in\n    tag_51:\n      dup1\n      0x1f\n      add\n      0x20\n      dup1\n      swap2\n      div\n      mul\n      0x20\n      add\n      mload(0x40)\n      swap1\n      dup2\n      add\n      0x40\n      mstore\n      dup1\n      swap3\n      swap2\n      swap1\n      dup2\n      dup2\n      mstore\n      0x20\n      add\n      dup3\n      dup1\n      sload\n      tag_52\n      swap1\n      tag_28\n      jump\t// in\n    tag_52:\n      dup1\n      iszero\n      tag_53\n      jumpi\n      dup1\n      0x1f\n      lt\n      tag_54\n      jumpi\n      0x0100\n      dup1\n      dup4\n      sload\n      div\n      mul\n      dup4\n      mstore\n      swap2\n      0x20\n      add\n      swap2\n      jump(tag_53)\n    tag_54:\n      dup3\n      add\n      swap2\n      swap1\n      0x00\n      mstore\n      keccak256(0x00, 0x20)\n      swap1\n    tag_55:\n      dup2\n      sload\n      dup2\n      mstore\n      swap1\n      0x01\n      add\n      swap1\n      0x20\n      add\n      dup1\n      dup4\n      gt\n      tag_55\n      jumpi\n      dup3\n      swap1\n      sub\n      0x1f\n      and\n      dup3\n      add\n      swap2\n    tag_53:\n      pop\n      pop\n      pop\n      pop\n      pop\n      dup2\n      mstore\n      0x20\n      add\n      swap1\n      0x01\n      add\n      swap1\n      jump(tag_48)\n    tag_49:\n      pop\n      pop\n      pop\n      pop\n      swap1\n      pop\n        /* \"contracts/Struct.sol\":724:740  quota1[0] = \"8%\" */\n      mload(0x40)\n      dup1\n      0x40\n      add\n      0x40\n      mstore\n      dup1\n      0x02\n      dup2\n      mstore\n      0x20\n      add\n      0x3825000000000000000000000000000000000000000000000000000000000000\n      dup2\n      mstore\n      pop\n        /* \"contracts/Struct.sol\":724:730  quota1 */\n      dup2\n        /* \"contracts/Struct.sol\":731:732  0 */\n      0x00\n        /* \"contracts/Struct.sol\":724:733  quota1[0] */\n      dup2\n      mload\n      dup2\n      lt\n      tag_56\n      jumpi\n      tag_57\n      tag_36\n      jump\t// in\n    tag_57:\n    tag_56:\n      0x20\n      mul\n      0x20\n      add\n      add\n        /* \"contracts/Struct.sol\":724:740  quota1[0] = \"8%\" */\n      dup2\n      swap1\n      mstore\n      pop\n        /* \"contracts/Struct.sol\":672:748  {... */\n      pop\n        /* \"contracts/Struct.sol\":640:748  function memUpdate() public view{... */\n      jump\t// out\n        /* \"contracts/Struct.sol\":351:632  function addStudent(uint _id, string memory _name, uint _rank, StudentType _type) public{... */\n    tag_26:\n        /* \"contracts/Struct.sol\":450:467  Student memory s2 */\n      0x00\n        /* \"contracts/Struct.sol\":470:593  Student({... */\n      mload(0x40)\n      dup1\n      0x80\n      add\n      0x40\n      mstore\n      dup1\n        /* \"contracts/Struct.sol\":498:501  _id */\n      dup7\n        /* \"contracts/Struct.sol\":470:593  Student({... */\n      dup2\n      mstore\n      0x20\n      add\n        /* \"contracts/Struct.sol\":522:527  _name */\n      dup6\n        /* \"contracts/Struct.sol\":470:593  Student({... */\n      dup2\n      mstore\n      0x20\n      add\n        /* \"contracts/Struct.sol\":549:554  _type */\n      dup4\n        /* \"contracts/Struct.sol\":470:593  Student({... */\n      0x02\n      dup2\n      gt\n      iszero\n      tag_59\n      jumpi\n      tag_60\n      tag_61\n      jump\t// in\n    tag_60:\n    tag_59:\n      dup2\n      mstore\n      0x20\n      add\n        /* \"contracts/Struct.sol\":576:581  _rank */\n      dup5\n        /* \"contracts/Struct.sol\":470:593  Student({... */\n      dup2\n      mstore\n      pop\n        /* \"contracts/Struct.sol\":450:593  Student memory s2 = Student({... */\n      swap1\n      pop\n        /* \"contracts/Struct.sol\":622:624  s2 */\n      dup1\n        /* \"contracts/Struct.sol\":606:614  students */\n      0x00\n        /* \"contracts/Struct.sol\":606:619  students[_id] */\n      dup1\n        /* \"contracts/Struct.sol\":615:618  _id */\n      dup8\n        /* \"contracts/Struct.sol\":606:619  students[_id] */\n      dup2\n      mstore\n      0x20\n      add\n      swap1\n      dup2\n      mstore\n      0x20\n      add\n      0x00\n      keccak256\n        /* \"contracts/Struct.sol\":606:624  students[_id] = s2 */\n      0x00\n      dup3\n      add\n      mload\n      dup2\n      0x00\n      add\n      sstore\n      0x20\n      dup3\n      add\n      mload\n      dup2\n      0x01\n      add\n      swap1\n      dup2\n      tag_62\n      swap2\n      swap1\n      tag_39\n      jump\t// in\n    tag_62:\n      pop\n      0x40\n      dup3\n      add\n      mload\n      dup2\n      0x02\n      add\n      exp(0x0100, 0x00)\n      dup2\n      sload\n      dup2\n      0xff\n      mul\n      not\n      and\n      swap1\n      dup4\n      0x02\n      dup2\n      gt\n      iszero\n      tag_63\n      jumpi\n      tag_64\n      tag_61\n      jump\t// in\n    tag_64:\n    tag_63:\n      mul\n      or\n      swap1\n      sstore\n      pop\n      0x60\n      dup3\n      add\n      mload\n      dup2\n      0x03\n      add\n      sstore\n      swap1\n      pop\n      pop\n        /* \"contracts/Struct.sol\":439:632  {... */\n      pop\n        /* \"contracts/Struct.sol\":351:632  function addStudent(uint _id, string memory _name, uint _rank, StudentType _type) public{... */\n      pop\n      pop\n      pop\n      pop\n      jump\t// out\n        /* \"#utility.yul\":7:82   */\n    tag_65:\n        /* \"#utility.yul\":40:46   */\n      0x00\n        /* \"#utility.yul\":73:75   */\n      0x40\n        /* \"#utility.yul\":67:76   */\n      mload\n        /* \"#utility.yul\":57:76   */\n      swap1\n      pop\n        /* \"#utility.yul\":7:82   */\n      swap1\n      jump\t// out\n        /* \"#utility.yul\":88:205   */\n    tag_66:\n        /* \"#utility.yul\":197:198   */\n      0x00\n        /* \"#utility.yul\":194:195   */\n      dup1\n        /* \"#utility.yul\":187:199   */\n      revert\n        /* \"#utility.yul\":211:328   */\n    tag_67:\n        /* \"#utility.yul\":320:321   */\n      0x00\n        /* \"#utility.yul\":317:318   */\n      dup1\n        /* \"#utility.yul\":310:322   */\n      revert\n        /* \"#utility.yul\":334:411   */\n    tag_68:\n        /* \"#utility.yul\":371:378   */\n      0x00\n        /* \"#utility.yul\":400:405   */\n      dup2\n        /* \"#utility.yul\":389:405   */\n      swap1\n      pop\n        /* \"#utility.yul\":334:411   */\n      swap2\n      swap1\n      pop\n      jump\t// out\n        /* \"#utility.yul\":417:539   */\n    tag_69:\n        /* \"#utility.yul\":490:514   */\n      tag_114\n        /* \"#utility.yul\":508:513   */\n      dup2\n        /* \"#utility.yul\":490:514   */\n      tag_68\n      jump\t// in\n    tag_114:\n        /* \"#utility.yul\":483:488   */\n      dup2\n        /* \"#utility.yul\":480:515   */\n      eq\n        /* \"#utility.yul\":470:533   */\n      tag_115\n      jumpi\n        /* \"#utility.yul\":529:530   */\n      0x00\n        /* \"#utility.yul\":526:527   */\n      dup1\n        /* \"#utility.yul\":519:531   */\n      revert\n        /* \"#utility.yul\":470:533   */\n    tag_115:\n        /* \"#utility.yul\":417:539   */\n      pop\n      jump\t// out\n        /* \"#utility.yul\":545:684   */\n    tag_70:\n        /* \"#utility.yul\":591:596   */\n      0x00\n        /* \"#utility.yul\":629:635   */\n      dup2\n        /* \"#utility.yul\":616:636   */\n      calldataload\n        /* \"#utility.yul\":607:636   */\n      swap1\n      pop\n        /* \"#utility.yul\":645:678   */\n      tag_117\n        /* \"#utility.yul\":672:677   */\n      dup2\n        /* \"#utility.yul\":645:678   */\n      tag_69\n      jump\t// in\n    tag_117:\n        /* \"#utility.yul\":545:684   */\n      swap3\n      swap2\n      pop\n      pop\n      jump\t// out\n        /* \"#utility.yul\":690:1019   */\n    tag_10:\n        /* \"#utility.yul\":749:755   */\n      0x00\n        /* \"#utility.yul\":798:800   */\n      0x20\n        /* \"#utility.yul\":786:795   */\n      dup3\n        /* \"#utility.yul\":777:784   */\n      dup5\n        /* \"#utility.yul\":773:796   */\n      sub\n        /* \"#utility.yul\":769:801   */\n      slt\n        /* \"#utility.yul\":766:885   */\n      iszero\n      tag_119\n      jumpi\n        /* \"#utility.yul\":804:883   */\n      tag_120\n      tag_66\n      jump\t// in\n    tag_120:\n        /* \"#utility.yul\":766:885   */\n    tag_119:\n        /* \"#utility.yul\":924:925   */\n      0x00\n        /* \"#utility.yul\":949:1002   */\n      tag_121\n        /* \"#utility.yul\":994:1001   */\n      dup5\n        /* \"#utility.yul\":985:991   */\n      dup3\n        /* \"#utility.yul\":974:983   */\n      dup6\n        /* \"#utility.yul\":970:992   */\n      add\n        /* \"#utility.yul\":949:1002   */\n      tag_70\n      jump\t// in\n    tag_121:\n        /* \"#utility.yul\":939:1002   */\n      swap2\n      pop\n        /* \"#utility.yul\":895:1012   */\n      pop\n        /* \"#utility.yul\":690:1019   */\n      swap3\n      swap2\n      pop\n      pop\n      jump\t// out\n        /* \"#utility.yul\":1025:1143   */\n    tag_71:\n        /* \"#utility.yul\":1112:1136   */\n      tag_123\n        /* \"#utility.yul\":1130:1135   */\n      dup2\n        /* \"#utility.yul\":1112:1136   */\n      tag_68\n      jump\t// in\n    tag_123:\n        /* \"#utility.yul\":1107:1110   */\n      dup3\n        /* \"#utility.yul\":1100:1137   */\n      mstore\n        /* \"#utility.yul\":1025:1143   */\n      pop\n      pop\n      jump\t// out\n        /* \"#utility.yul\":1149:1248   */\n    tag_72:\n        /* \"#utility.yul\":1201:1207   */\n      0x00\n        /* \"#utility.yul\":1235:1240   */\n      dup2\n        /* \"#utility.yul\":1229:1241   */\n      mload\n        /* \"#utility.yul\":1219:1241   */\n      swap1\n      pop\n        /* \"#utility.yul\":1149:1248   */\n      swap2\n      swap1\n      pop\n      jump\t// out\n        /* \"#utility.yul\":1254:1423   */\n    tag_73:\n        /* \"#utility.yul\":1338:1349   */\n      0x00\n        /* \"#utility.yul\":1372:1378   */\n      dup3\n        /* \"#utility.yul\":1367:1370   */\n      dup3\n        /* \"#utility.yul\":1360:1379   */\n      mstore\n        /* \"#utility.yul\":1412:1416   */\n      0x20\n        /* \"#utility.yul\":1407:1410   */\n      dup3\n        /* \"#utility.yul\":1403:1417   */\n      add\n        /* \"#utility.yul\":1388:1417   */\n      swap1\n      pop\n        /* \"#utility.yul\":1254:1423   */\n      swap3\n      swap2\n      pop\n      pop\n      jump\t// out\n        /* \"#utility.yul\":1429:1675   */\n    tag_74:\n        /* \"#utility.yul\":1510:1511   */\n      0x00\n        /* \"#utility.yul\":1520:1633   */\n    tag_127:\n        /* \"#utility.yul\":1534:1540   */\n      dup4\n        /* \"#utility.yul\":1531:1532   */\n      dup2\n        /* \"#utility.yul\":1528:1541   */\n      lt\n        /* \"#utility.yul\":1520:1633   */\n      iszero\n      tag_129\n      jumpi\n        /* \"#utility.yul\":1619:1620   */\n      dup1\n        /* \"#utility.yul\":1614:1617   */\n      dup3\n        /* \"#utility.yul\":1610:1621   */\n      add\n        /* \"#utility.yul\":1604:1622   */\n      mload\n        /* \"#utility.yul\":1600:1601   */\n      dup2\n        /* \"#utility.yul\":1595:1598   */\n      dup5\n        /* \"#utility.yul\":1591:1602   */\n      add\n        /* \"#utility.yul\":1584:1623   */\n      mstore\n        /* \"#utility.yul\":1556:1558   */\n      0x20\n        /* \"#utility.yul\":1553:1554   */\n      dup2\n        /* \"#utility.yul\":1549:1559   */\n      add\n        /* \"#utility.yul\":1544:1559   */\n      swap1\n      pop\n        /* \"#utility.yul\":1520:1633   */\n      jump(tag_127)\n    tag_129:\n        /* \"#utility.yul\":1667:1668   */\n      0x00\n        /* \"#utility.yul\":1658:1664   */\n      dup5\n        /* \"#utility.yul\":1653:1656   */\n      dup5\n        /* \"#utility.yul\":1649:1665   */\n      add\n        /* \"#utility.yul\":1642:1669   */\n      mstore\n        /* \"#utility.yul\":1491:1675   */\n      pop\n        /* \"#utility.yul\":1429:1675   */\n      pop\n      pop\n      pop\n      jump\t// out\n        /* \"#utility.yul\":1681:1783   */\n    tag_75:\n        /* \"#utility.yul\":1722:1728   */\n      0x00\n        /* \"#utility.yul\":1773:1775   */\n      0x1f\n        /* \"#utility.yul\":1769:1776   */\n      not\n        /* \"#utility.yul\":1764:1766   */\n      0x1f\n        /* \"#utility.yul\":1757:1762   */\n      dup4\n        /* \"#utility.yul\":1753:1767   */\n      add\n        /* \"#utility.yul\":1749:1777   */\n      and\n        /* \"#utility.yul\":1739:1777   */\n      swap1\n      pop\n        /* \"#utility.yul\":1681:1783   */\n      swap2\n      swap1\n      pop\n      jump\t// out\n        /* \"#utility.yul\":1789:2166   */\n    tag_76:\n        /* \"#utility.yul\":1877:1880   */\n      0x00\n        /* \"#utility.yul\":1905:1944   */\n      tag_132\n        /* \"#utility.yul\":1938:1943   */\n      dup3\n        /* \"#utility.yul\":1905:1944   */\n      tag_72\n      jump\t// in\n    tag_132:\n        /* \"#utility.yul\":1960:2031   */\n      tag_133\n        /* \"#utility.yul\":2024:2030   */\n      dup2\n        /* \"#utility.yul\":2019:2022   */\n      dup6\n        /* \"#utility.yul\":1960:2031   */\n      tag_73\n      jump\t// in\n    tag_133:\n        /* \"#utility.yul\":1953:2031   */\n      swap4\n      pop\n        /* \"#utility.yul\":2040:2105   */\n      tag_134\n        /* \"#utility.yul\":2098:2104   */\n      dup2\n        /* \"#utility.yul\":2093:2096   */\n      dup6\n        /* \"#utility.yul\":2086:2090   */\n      0x20\n        /* \"#utility.yul\":2079:2084   */\n      dup7\n        /* \"#utility.yul\":2075:2091   */\n      add\n        /* \"#utility.yul\":2040:2105   */\n      tag_74\n      jump\t// in\n    tag_134:\n        /* \"#utility.yul\":2130:2159   */\n      tag_135\n        /* \"#utility.yul\":2152:2158   */\n      dup2\n        /* \"#utility.yul\":2130:2159   */\n      tag_75\n      jump\t// in\n    tag_135:\n        /* \"#utility.yul\":2125:2128   */\n      dup5\n        /* \"#utility.yul\":2121:2160   */\n      add\n        /* \"#utility.yul\":2114:2160   */\n      swap2\n      pop\n        /* \"#utility.yul\":1881:2166   */\n      pop\n        /* \"#utility.yul\":1789:2166   */\n      swap3\n      swap2\n      pop\n      pop\n      jump\t// out\n        /* \"#utility.yul\":2172:2352   */\n    tag_61:\n        /* \"#utility.yul\":2220:2297   */\n      0x4e487b7100000000000000000000000000000000000000000000000000000000\n        /* \"#utility.yul\":2217:2218   */\n      0x00\n        /* \"#utility.yul\":2210:2298   */\n      mstore\n        /* \"#utility.yul\":2317:2321   */\n      0x21\n        /* \"#utility.yul\":2314:2315   */\n      0x04\n        /* \"#utility.yul\":2307:2322   */\n      mstore\n        /* \"#utility.yul\":2341:2345   */\n      0x24\n        /* \"#utility.yul\":2338:2339   */\n      0x00\n        /* \"#utility.yul\":2331:2346   */\n      revert\n        /* \"#utility.yul\":2358:2476   */\n    tag_77:\n        /* \"#utility.yul\":2444:2445   */\n      0x03\n        /* \"#utility.yul\":2437:2442   */\n      dup2\n        /* \"#utility.yul\":2434:2446   */\n      lt\n        /* \"#utility.yul\":2424:2470   */\n      tag_138\n      jumpi\n        /* \"#utility.yul\":2450:2468   */\n      tag_139\n      tag_61\n      jump\t// in\n    tag_139:\n        /* \"#utility.yul\":2424:2470   */\n    tag_138:\n        /* \"#utility.yul\":2358:2476   */\n      pop\n      jump\t// out\n        /* \"#utility.yul\":2482:2619   */\n    tag_78:\n        /* \"#utility.yul\":2532:2539   */\n      0x00\n        /* \"#utility.yul\":2561:2566   */\n      dup2\n        /* \"#utility.yul\":2550:2566   */\n      swap1\n      pop\n        /* \"#utility.yul\":2567:2613   */\n      tag_141\n        /* \"#utility.yul\":2607:2612   */\n      dup3\n        /* \"#utility.yul\":2567:2613   */\n      tag_77\n      jump\t// in\n    tag_141:\n        /* \"#utility.yul\":2482:2619   */\n      swap2\n      swap1\n      pop\n      jump\t// out\n        /* \"#utility.yul\":2625:2762   */\n    tag_79:\n        /* \"#utility.yul\":2686:2695   */\n      0x00\n        /* \"#utility.yul\":2719:2756   */\n      tag_143\n        /* \"#utility.yul\":2750:2755   */\n      dup3\n        /* \"#utility.yul\":2719:2756   */\n      tag_78\n      jump\t// in\n    tag_143:\n        /* \"#utility.yul\":2706:2756   */\n      swap1\n      pop\n        /* \"#utility.yul\":2625:2762   */\n      swap2\n      swap1\n      pop\n      jump\t// out\n        /* \"#utility.yul\":2768:2921   */\n    tag_80:\n        /* \"#utility.yul\":2866:2914   */\n      tag_145\n        /* \"#utility.yul\":2908:2913   */\n      dup2\n        /* \"#utility.yul\":2866:2914   */\n      tag_79\n      jump\t// in\n    tag_145:\n        /* \"#utility.yul\":2861:2864   */\n      dup3\n        /* \"#utility.yul\":2854:2915   */\n      mstore\n        /* \"#utility.yul\":2768:2921   */\n      pop\n      pop\n      jump\t// out\n        /* \"#utility.yul\":2927:3593   */\n    tag_13:\n        /* \"#utility.yul\":3135:3139   */\n      0x00\n        /* \"#utility.yul\":3173:3176   */\n      0x80\n        /* \"#utility.yul\":3162:3171   */\n      dup3\n        /* \"#utility.yul\":3158:3177   */\n      add\n        /* \"#utility.yul\":3150:3177   */\n      swap1\n      pop\n        /* \"#utility.yul\":3187:3258   */\n      tag_147\n        /* \"#utility.yul\":3255:3256   */\n      0x00\n        /* \"#utility.yul\":3244:3253   */\n      dup4\n        /* \"#utility.yul\":3240:3257   */\n      add\n        /* \"#utility.yul\":3231:3237   */\n      dup8\n        /* \"#utility.yul\":3187:3258   */\n      tag_71\n      jump\t// in\n    tag_147:\n        /* \"#utility.yul\":3305:3314   */\n      dup2\n        /* \"#utility.yul\":3299:3303   */\n      dup2\n        /* \"#utility.yul\":3295:3315   */\n      sub\n        /* \"#utility.yul\":3290:3292   */\n      0x20\n        /* \"#utility.yul\":3279:3288   */\n      dup4\n        /* \"#utility.yul\":3275:3293   */\n      add\n        /* \"#utility.yul\":3268:3316   */\n      mstore\n        /* \"#utility.yul\":3333:3411   */\n      tag_148\n        /* \"#utility.yul\":3406:3410   */\n      dup2\n        /* \"#utility.yul\":3397:3403   */\n      dup7\n        /* \"#utility.yul\":3333:3411   */\n      tag_76\n      jump\t// in\n    tag_148:\n        /* \"#utility.yul\":3325:3411   */\n      swap1\n      pop\n        /* \"#utility.yul\":3421:3504   */\n      tag_149\n        /* \"#utility.yul\":3500:3502   */\n      0x40\n        /* \"#utility.yul\":3489:3498   */\n      dup4\n        /* \"#utility.yul\":3485:3503   */\n      add\n        /* \"#utility.yul\":3476:3482   */\n      dup6\n        /* \"#utility.yul\":3421:3504   */\n      tag_80\n      jump\t// in\n    tag_149:\n        /* \"#utility.yul\":3514:3586   */\n      tag_150\n        /* \"#utility.yul\":3582:3584   */\n      0x60\n        /* \"#utility.yul\":3571:3580   */\n      dup4\n        /* \"#utility.yul\":3567:3585   */\n      add\n        /* \"#utility.yul\":3558:3564   */\n      dup5\n        /* \"#utility.yul\":3514:3586   */\n      tag_71\n      jump\t// in\n    tag_150:\n        /* \"#utility.yul\":2927:3593   */\n      swap6\n      swap5\n      pop\n      pop\n      pop\n      pop\n      pop\n      jump\t// out\n        /* \"#utility.yul\":3599:3912   */\n    tag_20:\n        /* \"#utility.yul\":3712:3716   */\n      0x00\n        /* \"#utility.yul\":3750:3752   */\n      0x20\n        /* \"#utility.yul\":3739:3748   */\n      dup3\n        /* \"#utility.yul\":3735:3753   */\n      add\n        /* \"#utility.yul\":3727:3753   */\n      swap1\n      pop\n        /* \"#utility.yul\":3799:3808   */\n      dup2\n        /* \"#utility.yul\":3793:3797   */\n      dup2\n        /* \"#utility.yul\":3789:3809   */\n      sub\n        /* \"#utility.yul\":3785:3786   */\n      0x00\n        /* \"#utility.yul\":3774:3783   */\n      dup4\n        /* \"#utility.yul\":3770:3787   */\n      add\n        /* \"#utility.yul\":3763:3810   */\n      mstore\n        /* \"#utility.yul\":3827:3905   */\n      tag_152\n        /* \"#utility.yul\":3900:3904   */\n      dup2\n        /* \"#utility.yul\":3891:3897   */\n      dup5\n        /* \"#utility.yul\":3827:3905   */\n      tag_76\n      jump\t// in\n    tag_152:\n        /* \"#utility.yul\":3819:3905   */\n      swap1\n      pop\n        /* \"#utility.yul\":3599:3912   */\n      swap3\n      swap2\n      pop\n      pop\n      jump\t// out\n        /* \"#utility.yul\":3918:4035   */\n    tag_81:\n        /* \"#utility.yul\":4027:4028   */\n      0x00\n        /* \"#utility.yul\":4024:4025   */\n      dup1\n        /* \"#utility.yul\":4017:4029   */\n      revert\n        /* \"#utility.yul\":4041:4158   */\n    tag_82:\n        /* \"#utility.yul\":4150:4151   */\n      0x00\n        /* \"#utility.yul\":4147:4148   */\n      dup1\n        /* \"#utility.yul\":4140:4152   */\n      revert\n        /* \"#utility.yul\":4164:4344   */\n    tag_83:\n        /* \"#utility.yul\":4212:4289   */\n      0x4e487b7100000000000000000000000000000000000000000000000000000000\n        /* \"#utility.yul\":4209:4210   */\n      0x00\n        /* \"#utility.yul\":4202:4290   */\n      mstore\n        /* \"#utility.yul\":4309:4313   */\n      0x41\n        /* \"#utility.yul\":4306:4307   */\n      0x04\n        /* \"#utility.yul\":4299:4314   */\n      mstore\n        /* \"#utility.yul\":4333:4337   */\n      0x24\n        /* \"#utility.yul\":4330:4331   */\n      0x00\n        /* \"#utility.yul\":4323:4338   */\n      revert\n        /* \"#utility.yul\":4350:4631   */\n    tag_84:\n        /* \"#utility.yul\":4433:4460   */\n      tag_157\n        /* \"#utility.yul\":4455:4459   */\n      dup3\n        /* \"#utility.yul\":4433:4460   */\n      tag_75\n      jump\t// in\n    tag_157:\n        /* \"#utility.yul\":4425:4431   */\n      dup2\n        /* \"#utility.yul\":4421:4461   */\n      add\n        /* \"#utility.yul\":4563:4569   */\n      dup2\n        /* \"#utility.yul\":4551:4561   */\n      dup2\n        /* \"#utility.yul\":4548:4570   */\n      lt\n        /* \"#utility.yul\":4527:4545   */\n      0xffffffffffffffff\n        /* \"#utility.yul\":4515:4525   */\n      dup3\n        /* \"#utility.yul\":4512:4546   */\n      gt\n        /* \"#utility.yul\":4509:4571   */\n      or\n        /* \"#utility.yul\":4506:4594   */\n      iszero\n      tag_158\n      jumpi\n        /* \"#utility.yul\":4574:4592   */\n      tag_159\n      tag_83\n      jump\t// in\n    tag_159:\n        /* \"#utility.yul\":4506:4594   */\n    tag_158:\n        /* \"#utility.yul\":4614:4624   */\n      dup1\n        /* \"#utility.yul\":4610:4612   */\n      0x40\n        /* \"#utility.yul\":4603:4625   */\n      mstore\n        /* \"#utility.yul\":4393:4631   */\n      pop\n        /* \"#utility.yul\":4350:4631   */\n      pop\n      pop\n      jump\t// out\n        /* \"#utility.yul\":4637:4766   */\n    tag_85:\n        /* \"#utility.yul\":4671:4677   */\n      0x00\n        /* \"#utility.yul\":4698:4718   */\n      tag_161\n      tag_65\n      jump\t// in\n    tag_161:\n        /* \"#utility.yul\":4688:4718   */\n      swap1\n      pop\n        /* \"#utility.yul\":4727:4760   */\n      tag_162\n        /* \"#utility.yul\":4755:4759   */\n      dup3\n        /* \"#utility.yul\":4747:4753   */\n      dup3\n        /* \"#utility.yul\":4727:4760   */\n      tag_84\n      jump\t// in\n    tag_162:\n        /* \"#utility.yul\":4637:4766   */\n      swap2\n      swap1\n      pop\n      jump\t// out\n        /* \"#utility.yul\":4772:5080   */\n    tag_86:\n        /* \"#utility.yul\":4834:4838   */\n      0x00\n        /* \"#utility.yul\":4924:4942   */\n      0xffffffffffffffff\n        /* \"#utility.yul\":4916:4922   */\n      dup3\n        /* \"#utility.yul\":4913:4943   */\n      gt\n        /* \"#utility.yul\":4910:4966   */\n      iszero\n      tag_164\n      jumpi\n        /* \"#utility.yul\":4946:4964   */\n      tag_165\n      tag_83\n      jump\t// in\n    tag_165:\n        /* \"#utility.yul\":4910:4966   */\n    tag_164:\n        /* \"#utility.yul\":4984:5013   */\n      tag_166\n        /* \"#utility.yul\":5006:5012   */\n      dup3\n        /* \"#utility.yul\":4984:5013   */\n      tag_75\n      jump\t// in\n    tag_166:\n        /* \"#utility.yul\":4976:5013   */\n      swap1\n      pop\n        /* \"#utility.yul\":5068:5072   */\n      0x20\n        /* \"#utility.yul\":5062:5066   */\n      dup2\n        /* \"#utility.yul\":5058:5073   */\n      add\n        /* \"#utility.yul\":5050:5073   */\n      swap1\n      pop\n        /* \"#utility.yul\":4772:5080   */\n      swap2\n      swap1\n      pop\n      jump\t// out\n        /* \"#utility.yul\":5086:5232   */\n    tag_87:\n        /* \"#utility.yul\":5183:5189   */\n      dup3\n        /* \"#utility.yul\":5178:5181   */\n      dup2\n        /* \"#utility.yul\":5173:5176   */\n      dup4\n        /* \"#utility.yul\":5160:5190   */\n      calldatacopy\n        /* \"#utility.yul\":5224:5225   */\n      0x00\n        /* \"#utility.yul\":5215:5221   */\n      dup4\n        /* \"#utility.yul\":5210:5213   */\n      dup4\n        /* \"#utility.yul\":5206:5222   */\n      add\n        /* \"#utility.yul\":5199:5226   */\n      mstore\n        /* \"#utility.yul\":5086:5232   */\n      pop\n      pop\n      pop\n      jump\t// out\n        /* \"#utility.yul\":5238:5663   */\n    tag_88:\n        /* \"#utility.yul\":5316:5321   */\n      0x00\n        /* \"#utility.yul\":5341:5407   */\n      tag_169\n        /* \"#utility.yul\":5357:5406   */\n      tag_170\n        /* \"#utility.yul\":5399:5405   */\n      dup5\n        /* \"#utility.yul\":5357:5406   */\n      tag_86\n      jump\t// in\n    tag_170:\n        /* \"#utility.yul\":5341:5407   */\n      tag_85\n      jump\t// in\n    tag_169:\n        /* \"#utility.yul\":5332:5407   */\n      swap1\n      pop\n        /* \"#utility.yul\":5430:5436   */\n      dup3\n        /* \"#utility.yul\":5423:5428   */\n      dup2\n        /* \"#utility.yul\":5416:5437   */\n      mstore\n        /* \"#utility.yul\":5468:5472   */\n      0x20\n        /* \"#utility.yul\":5461:5466   */\n      dup2\n        /* \"#utility.yul\":5457:5473   */\n      add\n        /* \"#utility.yul\":5506:5509   */\n      dup5\n        /* \"#utility.yul\":5497:5503   */\n      dup5\n        /* \"#utility.yul\":5492:5495   */\n      dup5\n        /* \"#utility.yul\":5488:5504   */\n      add\n        /* \"#utility.yul\":5485:5510   */\n      gt\n        /* \"#utility.yul\":5482:5594   */\n      iszero\n      tag_171\n      jumpi\n        /* \"#utility.yul\":5513:5592   */\n      tag_172\n      tag_82\n      jump\t// in\n    tag_172:\n        /* \"#utility.yul\":5482:5594   */\n    tag_171:\n        /* \"#utility.yul\":5603:5657   */\n      tag_173\n        /* \"#utility.yul\":5650:5656   */\n      dup5\n        /* \"#utility.yul\":5645:5648   */\n      dup3\n        /* \"#utility.yul\":5640:5643   */\n      dup6\n        /* \"#utility.yul\":5603:5657   */\n      tag_87\n      jump\t// in\n    tag_173:\n        /* \"#utility.yul\":5322:5663   */\n      pop\n        /* \"#utility.yul\":5238:5663   */\n      swap4\n      swap3\n      pop\n      pop\n      pop\n      jump\t// out\n        /* \"#utility.yul\":5683:6023   */\n    tag_89:\n        /* \"#utility.yul\":5739:5744   */\n      0x00\n        /* \"#utility.yul\":5788:5791   */\n      dup3\n        /* \"#utility.yul\":5781:5785   */\n      0x1f\n        /* \"#utility.yul\":5773:5779   */\n      dup4\n        /* \"#utility.yul\":5769:5786   */\n      add\n        /* \"#utility.yul\":5765:5792   */\n      slt\n        /* \"#utility.yul\":5755:5877   */\n      tag_175\n      jumpi\n        /* \"#utility.yul\":5796:5875   */\n      tag_176\n      tag_81\n      jump\t// in\n    tag_176:\n        /* \"#utility.yul\":5755:5877   */\n    tag_175:\n        /* \"#utility.yul\":5913:5919   */\n      dup2\n        /* \"#utility.yul\":5900:5920   */\n      calldataload\n        /* \"#utility.yul\":5938:6017   */\n      tag_177\n        /* \"#utility.yul\":6013:6016   */\n      dup5\n        /* \"#utility.yul\":6005:6011   */\n      dup3\n        /* \"#utility.yul\":5998:6002   */\n      0x20\n        /* \"#utility.yul\":5990:5996   */\n      dup7\n        /* \"#utility.yul\":5986:6003   */\n      add\n        /* \"#utility.yul\":5938:6017   */\n      tag_88\n      jump\t// in\n    tag_177:\n        /* \"#utility.yul\":5929:6017   */\n      swap2\n      pop\n        /* \"#utility.yul\":5745:6023   */\n      pop\n        /* \"#utility.yul\":5683:6023   */\n      swap3\n      swap2\n      pop\n      pop\n      jump\t// out\n        /* \"#utility.yul\":6029:6141   */\n    tag_90:\n        /* \"#utility.yul\":6115:6116   */\n      0x03\n        /* \"#utility.yul\":6108:6113   */\n      dup2\n        /* \"#utility.yul\":6105:6117   */\n      lt\n        /* \"#utility.yul\":6095:6135   */\n      tag_179\n      jumpi\n        /* \"#utility.yul\":6131:6132   */\n      0x00\n        /* \"#utility.yul\":6128:6129   */\n      dup1\n        /* \"#utility.yul\":6121:6133   */\n      revert\n        /* \"#utility.yul\":6095:6135   */\n    tag_179:\n        /* \"#utility.yul\":6029:6141   */\n      pop\n      jump\t// out\n        /* \"#utility.yul\":6147:6312   */\n    tag_91:\n        /* \"#utility.yul\":6206:6211   */\n      0x00\n        /* \"#utility.yul\":6244:6250   */\n      dup2\n        /* \"#utility.yul\":6231:6251   */\n      calldataload\n        /* \"#utility.yul\":6222:6251   */\n      swap1\n      pop\n        /* \"#utility.yul\":6260:6306   */\n      tag_181\n        /* \"#utility.yul\":6300:6305   */\n      dup2\n        /* \"#utility.yul\":6260:6306   */\n      tag_90\n      jump\t// in\n    tag_181:\n        /* \"#utility.yul\":6147:6312   */\n      swap3\n      swap2\n      pop\n      pop\n      jump\t// out\n        /* \"#utility.yul\":6318:7289   */\n    tag_25:\n        /* \"#utility.yul\":6427:6433   */\n      0x00\n        /* \"#utility.yul\":6435:6441   */\n      dup1\n        /* \"#utility.yul\":6443:6449   */\n      0x00\n        /* \"#utility.yul\":6451:6457   */\n      dup1\n        /* \"#utility.yul\":6500:6503   */\n      0x80\n        /* \"#utility.yul\":6488:6497   */\n      dup6\n        /* \"#utility.yul\":6479:6486   */\n      dup8\n        /* \"#utility.yul\":6475:6498   */\n      sub\n        /* \"#utility.yul\":6471:6504   */\n      slt\n        /* \"#utility.yul\":6468:6588   */\n      iszero\n      tag_183\n      jumpi\n        /* \"#utility.yul\":6507:6586   */\n      tag_184\n      tag_66\n      jump\t// in\n    tag_184:\n        /* \"#utility.yul\":6468:6588   */\n    tag_183:\n        /* \"#utility.yul\":6627:6628   */\n      0x00\n        /* \"#utility.yul\":6652:6705   */\n      tag_185\n        /* \"#utility.yul\":6697:6704   */\n      dup8\n        /* \"#utility.yul\":6688:6694   */\n      dup3\n        /* \"#utility.yul\":6677:6686   */\n      dup9\n        /* \"#utility.yul\":6673:6695   */\n      add\n        /* \"#utility.yul\":6652:6705   */\n      tag_70\n      jump\t// in\n    tag_185:\n        /* \"#utility.yul\":6642:6705   */\n      swap5\n      pop\n        /* \"#utility.yul\":6598:6715   */\n      pop\n        /* \"#utility.yul\":6782:6784   */\n      0x20\n        /* \"#utility.yul\":6771:6780   */\n      dup6\n        /* \"#utility.yul\":6767:6785   */\n      add\n        /* \"#utility.yul\":6754:6786   */\n      calldataload\n        /* \"#utility.yul\":6813:6831   */\n      0xffffffffffffffff\n        /* \"#utility.yul\":6805:6811   */\n      dup2\n        /* \"#utility.yul\":6802:6832   */\n      gt\n        /* \"#utility.yul\":6799:6916   */\n      iszero\n      tag_186\n      jumpi\n        /* \"#utility.yul\":6835:6914   */\n      tag_187\n      tag_67\n      jump\t// in\n    tag_187:\n        /* \"#utility.yul\":6799:6916   */\n    tag_186:\n        /* \"#utility.yul\":6940:7003   */\n      tag_188\n        /* \"#utility.yul\":6995:7002   */\n      dup8\n        /* \"#utility.yul\":6986:6992   */\n      dup3\n        /* \"#utility.yul\":6975:6984   */\n      dup9\n        /* \"#utility.yul\":6971:6993   */\n      add\n        /* \"#utility.yul\":6940:7003   */\n      tag_89\n      jump\t// in\n    tag_188:\n        /* \"#utility.yul\":6930:7003   */\n      swap4\n      pop\n        /* \"#utility.yul\":6725:7013   */\n      pop\n        /* \"#utility.yul\":7052:7054   */\n      0x40\n        /* \"#utility.yul\":7078:7131   */\n      tag_189\n        /* \"#utility.yul\":7123:7130   */\n      dup8\n        /* \"#utility.yul\":7114:7120   */\n      dup3\n        /* \"#utility.yul\":7103:7112   */\n      dup9\n        /* \"#utility.yul\":7099:7121   */\n      add\n        /* \"#utility.yul\":7078:7131   */\n      tag_70\n      jump\t// in\n    tag_189:\n        /* \"#utility.yul\":7068:7131   */\n      swap3\n      pop\n        /* \"#utility.yul\":7023:7141   */\n      pop\n        /* \"#utility.yul\":7180:7182   */\n      0x60\n        /* \"#utility.yul\":7206:7272   */\n      tag_190\n        /* \"#utility.yul\":7264:7271   */\n      dup8\n        /* \"#utility.yul\":7255:7261   */\n      dup3\n        /* \"#utility.yul\":7244:7253   */\n      dup9\n        /* \"#utility.yul\":7240:7262   */\n      add\n        /* \"#utility.yul\":7206:7272   */\n      tag_91\n      jump\t// in\n    tag_190:\n        /* \"#utility.yul\":7196:7272   */\n      swap2\n      pop\n        /* \"#utility.yul\":7151:7282   */\n      pop\n        /* \"#utility.yul\":6318:7289   */\n      swap3\n      swap6\n      swap2\n      swap5\n      pop\n      swap3\n      pop\n      jump\t// out\n        /* \"#utility.yul\":7295:7475   */\n    tag_92:\n        /* \"#utility.yul\":7343:7420   */\n      0x4e487b7100000000000000000000000000000000000000000000000000000000\n        /* \"#utility.yul\":7340:7341   */\n      0x00\n        /* \"#utility.yul\":7333:7421   */\n      mstore\n        /* \"#utility.yul\":7440:7444   */\n      0x22\n        /* \"#utility.yul\":7437:7438   */\n      0x04\n        /* \"#utility.yul\":7430:7445   */\n      mstore\n        /* \"#utility.yul\":7464:7468   */\n      0x24\n        /* \"#utility.yul\":7461:7462   */\n      0x00\n        /* \"#utility.yul\":7454:7469   */\n      revert\n        /* \"#utility.yul\":7481:7801   */\n    tag_28:\n        /* \"#utility.yul\":7525:7531   */\n      0x00\n        /* \"#utility.yul\":7562:7563   */\n      0x02\n        /* \"#utility.yul\":7556:7560   */\n      dup3\n        /* \"#utility.yul\":7552:7564   */\n      div\n        /* \"#utility.yul\":7542:7564   */\n      swap1\n      pop\n        /* \"#utility.yul\":7609:7610   */\n      0x01\n        /* \"#utility.yul\":7603:7607   */\n      dup3\n        /* \"#utility.yul\":7599:7611   */\n      and\n        /* \"#utility.yul\":7630:7648   */\n      dup1\n        /* \"#utility.yul\":7620:7701   */\n      tag_193\n      jumpi\n        /* \"#utility.yul\":7686:7690   */\n      0x7f\n        /* \"#utility.yul\":7678:7684   */\n      dup3\n        /* \"#utility.yul\":7674:7691   */\n      and\n        /* \"#utility.yul\":7664:7691   */\n      swap2\n      pop\n        /* \"#utility.yul\":7620:7701   */\n    tag_193:\n        /* \"#utility.yul\":7748:7750   */\n      0x20\n        /* \"#utility.yul\":7740:7746   */\n      dup3\n        /* \"#utility.yul\":7737:7751   */\n      lt\n        /* \"#utility.yul\":7717:7735   */\n      dup2\n        /* \"#utility.yul\":7714:7752   */\n      sub\n        /* \"#utility.yul\":7711:7795   */\n      tag_194\n      jumpi\n        /* \"#utility.yul\":7767:7785   */\n      tag_195\n      tag_92\n      jump\t// in\n    tag_195:\n        /* \"#utility.yul\":7711:7795   */\n    tag_194:\n        /* \"#utility.yul\":7532:7801   */\n      pop\n        /* \"#utility.yul\":7481:7801   */\n      swap2\n      swap1\n      pop\n      jump\t// out\n        /* \"#utility.yul\":7807:7987   */\n    tag_36:\n        /* \"#utility.yul\":7855:7932   */\n      0x4e487b7100000000000000000000000000000000000000000000000000000000\n        /* \"#utility.yul\":7852:7853   */\n      0x00\n        /* \"#utility.yul\":7845:7933   */\n      mstore\n        /* \"#utility.yul\":7952:7956   */\n      0x32\n        /* \"#utility.yul\":7949:7950   */\n      0x04\n        /* \"#utility.yul\":7942:7957   */\n      mstore\n        /* \"#utility.yul\":7976:7980   */\n      0x24\n        /* \"#utility.yul\":7973:7974   */\n      0x00\n        /* \"#utility.yul\":7966:7981   */\n      revert\n        /* \"#utility.yul\":7993:8134   */\n    tag_93:\n        /* \"#utility.yul\":8042:8046   */\n      0x00\n        /* \"#utility.yul\":8065:8068   */\n      dup2\n        /* \"#utility.yul\":8057:8068   */\n      swap1\n      pop\n        /* \"#utility.yul\":8088:8091   */\n      dup2\n        /* \"#utility.yul\":8085:8086   */\n      0x00\n        /* \"#utility.yul\":8078:8092   */\n      mstore\n        /* \"#utility.yul\":8122:8126   */\n      0x20\n        /* \"#utility.yul\":8119:8120   */\n      0x00\n        /* \"#utility.yul\":8109:8127   */\n      keccak256\n        /* \"#utility.yul\":8101:8127   */\n      swap1\n      pop\n        /* \"#utility.yul\":7993:8134   */\n      swap2\n      swap1\n      pop\n      jump\t// out\n        /* \"#utility.yul\":8140:8233   */\n    tag_94:\n        /* \"#utility.yul\":8177:8183   */\n      0x00\n        /* \"#utility.yul\":8224:8226   */\n      0x20\n        /* \"#utility.yul\":8219:8221   */\n      0x1f\n        /* \"#utility.yul\":8212:8217   */\n      dup4\n        /* \"#utility.yul\":8208:8222   */\n      add\n        /* \"#utility.yul\":8204:8227   */\n      div\n        /* \"#utility.yul\":8194:8227   */\n      swap1\n      pop\n        /* \"#utility.yul\":8140:8233   */\n      swap2\n      swap1\n      pop\n      jump\t// out\n        /* \"#utility.yul\":8239:8346   */\n    tag_95:\n        /* \"#utility.yul\":8283:8291   */\n      0x00\n        /* \"#utility.yul\":8333:8338   */\n      dup3\n        /* \"#utility.yul\":8327:8331   */\n      dup3\n        /* \"#utility.yul\":8323:8339   */\n      shl\n        /* \"#utility.yul\":8302:8339   */\n      swap1\n      pop\n        /* \"#utility.yul\":8239:8346   */\n      swap3\n      swap2\n      pop\n      pop\n      jump\t// out\n        /* \"#utility.yul\":8352:8745   */\n    tag_96:\n        /* \"#utility.yul\":8421:8427   */\n      0x00\n        /* \"#utility.yul\":8471:8472   */\n      0x08\n        /* \"#utility.yul\":8459:8469   */\n      dup4\n        /* \"#utility.yul\":8455:8473   */\n      mul\n        /* \"#utility.yul\":8494:8591   */\n      tag_201\n        /* \"#utility.yul\":8524:8590   */\n      0xffffffffffffffffffffffffffffffffffffffffffffffffffffffffffffffff\n        /* \"#utility.yul\":8513:8522   */\n      dup3\n        /* \"#utility.yul\":8494:8591   */\n      tag_95\n      jump\t// in\n    tag_201:\n        /* \"#utility.yul\":8612:8651   */\n      tag_202\n        /* \"#utility.yul\":8642:8650   */\n      dup7\n        /* \"#utility.yul\":8631:8640   */\n      dup4\n        /* \"#utility.yul\":8612:8651   */\n      tag_95\n      jump\t// in\n    tag_202:\n        /* \"#utility.yul\":8600:8651   */\n      swap6\n      pop\n        /* \"#utility.yul\":8684:8688   */\n      dup1\n        /* \"#utility.yul\":8680:8689   */\n      not\n        /* \"#utility.yul\":8673:8678   */\n      dup5\n        /* \"#utility.yul\":8669:8690   */\n      and\n        /* \"#utility.yul\":8660:8690   */\n      swap4\n      pop\n        /* \"#utility.yul\":8733:8737   */\n      dup1\n        /* \"#utility.yul\":8723:8731   */\n      dup7\n        /* \"#utility.yul\":8719:8738   */\n      and\n        /* \"#utility.yul\":8712:8717   */\n      dup5\n        /* \"#utility.yul\":8709:8739   */\n      or\n        /* \"#utility.yul\":8699:8739   */\n      swap3\n      pop\n        /* \"#utility.yul\":8428:8745   */\n      pop\n      pop\n        /* \"#utility.yul\":8352:8745   */\n      swap4\n      swap3\n      pop\n      pop\n      pop\n      jump\t// out\n        /* \"#utility.yul\":8751:8811   */\n    tag_97:\n        /* \"#utility.yul\":8779:8782   */\n      0x00\n        /* \"#utility.yul\":8800:8805   */\n      dup2\n        /* \"#utility.yul\":8793:8805   */\n      swap1\n      pop\n        /* \"#utility.yul\":8751:8811   */\n      swap2\n      swap1\n      pop\n      jump\t// out\n        /* \"#utility.yul\":8817:8959   */\n    tag_98:\n        /* \"#utility.yul\":8867:8876   */\n      0x00\n        /* \"#utility.yul\":8900:8953   */\n      tag_205\n        /* \"#utility.yul\":8918:8952   */\n      tag_206\n        /* \"#utility.yul\":8927:8951   */\n      tag_207\n        /* \"#utility.yul\":8945:8950   */\n      dup5\n        /* \"#utility.yul\":8927:8951   */\n      tag_68\n      jump\t// in\n    tag_207:\n        /* \"#utility.yul\":8918:8952   */\n      tag_97\n      jump\t// in\n    tag_206:\n        /* \"#utility.yul\":8900:8953   */\n      tag_68\n      jump\t// in\n    tag_205:\n        /* \"#utility.yul\":8887:8953   */\n      swap1\n      pop\n        /* \"#utility.yul\":8817:8959   */\n      swap2\n      swap1\n      pop\n      jump\t// out\n        /* \"#utility.yul\":8965:9040   */\n    tag_99:\n        /* \"#utility.yul\":9008:9011   */\n      0x00\n        /* \"#utility.yul\":9029:9034   */\n      dup2\n        /* \"#utility.yul\":9022:9034   */\n      swap1\n      pop\n        /* \"#utility.yul\":8965:9040   */\n      swap2\n      swap1\n      pop\n      jump\t// out\n        /* \"#utility.yul\":9046:9315   */\n    tag_100:\n        /* \"#utility.yul\":9156:9195   */\n      tag_210\n        /* \"#utility.yul\":9187:9194   */\n      dup4\n        /* \"#utility.yul\":9156:9195   */\n      tag_98\n      jump\t// in\n    tag_210:\n        /* \"#utility.yul\":9217:9308   */\n      tag_211\n        /* \"#utility.yul\":9266:9307   */\n      tag_212\n        /* \"#utility.yul\":9290:9306   */\n      dup3\n        /* \"#utility.yul\":9266:9307   */\n      tag_99\n      jump\t// in\n    tag_212:\n        /* \"#utility.yul\":9258:9264   */\n      dup5\n        /* \"#utility.yul\":9251:9255   */\n      dup5\n        /* \"#utility.yul\":9245:9256   */\n      sload\n        /* \"#utility.yul\":9217:9308   */\n      tag_96\n      jump\t// in\n    tag_211:\n        /* \"#utility.yul\":9211:9215   */\n      dup3\n        /* \"#utility.yul\":9204:9309   */\n      sstore\n        /* \"#utility.yul\":9122:9315   */\n      pop\n        /* \"#utility.yul\":9046:9315   */\n      pop\n      pop\n      pop\n      jump\t// out\n        /* \"#utility.yul\":9321:9394   */\n    tag_101:\n        /* \"#utility.yul\":9366:9369   */\n      0x00\n        /* \"#utility.yul\":9321:9394   */\n      swap1\n      jump\t// out\n        /* \"#utility.yul\":9400:9589   */\n    tag_102:\n        /* \"#utility.yul\":9477:9509   */\n      tag_215\n      tag_101\n      jump\t// in\n    tag_215:\n        /* \"#utility.yul\":9518:9583   */\n      tag_216\n        /* \"#utility.yul\":9576:9582   */\n      dup2\n        /* \"#utility.yul\":9568:9574   */\n      dup5\n        /* \"#utility.yul\":9562:9566   */\n      dup5\n        /* \"#utility.yul\":9518:9583   */\n      tag_100\n      jump\t// in\n    tag_216:\n        /* \"#utility.yul\":9453:9589   */\n      pop\n        /* \"#utility.yul\":9400:9589   */\n      pop\n      pop\n      jump\t// out\n        /* \"#utility.yul\":9595:9781   */\n    tag_103:\n        /* \"#utility.yul\":9655:9775   */\n    tag_218:\n        /* \"#utility.yul\":9672:9675   */\n      dup2\n        /* \"#utility.yul\":9665:9670   */\n      dup2\n        /* \"#utility.yul\":9662:9676   */\n      lt\n        /* \"#utility.yul\":9655:9775   */\n      iszero\n      tag_220\n      jumpi\n        /* \"#utility.yul\":9726:9765   */\n      tag_221\n        /* \"#utility.yul\":9763:9764   */\n      0x00\n        /* \"#utility.yul\":9756:9761   */\n      dup3\n        /* \"#utility.yul\":9726:9765   */\n      tag_102\n      jump\t// in\n    tag_221:\n        /* \"#utility.yul\":9699:9700   */\n      0x01\n        /* \"#utility.yul\":9692:9697   */\n      dup2\n        /* \"#utility.yul\":9688:9701   */\n      add\n        /* \"#utility.yul\":9679:9701   */\n      swap1\n      pop\n        /* \"#utility.yul\":9655:9775   */\n      jump(tag_218)\n    tag_220:\n        /* \"#utility.yul\":9595:9781   */\n      pop\n      pop\n      jump\t// out\n        /* \"#utility.yul\":9787:10330   */\n    tag_104:\n        /* \"#utility.yul\":9888:9890   */\n      0x1f\n        /* \"#utility.yul\":9883:9886   */\n      dup3\n        /* \"#utility.yul\":9880:9891   */\n      gt\n        /* \"#utility.yul\":9877:10323   */\n      iszero\n      tag_223\n      jumpi\n        /* \"#utility.yul\":9922:9960   */\n      tag_224\n        /* \"#utility.yul\":9954:9959   */\n      dup2\n        /* \"#utility.yul\":9922:9960   */\n      tag_93\n      jump\t// in\n    tag_224:\n        /* \"#utility.yul\":10006:10035   */\n      tag_225\n        /* \"#utility.yul\":10024:10034   */\n      dup5\n        /* \"#utility.yul\":10006:10035   */\n      tag_94\n      jump\t// in\n    tag_225:\n        /* \"#utility.yul\":9996:10004   */\n      dup2\n        /* \"#utility.yul\":9992:10036   */\n      add\n        /* \"#utility.yul\":10189:10191   */\n      0x20\n        /* \"#utility.yul\":10177:10187   */\n      dup6\n        /* \"#utility.yul\":10174:10192   */\n      lt\n        /* \"#utility.yul\":10171:10220   */\n      iszero\n      tag_226\n      jumpi\n        /* \"#utility.yul\":10210:10218   */\n      dup2\n        /* \"#utility.yul\":10195:10218   */\n      swap1\n      pop\n        /* \"#utility.yul\":10171:10220   */\n    tag_226:\n        /* \"#utility.yul\":10233:10313   */\n      tag_227\n        /* \"#utility.yul\":10289:10311   */\n      tag_228\n        /* \"#utility.yul\":10307:10310   */\n      dup6\n        /* \"#utility.yul\":10289:10311   */\n      tag_94\n      jump\t// in\n    tag_228:\n        /* \"#utility.yul\":10279:10287   */\n      dup4\n        /* \"#utility.yul\":10275:10312   */\n      add\n        /* \"#utility.yul\":10262:10273   */\n      dup3\n        /* \"#utility.yul\":10233:10313   */\n      tag_103\n      jump\t// in\n    tag_227:\n        /* \"#utility.yul\":9892:10323   */\n      pop\n      pop\n        /* \"#utility.yul\":9877:10323   */\n    tag_223:\n        /* \"#utility.yul\":9787:10330   */\n      pop\n      pop\n      pop\n      jump\t// out\n        /* \"#utility.yul\":10336:10453   */\n    tag_105:\n        /* \"#utility.yul\":10390:10398   */\n      0x00\n        /* \"#utility.yul\":10440:10445   */\n      dup3\n        /* \"#utility.yul\":10434:10438   */\n      dup3\n        /* \"#utility.yul\":10430:10446   */\n      shr\n        /* \"#utility.yul\":10409:10446   */\n      swap1\n      pop\n        /* \"#utility.yul\":10336:10453   */\n      swap3\n      swap2\n      pop\n      pop\n      jump\t// out\n        /* \"#utility.yul\":10459:10628   */\n    tag_106:\n        /* \"#utility.yul\":10503:10509   */\n      0x00\n        /* \"#utility.yul\":10536:10587   */\n      tag_231\n        /* \"#utility.yul\":10584:10585   */\n      0x00\n        /* \"#utility.yul\":10580:10586   */\n      not\n        /* \"#utility.yul\":10572:10577   */\n      dup5\n        /* \"#utility.yul\":10569:10570   */\n      0x08\n        /* \"#utility.yul\":10565:10578   */\n      mul\n        /* \"#utility.yul\":10536:10587   */\n      tag_105\n      jump\t// in\n    tag_231:\n        /* \"#utility.yul\":10532:10588   */\n      not\n        /* \"#utility.yul\":10617:10621   */\n      dup1\n        /* \"#utility.yul\":10611:10615   */\n      dup4\n        /* \"#utility.yul\":10607:10622   */\n      and\n        /* \"#utility.yul\":10597:10622   */\n      swap2\n      pop\n        /* \"#utility.yul\":10510:10628   */\n      pop\n        /* \"#utility.yul\":10459:10628   */\n      swap3\n      swap2\n      pop\n      pop\n      jump\t// out\n        /* \"#utility.yul\":10633:10928   */\n    tag_107:\n        /* \"#utility.yul\":10709:10713   */\n      0x00\n        /* \"#utility.yul\":10855:10884   */\n      tag_233\n        /* \"#utility.yul\":10880:10883   */\n      dup4\n        /* \"#utility.yul\":10874:10878   */\n      dup4\n        /* \"#utility.yul\":10855:10884   */\n      tag_106\n      jump\t// in\n    tag_233:\n        /* \"#utility.yul\":10847:10884   */\n      swap2\n      pop\n        /* \"#utility.yul\":10917:10920   */\n      dup3\n        /* \"#utility.yul\":10914:10915   */\n      0x02\n        /* \"#utility.yul\":10910:10921   */\n      mul\n        /* \"#utility.yul\":10904:10908   */\n      dup3\n        /* \"#utility.yul\":10901:10922   */\n      or\n        /* \"#utility.yul\":10893:10922   */\n      swap1\n      pop\n        /* \"#utility.yul\":10633:10928   */\n      swap3\n      swap2\n      pop\n      pop\n      jump\t// out\n        /* \"#utility.yul\":10933:12328   */\n    tag_39:\n        /* \"#utility.yul\":11050:11087   */\n      tag_235\n        /* \"#utility.yul\":11083:11086   */\n      dup3\n        /* \"#utility.yul\":11050:11087   */\n      tag_72\n      jump\t// in\n    tag_235:\n        /* \"#utility.yul\":11152:11170   */\n      0xffffffffffffffff\n        /* \"#utility.yul\":11144:11150   */\n      dup2\n        /* \"#utility.yul\":11141:11171   */\n      gt\n        /* \"#utility.yul\":11138:11194   */\n      iszero\n      tag_236\n      jumpi\n        /* \"#utility.yul\":11174:11192   */\n      tag_237\n      tag_83\n      jump\t// in\n    tag_237:\n        /* \"#utility.yul\":11138:11194   */\n    tag_236:\n        /* \"#utility.yul\":11218:11256   */\n      tag_238\n        /* \"#utility.yul\":11250:11254   */\n      dup3\n        /* \"#utility.yul\":11244:11255   */\n      sload\n        /* \"#utility.yul\":11218:11256   */\n      tag_28\n      jump\t// in\n    tag_238:\n        /* \"#utility.yul\":11303:11370   */\n      tag_239\n        /* \"#utility.yul\":11363:11369   */\n      dup3\n        /* \"#utility.yul\":11355:11361   */\n      dup3\n        /* \"#utility.yul\":11349:11353   */\n      dup6\n        /* \"#utility.yul\":11303:11370   */\n      tag_104\n      jump\t// in\n    tag_239:\n        /* \"#utility.yul\":11397:11398   */\n      0x00\n        /* \"#utility.yul\":11421:11425   */\n      0x20\n        /* \"#utility.yul\":11408:11425   */\n      swap1\n      pop\n        /* \"#utility.yul\":11453:11455   */\n      0x1f\n        /* \"#utility.yul\":11445:11451   */\n      dup4\n        /* \"#utility.yul\":11442:11456   */\n      gt\n        /* \"#utility.yul\":11470:11471   */\n      0x01\n        /* \"#utility.yul\":11465:12083   */\n      dup2\n      eq\n      tag_241\n      jumpi\n        /* \"#utility.yul\":12127:12128   */\n      0x00\n        /* \"#utility.yul\":12144:12150   */\n      dup5\n        /* \"#utility.yul\":12141:12218   */\n      iszero\n      tag_242\n      jumpi\n        /* \"#utility.yul\":12193:12202   */\n      dup3\n        /* \"#utility.yul\":12188:12191   */\n      dup8\n        /* \"#utility.yul\":12184:12203   */\n      add\n        /* \"#utility.yul\":12178:12204   */\n      mload\n        /* \"#utility.yul\":12169:12204   */\n      swap1\n      pop\n        /* \"#utility.yul\":12141:12218   */\n    tag_242:\n        /* \"#utility.yul\":12244:12311   */\n      tag_243\n        /* \"#utility.yul\":12304:12310   */\n      dup6\n        /* \"#utility.yul\":12297:12302   */\n      dup3\n        /* \"#utility.yul\":12244:12311   */\n      tag_107\n      jump\t// in\n    tag_243:\n        /* \"#utility.yul\":12238:12242   */\n      dup7\n        /* \"#utility.yul\":12231:12312   */\n      sstore\n        /* \"#utility.yul\":12100:12322   */\n      pop\n        /* \"#utility.yul\":11435:12322   */\n      jump(tag_240)\n        /* \"#utility.yul\":11465:12083   */\n    tag_241:\n        /* \"#utility.yul\":11517:11521   */\n      0x1f\n        /* \"#utility.yul\":11513:11522   */\n      not\n        /* \"#utility.yul\":11505:11511   */\n      dup5\n        /* \"#utility.yul\":11501:11523   */\n      and\n        /* \"#utility.yul\":11551:11588   */\n      tag_244\n        /* \"#utility.yul\":11583:11587   */\n      dup7\n        /* \"#utility.yul\":11551:11588   */\n      tag_93\n      jump\t// in\n    tag_244:\n        /* \"#utility.yul\":11610:11611   */\n      0x00\n        /* \"#utility.yul\":11624:11832   */\n    tag_245:\n        /* \"#utility.yul\":11638:11645   */\n      dup3\n        /* \"#utility.yul\":11635:11636   */\n      dup2\n        /* \"#utility.yul\":11632:11646   */\n      lt\n        /* \"#utility.yul\":11624:11832   */\n      iszero\n      tag_247\n      jumpi\n        /* \"#utility.yul\":11717:11726   */\n      dup5\n        /* \"#utility.yul\":11712:11715   */\n      dup10\n        /* \"#utility.yul\":11708:11727   */\n      add\n        /* \"#utility.yul\":11702:11728   */\n      mload\n        /* \"#utility.yul\":11694:11700   */\n      dup3\n        /* \"#utility.yul\":11687:11729   */\n      sstore\n        /* \"#utility.yul\":11768:11769   */\n      0x01\n        /* \"#utility.yul\":11760:11766   */\n      dup3\n        /* \"#utility.yul\":11756:11770   */\n      add\n        /* \"#utility.yul\":11746:11770   */\n      swap2\n      pop\n        /* \"#utility.yul\":11815:11817   */\n      0x20\n        /* \"#utility.yul\":11804:11813   */\n      dup6\n        /* \"#utility.yul\":11800:11818   */\n      add\n        /* \"#utility.yul\":11787:11818   */\n      swap5\n      pop\n        /* \"#utility.yul\":11661:11665   */\n      0x20\n        /* \"#utility.yul\":11658:11659   */\n      dup2\n        /* \"#utility.yul\":11654:11666   */\n      add\n        /* \"#utility.yul\":11649:11666   */\n      swap1\n      pop\n        /* \"#utility.yul\":11624:11832   */\n      jump(tag_245)\n    tag_247:\n        /* \"#utility.yul\":11860:11866   */\n      dup7\n        /* \"#utility.yul\":11851:11858   */\n      dup4\n        /* \"#utility.yul\":11848:11867   */\n      lt\n        /* \"#utility.yul\":11845:12024   */\n      iszero\n      tag_248\n      jumpi\n        /* \"#utility.yul\":11918:11927   */\n      dup5\n        /* \"#utility.yul\":11913:11916   */\n      dup10\n        /* \"#utility.yul\":11909:11928   */\n      add\n        /* \"#utility.yul\":11903:11929   */\n      mload\n        /* \"#utility.yul\":11961:12009   */\n      tag_249\n        /* \"#utility.yul\":12003:12007   */\n      0x1f\n        /* \"#utility.yul\":11995:12001   */\n      dup10\n        /* \"#utility.yul\":11991:12008   */\n      and\n        /* \"#utility.yul\":11980:11989   */\n      dup3\n        /* \"#utility.yul\":11961:12009   */\n      tag_106\n      jump\t// in\n    tag_249:\n        /* \"#utility.yul\":11953:11959   */\n      dup4\n        /* \"#utility.yul\":11946:12010   */\n      sstore\n        /* \"#utility.yul\":11868:12024   */\n      pop\n        /* \"#utility.yul\":11845:12024   */\n    tag_248:\n        /* \"#utility.yul\":12070:12071   */\n      0x01\n        /* \"#utility.yul\":12066:12067   */\n      0x02\n        /* \"#utility.yul\":12058:12064   */\n      dup9\n        /* \"#utility.yul\":12054:12068   */\n      mul\n        /* \"#utility.yul\":12050:12072   */\n      add\n        /* \"#utility.yul\":12044:12048   */\n      dup9\n        /* \"#utility.yul\":12037:12073   */\n      sstore\n        /* \"#utility.yul\":11472:12083   */\n      pop\n      pop\n      pop\n        /* \"#utility.yul\":11435:12322   */\n    tag_240:\n      pop\n        /* \"#utility.yul\":11025:12328   */\n      pop\n      pop\n      pop\n        /* \"#utility.yul\":10933:12328   */\n      pop\n      pop\n      jump\t// out\n\n    auxdata: 0xa264697066735822122053507a71963a80a715bc5fde6442a185725e422443b5d75ea497bafa308031d764736f6c63430008120033\n}\n",
				"bytecode": {
					"linkReferences": {},
					"object": "608060405260405180606001604052806040518060400160405280600381526020017f313025000000000000000000000000000000000000000000000000000000000081525081526020016040518060400160405280600381526020017f323425000000000000000000000000000000000000000000000000000000000081525081526020016040518060400160405280600381526020017f33362500000000000000000000000000000000000000000000000000000000008152508152506001906003620000d0929190620000e5565b50348015620000de57600080fd5b5062000533565b82805482825590600052602060002090810192821562000132579160200282015b82811115620001315782518290816200012091906200044c565b509160200191906001019062000106565b5b50905062000141919062000145565b5090565b5b808211156200016957600081816200015f91906200016d565b5060010162000146565b5090565b5080546200017b906200023b565b6000825580601f106200018f5750620001b0565b601f016020900490600052602060002090810190620001af9190620001b3565b5b50565b5b80821115620001ce576000816000905550600101620001b4565b5090565b600081519050919050565b7f4e487b7100000000000000000000000000000000000000000000000000000000600052604160045260246000fd5b7f4e487b7100000000000000000000000000000000000000000000000000000000600052602260045260246000fd5b600060028204905060018216806200025457607f821691505b6020821081036200026a57620002696200020c565b5b50919050565b60008190508160005260206000209050919050565b60006020601f8301049050919050565b600082821b905092915050565b600060088302620002d47fffffffffffffffffffffffffffffffffffffffffffffffffffffffffffffffff8262000295565b620002e0868362000295565b95508019841693508086168417925050509392505050565b6000819050919050565b6000819050919050565b60006200032d620003276200032184620002f8565b62000302565b620002f8565b9050919050565b6000819050919050565b62000349836200030c565b62000361620003588262000334565b848454620002a2565b825550505050565b600090565b6200037862000369565b620003858184846200033e565b505050565b5b81811015620003ad57620003a16000826200036e565b6001810190506200038b565b5050565b601f821115620003fc57620003c68162000270565b620003d18462000285565b81016020851015620003e1578190505b620003f9620003f08562000285565b8301826200038a565b50505b505050565b600082821c905092915050565b6000620004216000198460080262000401565b1980831691505092915050565b60006200043c83836200040e565b9150826002028217905092915050565b6200045782620001d2565b67ffffffffffffffff811115620004735762000472620001dd565b5b6200047f82546200023b565b6200048c828285620003b1565b600060209050601f831160018114620004c45760008415620004af578287015190505b620004bb85826200042e565b8655506200052b565b601f198416620004d48662000270565b60005b82811015620004fe57848901518255600182019150602085019450602081019050620004d7565b868310156200051e57848901516200051a601f8916826200040e565b8355505b6001600288020188555050505b505050505050565b610bc180620005436000396000f3fe608060405234801561001057600080fd5b50600436106100575760003560e01c806306ead22e1461005c5780635652d6821461008f578063a162b0a214610099578063e5e11a7f146100c9578063e6b46445146100d3575b600080fd5b610076600480360381019061007191906104f0565b6100ef565b6040516100869493929190610633565b60405180910390f35b6100976101b4565b005b6100b360048036038101906100ae91906104f0565b61021e565b6040516100c0919061067f565b60405180910390f35b6100d16102ca565b005b6100ed60048036038101906100e891906107fb565b6103f8565b005b6000602052806000526040600020600091509050806000015490806001018054610118906108ad565b80601f0160208091040260200160405190810160405280929190818152602001828054610144906108ad565b80156101915780601f1061016657610100808354040283529160200191610191565b820191906000526020600020905b81548152906001019060200180831161017457829003601f168201915b5050505050908060020160009054906101000a900460ff16908060030154905084565b6000600190506040518060400160405280600381526020017f383725000000000000000000000000000000000000000000000000000000000081525081600081548110610204576102036108de565b5b90600052602060002001908161021a9190610ab9565b5050565b6001818154811061022e57600080fd5b906000526020600020016000915090508054610249906108ad565b80601f0160208091040260200160405190810160405280929190818152602001828054610275906108ad565b80156102c25780601f10610297576101008083540402835291602001916102c2565b820191906000526020600020905b8154815290600101906020018083116102a557829003601f168201915b505050505081565b60006001805480602002602001604051908101604052809291908181526020016000905b8282101561039a57838290600052602060002001805461030d906108ad565b80601f0160208091040260200160405190810160405280929190818152602001828054610339906108ad565b80156103865780601f1061035b57610100808354040283529160200191610386565b820191906000526020600020905b81548152906001019060200180831161036957829003601f168201915b5050505050815260200190600101906102ee565b5050505090506040518060400160405280600281526020017f3825000000000000000000000000000000000000000000000000000000000000815250816000815181106103ea576103e96108de565b5b602002602001018190525050565b60006040518060800160405280868152602001858152602001836002811115610424576104236105bc565b5b8152602001848152509050806000808781526020019081526020016000206000820151816000015560208201518160010190816104619190610ab9565b5060408201518160020160006101000a81548160ff0219169083600281111561048d5761048c6105bc565b5b0217905550606082015181600301559050505050505050565b6000604051905090565b600080fd5b600080fd5b6000819050919050565b6104cd816104ba565b81146104d857600080fd5b50565b6000813590506104ea816104c4565b92915050565b600060208284031215610506576105056104b0565b5b6000610514848285016104db565b91505092915050565b610526816104ba565b82525050565b600081519050919050565b600082825260208201905092915050565b60005b8381101561056657808201518184015260208101905061054b565b60008484015250505050565b6000601f19601f8301169050919050565b600061058e8261052c565b6105988185610537565b93506105a8818560208601610548565b6105b181610572565b840191505092915050565b7f4e487b7100000000000000000000000000000000000000000000000000000000600052602160045260246000fd5b600381106105fc576105fb6105bc565b5b50565b600081905061060d826105eb565b919050565b600061061d826105ff565b9050919050565b61062d81610612565b82525050565b6000608082019050610648600083018761051d565b818103602083015261065a8186610583565b90506106696040830185610624565b610676606083018461051d565b95945050505050565b600060208201905081810360008301526106998184610583565b905092915050565b600080fd5b600080fd5b7f4e487b7100000000000000000000000000000000000000000000000000000000600052604160045260246000fd5b6106e382610572565b810181811067ffffffffffffffff82111715610702576107016106ab565b5b80604052505050565b60006107156104a6565b905061072182826106da565b919050565b600067ffffffffffffffff821115610741576107406106ab565b5b61074a82610572565b9050602081019050919050565b82818337600083830152505050565b600061077961077484610726565b61070b565b905082815260208101848484011115610795576107946106a6565b5b6107a0848285610757565b509392505050565b600082601f8301126107bd576107bc6106a1565b5b81356107cd848260208601610766565b91505092915050565b600381106107e357600080fd5b50565b6000813590506107f5816107d6565b92915050565b60008060008060808587031215610815576108146104b0565b5b6000610823878288016104db565b945050602085013567ffffffffffffffff811115610844576108436104b5565b5b610850878288016107a8565b9350506040610861878288016104db565b9250506060610872878288016107e6565b91505092959194509250565b7f4e487b7100000000000000000000000000000000000000000000000000000000600052602260045260246000fd5b600060028204905060018216806108c557607f821691505b6020821081036108d8576108d761087e565b5b50919050565b7f4e487b7100000000000000000000000000000000000000000000000000000000600052603260045260246000fd5b60008190508160005260206000209050919050565b60006020601f8301049050919050565b600082821b905092915050565b60006008830261096f7fffffffffffffffffffffffffffffffffffffffffffffffffffffffffffffffff82610932565b6109798683610932565b95508019841693508086168417925050509392505050565b6000819050919050565b60006109b66109b16109ac846104ba565b610991565b6104ba565b9050919050565b6000819050919050565b6109d08361099b565b6109e46109dc826109bd565b84845461093f565b825550505050565b600090565b6109f96109ec565b610a048184846109c7565b505050565b5b81811015610a2857610a1d6000826109f1565b600181019050610a0a565b5050565b601f821115610a6d57610a3e8161090d565b610a4784610922565b81016020851015610a56578190505b610a6a610a6285610922565b830182610a09565b50505b505050565b600082821c905092915050565b6000610a9060001984600802610a72565b1980831691505092915050565b6000610aa98383610a7f565b9150826002028217905092915050565b610ac28261052c565b67ffffffffffffffff811115610adb57610ada6106ab565b5b610ae582546108ad565b610af0828285610a2c565b600060209050601f831160018114610b235760008415610b11578287015190505b610b1b8582610a9d565b865550610b83565b601f198416610b318661090d565b60005b82811015610b5957848901518255600182019150602085019450602081019050610b34565b86831015610b765784890151610b72601f891682610a7f565b8355505b6001600288020188555050505b50505050505056fea264697066735822122053507a71963a80a715bc5fde6442a185725e422443b5d75ea497bafa308031d764736f6c63430008120033",
					"opcodes": "PUSH1 0x80 PUSH1 0x40 MSTORE PUSH1 0x40 MLOAD DUP1 PUSH1 0x60 ADD PUSH1 0x40 MSTORE DUP1 PUSH1 0x40 MLOAD DUP1 PUSH1 0x40 ADD PUSH1 0x40 MSTORE DUP1 PUSH1 0x3 DUP2 MSTORE PUSH1 0x20 ADD PUSH32 0x3130250000000000000000000000000000000000000000000000000000000000 DUP2 MSTORE POP DUP2 MSTORE PUSH1 0x20 ADD PUSH1 0x40 MLOAD DUP1 PUSH1 0x40 ADD PUSH1 0x40 MSTORE DUP1 PUSH1 0x3 DUP2 MSTORE PUSH1 0x20 ADD PUSH32 0x3234250000000000000000000000000000000000000000000000000000000000 DUP2 MSTORE POP DUP2 MSTORE PUSH1 0x20 ADD PUSH1 0x40 MLOAD DUP1 PUSH1 0x40 ADD PUSH1 0x40 MSTORE DUP1 PUSH1 0x3 DUP2 MSTORE PUSH1 0x20 ADD PUSH32 0x3336250000000000000000000000000000000000000000000000000000000000 DUP2 MSTORE POP DUP2 MSTORE POP PUSH1 0x1 SWAP1 PUSH1 0x3 PUSH3 0xD0 SWAP3 SWAP2 SWAP1 PUSH3 0xE5 JUMP JUMPDEST POP CALLVALUE DUP1 ISZERO PUSH3 0xDE JUMPI PUSH1 0x0 DUP1 REVERT JUMPDEST POP PUSH3 0x533 JUMP JUMPDEST DUP3 DUP1 SLOAD DUP3 DUP3 SSTORE SWAP1 PUSH1 0x0 MSTORE PUSH1 0x20 PUSH1 0x0 KECCAK256 SWAP1 DUP2 ADD SWAP3 DUP3 ISZERO PUSH3 0x132 JUMPI SWAP2 PUSH1 0x20 MUL DUP3 ADD JUMPDEST DUP3 DUP2 GT ISZERO PUSH3 0x131 JUMPI DUP3 MLOAD DUP3 SWAP1 DUP2 PUSH3 0x120 SWAP2 SWAP1 PUSH3 0x44C JUMP JUMPDEST POP SWAP2 PUSH1 0x20 ADD SWAP2 SWAP1 PUSH1 0x1 ADD SWAP1 PUSH3 0x106 JUMP JUMPDEST JUMPDEST POP SWAP1 POP PUSH3 0x141 SWAP2 SWAP1 PUSH3 0x145 JUMP JUMPDEST POP SWAP1 JUMP JUMPDEST JUMPDEST DUP1 DUP3 GT ISZERO PUSH3 0x169 JUMPI PUSH1 0x0 DUP2 DUP2 PUSH3 0x15F SWAP2 SWAP1 PUSH3 0x16D JUMP JUMPDEST POP PUSH1 0x1 ADD PUSH3 0x146 JUMP JUMPDEST POP SWAP1 JUMP JUMPDEST POP DUP1 SLOAD PUSH3 0x17B SWAP1 PUSH3 0x23B JUMP JUMPDEST PUSH1 0x0 DUP3 SSTORE DUP1 PUSH1 0x1F LT PUSH3 0x18F JUMPI POP PUSH3 0x1B0 JUMP JUMPDEST PUSH1 0x1F ADD PUSH1 0x20 SWAP1 DIV SWAP1 PUSH1 0x0 MSTORE PUSH1 0x20 PUSH1 0x0 KECCAK256 SWAP1 DUP2 ADD SWAP1 PUSH3 0x1AF SWAP2 SWAP1 PUSH3 0x1B3 JUMP JUMPDEST JUMPDEST POP JUMP JUMPDEST JUMPDEST DUP1 DUP3 GT ISZERO PUSH3 0x1CE JUMPI PUSH1 0x0 DUP2 PUSH1 0x0 SWAP1 SSTORE POP PUSH1 0x1 ADD PUSH3 0x1B4 JUMP JUMPDEST POP SWAP1 JUMP JUMPDEST PUSH1 0x0 DUP2 MLOAD SWAP1 POP SWAP2 SWAP1 POP JUMP JUMPDEST PUSH32 0x4E487B7100000000000000000000000000000000000000000000000000000000 PUSH1 0x0 MSTORE PUSH1 0x41 PUSH1 0x4 MSTORE PUSH1 0x24 PUSH1 0x0 REVERT JUMPDEST PUSH32 0x4E487B7100000000000000000000000000000000000000000000000000000000 PUSH1 0x0 MSTORE PUSH1 0x22 PUSH1 0x4 MSTORE PUSH1 0x24 PUSH1 0x0 REVERT JUMPDEST PUSH1 0x0 PUSH1 0x2 DUP3 DIV SWAP1 POP PUSH1 0x1 DUP3 AND DUP1 PUSH3 0x254 JUMPI PUSH1 0x7F DUP3 AND SWAP2 POP JUMPDEST PUSH1 0x20 DUP3 LT DUP2 SUB PUSH3 0x26A JUMPI PUSH3 0x269 PUSH3 0x20C JUMP JUMPDEST JUMPDEST POP SWAP2 SWAP1 POP JUMP JUMPDEST PUSH1 0x0 DUP2 SWAP1 POP DUP2 PUSH1 0x0 MSTORE PUSH1 0x20 PUSH1 0x0 KECCAK256 SWAP1 POP SWAP2 SWAP1 POP JUMP JUMPDEST PUSH1 0x0 PUSH1 0x20 PUSH1 0x1F DUP4 ADD DIV SWAP1 POP SWAP2 SWAP1 POP JUMP JUMPDEST PUSH1 0x0 DUP3 DUP3 SHL SWAP1 POP SWAP3 SWAP2 POP POP JUMP JUMPDEST PUSH1 0x0 PUSH1 0x8 DUP4 MUL PUSH3 0x2D4 PUSH32 0xFFFFFFFFFFFFFFFFFFFFFFFFFFFFFFFFFFFFFFFFFFFFFFFFFFFFFFFFFFFFFFFF DUP3 PUSH3 0x295 JUMP JUMPDEST PUSH3 0x2E0 DUP7 DUP4 PUSH3 0x295 JUMP JUMPDEST SWAP6 POP DUP1 NOT DUP5 AND SWAP4 POP DUP1 DUP7 AND DUP5 OR SWAP3 POP POP POP SWAP4 SWAP3 POP POP POP JUMP JUMPDEST PUSH1 0x0 DUP2 SWAP1 POP SWAP2 SWAP1 POP JUMP JUMPDEST PUSH1 0x0 DUP2 SWAP1 POP SWAP2 SWAP1 POP JUMP JUMPDEST PUSH1 0x0 PUSH3 0x32D PUSH3 0x327 PUSH3 0x321 DUP5 PUSH3 0x2F8 JUMP JUMPDEST PUSH3 0x302 JUMP JUMPDEST PUSH3 0x2F8 JUMP JUMPDEST SWAP1 POP SWAP2 SWAP1 POP JUMP JUMPDEST PUSH1 0x0 DUP2 SWAP1 POP SWAP2 SWAP1 POP JUMP JUMPDEST PUSH3 0x349 DUP4 PUSH3 0x30C JUMP JUMPDEST PUSH3 0x361 PUSH3 0x358 DUP3 PUSH3 0x334 JUMP JUMPDEST DUP5 DUP5 SLOAD PUSH3 0x2A2 JUMP JUMPDEST DUP3 SSTORE POP POP POP POP JUMP JUMPDEST PUSH1 0x0 SWAP1 JUMP JUMPDEST PUSH3 0x378 PUSH3 0x369 JUMP JUMPDEST PUSH3 0x385 DUP2 DUP5 DUP5 PUSH3 0x33E JUMP JUMPDEST POP POP POP JUMP JUMPDEST JUMPDEST DUP2 DUP2 LT ISZERO PUSH3 0x3AD JUMPI PUSH3 0x3A1 PUSH1 0x0 DUP3 PUSH3 0x36E JUMP JUMPDEST PUSH1 0x1 DUP2 ADD SWAP1 POP PUSH3 0x38B JUMP JUMPDEST POP POP JUMP JUMPDEST PUSH1 0x1F DUP3 GT ISZERO PUSH3 0x3FC JUMPI PUSH3 0x3C6 DUP2 PUSH3 0x270 JUMP JUMPDEST PUSH3 0x3D1 DUP5 PUSH3 0x285 JUMP JUMPDEST DUP2 ADD PUSH1 0x20 DUP6 LT ISZERO PUSH3 0x3E1 JUMPI DUP2 SWAP1 POP JUMPDEST PUSH3 0x3F9 PUSH3 0x3F0 DUP6 PUSH3 0x285 JUMP JUMPDEST DUP4 ADD DUP3 PUSH3 0x38A JUMP JUMPDEST POP POP JUMPDEST POP POP POP JUMP JUMPDEST PUSH1 0x0 DUP3 DUP3 SHR SWAP1 POP SWAP3 SWAP2 POP POP JUMP JUMPDEST PUSH1 0x0 PUSH3 0x421 PUSH1 0x0 NOT DUP5 PUSH1 0x8 MUL PUSH3 0x401 JUMP JUMPDEST NOT DUP1 DUP4 AND SWAP2 POP POP SWAP3 SWAP2 POP POP JUMP JUMPDEST PUSH1 0x0 PUSH3 0x43C DUP4 DUP4 PUSH3 0x40E JUMP JUMPDEST SWAP2 POP DUP3 PUSH1 0x2 MUL DUP3 OR SWAP1 POP SWAP3 SWAP2 POP POP JUMP JUMPDEST PUSH3 0x457 DUP3 PUSH3 0x1D2 JUMP JUMPDEST PUSH8 0xFFFFFFFFFFFFFFFF DUP2 GT ISZERO PUSH3 0x473 JUMPI PUSH3 0x472 PUSH3 0x1DD JUMP JUMPDEST JUMPDEST PUSH3 0x47F DUP3 SLOAD PUSH3 0x23B JUMP JUMPDEST PUSH3 0x48C DUP3 DUP3 DUP6 PUSH3 0x3B1 JUMP JUMPDEST PUSH1 0x0 PUSH1 0x20 SWAP1 POP PUSH1 0x1F DUP4 GT PUSH1 0x1 DUP2 EQ PUSH3 0x4C4 JUMPI PUSH1 0x0 DUP5 ISZERO PUSH3 0x4AF JUMPI DUP3 DUP8 ADD MLOAD SWAP1 POP JUMPDEST PUSH3 0x4BB DUP6 DUP3 PUSH3 0x42E JUMP JUMPDEST DUP7 SSTORE POP PUSH3 0x52B JUMP JUMPDEST PUSH1 0x1F NOT DUP5 AND PUSH3 0x4D4 DUP7 PUSH3 0x270 JUMP JUMPDEST PUSH1 0x0 JUMPDEST DUP3 DUP2 LT ISZERO PUSH3 0x4FE JUMPI DUP5 DUP10 ADD MLOAD DUP3 SSTORE PUSH1 0x1 DUP3 ADD SWAP2 POP PUSH1 0x20 DUP6 ADD SWAP5 POP PUSH1 0x20 DUP2 ADD SWAP1 POP PUSH3 0x4D7 JUMP JUMPDEST DUP7 DUP4 LT ISZERO PUSH3 0x51E JUMPI DUP5 DUP10 ADD MLOAD PUSH3 0x51A PUSH1 0x1F DUP10 AND DUP3 PUSH3 0x40E JUMP JUMPDEST DUP4 SSTORE POP JUMPDEST PUSH1 0x1 PUSH1 0x2 DUP9 MUL ADD DUP9 SSTORE POP POP POP JUMPDEST POP POP POP POP POP POP JUMP JUMPDEST PUSH2 0xBC1 DUP1 PUSH3 0x543 PUSH1 0x0 CODECOPY PUSH1 0x0 RETURN INVALID PUSH1 0x80 PUSH1 0x40 MSTORE CALLVALUE DUP1 ISZERO PUSH2 0x10 JUMPI PUSH1 0x0 DUP1 REVERT JUMPDEST POP PUSH1 0x4 CALLDATASIZE LT PUSH2 0x57 JUMPI PUSH1 0x0 CALLDATALOAD PUSH1 0xE0 SHR DUP1 PUSH4 0x6EAD22E EQ PUSH2 0x5C JUMPI DUP1 PUSH4 0x5652D682 EQ PUSH2 0x8F JUMPI DUP1 PUSH4 0xA162B0A2 EQ PUSH2 0x99 JUMPI DUP1 PUSH4 0xE5E11A7F EQ PUSH2 0xC9 JUMPI DUP1 PUSH4 0xE6B46445 EQ PUSH2 0xD3 JUMPI JUMPDEST PUSH1 0x0 DUP1 REVERT JUMPDEST PUSH2 0x76 PUSH1 0x4 DUP1 CALLDATASIZE SUB DUP2 ADD SWAP1 PUSH2 0x71 SWAP2 SWAP1 PUSH2 0x4F0 JUMP JUMPDEST PUSH2 0xEF JUMP JUMPDEST PUSH1 0x40 MLOAD PUSH2 0x86 SWAP5 SWAP4 SWAP3 SWAP2 SWAP1 PUSH2 0x633 JUMP JUMPDEST PUSH1 0x40 MLOAD DUP1 SWAP2 SUB SWAP1 RETURN JUMPDEST PUSH2 0x97 PUSH2 0x1B4 JUMP JUMPDEST STOP JUMPDEST PUSH2 0xB3 PUSH1 0x4 DUP1 CALLDATASIZE SUB DUP2 ADD SWAP1 PUSH2 0xAE SWAP2 SWAP1 PUSH2 0x4F0 JUMP JUMPDEST PUSH2 0x21E JUMP JUMPDEST PUSH1 0x40 MLOAD PUSH2 0xC0 SWAP2 SWAP1 PUSH2 0x67F JUMP JUMPDEST PUSH1 0x40 MLOAD DUP1 SWAP2 SUB SWAP1 RETURN JUMPDEST PUSH2 0xD1 PUSH2 0x2CA JUMP JUMPDEST STOP JUMPDEST PUSH2 0xED PUSH1 0x4 DUP1 CALLDATASIZE SUB DUP2 ADD SWAP1 PUSH2 0xE8 SWAP2 SWAP1 PUSH2 0x7FB JUMP JUMPDEST PUSH2 0x3F8 JUMP JUMPDEST STOP JUMPDEST PUSH1 0x0 PUSH1 0x20 MSTORE DUP1 PUSH1 0x0 MSTORE PUSH1 0x40 PUSH1 0x0 KECCAK256 PUSH1 0x0 SWAP2 POP SWAP1 POP DUP1 PUSH1 0x0 ADD SLOAD SWAP1 DUP1 PUSH1 0x1 ADD DUP1 SLOAD PUSH2 0x118 SWAP1 PUSH2 0x8AD JUMP JUMPDEST DUP1 PUSH1 0x1F ADD PUSH1 0x20 DUP1 SWAP2 DIV MUL PUSH1 0x20 ADD PUSH1 0x40 MLOAD SWAP1 DUP2 ADD PUSH1 0x40 MSTORE DUP1 SWAP3 SWAP2 SWAP1 DUP2 DUP2 MSTORE PUSH1 0x20 ADD DUP3 DUP1 SLOAD PUSH2 0x144 SWAP1 PUSH2 0x8AD JUMP JUMPDEST DUP1 ISZERO PUSH2 0x191 JUMPI DUP1 PUSH1 0x1F LT PUSH2 0x166 JUMPI PUSH2 0x100 DUP1 DUP4 SLOAD DIV MUL DUP4 MSTORE SWAP2 PUSH1 0x20 ADD SWAP2 PUSH2 0x191 JUMP JUMPDEST DUP3 ADD SWAP2 SWAP1 PUSH1 0x0 MSTORE PUSH1 0x20 PUSH1 0x0 KECCAK256 SWAP1 JUMPDEST DUP2 SLOAD DUP2 MSTORE SWAP1 PUSH1 0x1 ADD SWAP1 PUSH1 0x20 ADD DUP1 DUP4 GT PUSH2 0x174 JUMPI DUP3 SWAP1 SUB PUSH1 0x1F AND DUP3 ADD SWAP2 JUMPDEST POP POP POP POP POP SWAP1 DUP1 PUSH1 0x2 ADD PUSH1 0x0 SWAP1 SLOAD SWAP1 PUSH2 0x100 EXP SWAP1 DIV PUSH1 0xFF AND SWAP1 DUP1 PUSH1 0x3 ADD SLOAD SWAP1 POP DUP5 JUMP JUMPDEST PUSH1 0x0 PUSH1 0x1 SWAP1 POP PUSH1 0x40 MLOAD DUP1 PUSH1 0x40 ADD PUSH1 0x40 MSTORE DUP1 PUSH1 0x3 DUP2 MSTORE PUSH1 0x20 ADD PUSH32 0x3837250000000000000000000000000000000000000000000000000000000000 DUP2 MSTORE POP DUP2 PUSH1 0x0 DUP2 SLOAD DUP2 LT PUSH2 0x204 JUMPI PUSH2 0x203 PUSH2 0x8DE JUMP JUMPDEST JUMPDEST SWAP1 PUSH1 0x0 MSTORE PUSH1 0x20 PUSH1 0x0 KECCAK256 ADD SWAP1 DUP2 PUSH2 0x21A SWAP2 SWAP1 PUSH2 0xAB9 JUMP JUMPDEST POP POP JUMP JUMPDEST PUSH1 0x1 DUP2 DUP2 SLOAD DUP2 LT PUSH2 0x22E JUMPI PUSH1 0x0 DUP1 REVERT JUMPDEST SWAP1 PUSH1 0x0 MSTORE PUSH1 0x20 PUSH1 0x0 KECCAK256 ADD PUSH1 0x0 SWAP2 POP SWAP1 POP DUP1 SLOAD PUSH2 0x249 SWAP1 PUSH2 0x8AD JUMP JUMPDEST DUP1 PUSH1 0x1F ADD PUSH1 0x20 DUP1 SWAP2 DIV MUL PUSH1 0x20 ADD PUSH1 0x40 MLOAD SWAP1 DUP2 ADD PUSH1 0x40 MSTORE DUP1 SWAP3 SWAP2 SWAP1 DUP2 DUP2 MSTORE PUSH1 0x20 ADD DUP3 DUP1 SLOAD PUSH2 0x275 SWAP1 PUSH2 0x8AD JUMP JUMPDEST DUP1 ISZERO PUSH2 0x2C2 JUMPI DUP1 PUSH1 0x1F LT PUSH2 0x297 JUMPI PUSH2 0x100 DUP1 DUP4 SLOAD DIV MUL DUP4 MSTORE SWAP2 PUSH1 0x20 ADD SWAP2 PUSH2 0x2C2 JUMP JUMPDEST DUP3 ADD SWAP2 SWAP1 PUSH1 0x0 MSTORE PUSH1 0x20 PUSH1 0x0 KECCAK256 SWAP1 JUMPDEST DUP2 SLOAD DUP2 MSTORE SWAP1 PUSH1 0x1 ADD SWAP1 PUSH1 0x20 ADD DUP1 DUP4 GT PUSH2 0x2A5 JUMPI DUP3 SWAP1 SUB PUSH1 0x1F AND DUP3 ADD SWAP2 JUMPDEST POP POP POP POP POP DUP2 JUMP JUMPDEST PUSH1 0x0 PUSH1 0x1 DUP1 SLOAD DUP1 PUSH1 0x20 MUL PUSH1 0x20 ADD PUSH1 0x40 MLOAD SWAP1 DUP2 ADD PUSH1 0x40 MSTORE DUP1 SWAP3 SWAP2 SWAP1 DUP2 DUP2 MSTORE PUSH1 0x20 ADD PUSH1 0x0 SWAP1 JUMPDEST DUP3 DUP3 LT ISZERO PUSH2 0x39A JUMPI DUP4 DUP3 SWAP1 PUSH1 0x0 MSTORE PUSH1 0x20 PUSH1 0x0 KECCAK256 ADD DUP1 SLOAD PUSH2 0x30D SWAP1 PUSH2 0x8AD JUMP JUMPDEST DUP1 PUSH1 0x1F ADD PUSH1 0x20 DUP1 SWAP2 DIV MUL PUSH1 0x20 ADD PUSH1 0x40 MLOAD SWAP1 DUP2 ADD PUSH1 0x40 MSTORE DUP1 SWAP3 SWAP2 SWAP1 DUP2 DUP2 MSTORE PUSH1 0x20 ADD DUP3 DUP1 SLOAD PUSH2 0x339 SWAP1 PUSH2 0x8AD JUMP JUMPDEST DUP1 ISZERO PUSH2 0x386 JUMPI DUP1 PUSH1 0x1F LT PUSH2 0x35B JUMPI PUSH2 0x100 DUP1 DUP4 SLOAD DIV MUL DUP4 MSTORE SWAP2 PUSH1 0x20 ADD SWAP2 PUSH2 0x386 JUMP JUMPDEST DUP3 ADD SWAP2 SWAP1 PUSH1 0x0 MSTORE PUSH1 0x20 PUSH1 0x0 KECCAK256 SWAP1 JUMPDEST DUP2 SLOAD DUP2 MSTORE SWAP1 PUSH1 0x1 ADD SWAP1 PUSH1 0x20 ADD DUP1 DUP4 GT PUSH2 0x369 JUMPI DUP3 SWAP1 SUB PUSH1 0x1F AND DUP3 ADD SWAP2 JUMPDEST POP POP POP POP POP DUP2 MSTORE PUSH1 0x20 ADD SWAP1 PUSH1 0x1 ADD SWAP1 PUSH2 0x2EE JUMP JUMPDEST POP POP POP POP SWAP1 POP PUSH1 0x40 MLOAD DUP1 PUSH1 0x40 ADD PUSH1 0x40 MSTORE DUP1 PUSH1 0x2 DUP2 MSTORE PUSH1 0x20 ADD PUSH32 0x3825000000000000000000000000000000000000000000000000000000000000 DUP2 MSTORE POP DUP2 PUSH1 0x0 DUP2 MLOAD DUP2 LT PUSH2 0x3EA JUMPI PUSH2 0x3E9 PUSH2 0x8DE JUMP JUMPDEST JUMPDEST PUSH1 0x20 MUL PUSH1 0x20 ADD ADD DUP2 SWAP1 MSTORE POP POP JUMP JUMPDEST PUSH1 0x0 PUSH1 0x40 MLOAD DUP1 PUSH1 0x80 ADD PUSH1 0x40 MSTORE DUP1 DUP7 DUP2 MSTORE PUSH1 0x20 ADD DUP6 DUP2 MSTORE PUSH1 0x20 ADD DUP4 PUSH1 0x2 DUP2 GT ISZERO PUSH2 0x424 JUMPI PUSH2 0x423 PUSH2 0x5BC JUMP JUMPDEST JUMPDEST DUP2 MSTORE PUSH1 0x20 ADD DUP5 DUP2 MSTORE POP SWAP1 POP DUP1 PUSH1 0x0 DUP1 DUP8 DUP2 MSTORE PUSH1 0x20 ADD SWAP1 DUP2 MSTORE PUSH1 0x20 ADD PUSH1 0x0 KECCAK256 PUSH1 0x0 DUP3 ADD MLOAD DUP2 PUSH1 0x0 ADD SSTORE PUSH1 0x20 DUP3 ADD MLOAD DUP2 PUSH1 0x1 ADD SWAP1 DUP2 PUSH2 0x461 SWAP2 SWAP1 PUSH2 0xAB9 JUMP JUMPDEST POP PUSH1 0x40 DUP3 ADD MLOAD DUP2 PUSH1 0x2 ADD PUSH1 0x0 PUSH2 0x100 EXP DUP2 SLOAD DUP2 PUSH1 0xFF MUL NOT AND SWAP1 DUP4 PUSH1 0x2 DUP2 GT ISZERO PUSH2 0x48D JUMPI PUSH2 0x48C PUSH2 0x5BC JUMP JUMPDEST JUMPDEST MUL OR SWAP1 SSTORE POP PUSH1 0x60 DUP3 ADD MLOAD DUP2 PUSH1 0x3 ADD SSTORE SWAP1 POP POP POP POP POP POP POP JUMP JUMPDEST PUSH1 0x0 PUSH1 0x40 MLOAD SWAP1 POP SWAP1 JUMP JUMPDEST PUSH1 0x0 DUP1 REVERT JUMPDEST PUSH1 0x0 DUP1 REVERT JUMPDEST PUSH1 0x0 DUP2 SWAP1 POP SWAP2 SWAP1 POP JUMP JUMPDEST PUSH2 0x4CD DUP2 PUSH2 0x4BA JUMP JUMPDEST DUP2 EQ PUSH2 0x4D8 JUMPI PUSH1 0x0 DUP1 REVERT JUMPDEST POP JUMP JUMPDEST PUSH1 0x0 DUP2 CALLDATALOAD SWAP1 POP PUSH2 0x4EA DUP2 PUSH2 0x4C4 JUMP JUMPDEST SWAP3 SWAP2 POP POP JUMP JUMPDEST PUSH1 0x0 PUSH1 0x20 DUP3 DUP5 SUB SLT ISZERO PUSH2 0x506 JUMPI PUSH2 0x505 PUSH2 0x4B0 JUMP JUMPDEST JUMPDEST PUSH1 0x0 PUSH2 0x514 DUP5 DUP3 DUP6 ADD PUSH2 0x4DB JUMP JUMPDEST SWAP2 POP POP SWAP3 SWAP2 POP POP JUMP JUMPDEST PUSH2 0x526 DUP2 PUSH2 0x4BA JUMP JUMPDEST DUP3 MSTORE POP POP JUMP JUMPDEST PUSH1 0x0 DUP2 MLOAD SWAP1 POP SWAP2 SWAP1 POP JUMP JUMPDEST PUSH1 0x0 DUP3 DUP3 MSTORE PUSH1 0x20 DUP3 ADD SWAP1 POP SWAP3 SWAP2 POP POP JUMP JUMPDEST PUSH1 0x0 JUMPDEST DUP4 DUP2 LT ISZERO PUSH2 0x566 JUMPI DUP1 DUP3 ADD MLOAD DUP2 DUP5 ADD MSTORE PUSH1 0x20 DUP2 ADD SWAP1 POP PUSH2 0x54B JUMP JUMPDEST PUSH1 0x0 DUP5 DUP5 ADD MSTORE POP POP POP POP JUMP JUMPDEST PUSH1 0x0 PUSH1 0x1F NOT PUSH1 0x1F DUP4 ADD AND SWAP1 POP SWAP2 SWAP1 POP JUMP JUMPDEST PUSH1 0x0 PUSH2 0x58E DUP3 PUSH2 0x52C JUMP JUMPDEST PUSH2 0x598 DUP2 DUP6 PUSH2 0x537 JUMP JUMPDEST SWAP4 POP PUSH2 0x5A8 DUP2 DUP6 PUSH1 0x20 DUP7 ADD PUSH2 0x548 JUMP JUMPDEST PUSH2 0x5B1 DUP2 PUSH2 0x572 JUMP JUMPDEST DUP5 ADD SWAP2 POP POP SWAP3 SWAP2 POP POP JUMP JUMPDEST PUSH32 0x4E487B7100000000000000000000000000000000000000000000000000000000 PUSH1 0x0 MSTORE PUSH1 0x21 PUSH1 0x4 MSTORE PUSH1 0x24 PUSH1 0x0 REVERT JUMPDEST PUSH1 0x3 DUP2 LT PUSH2 0x5FC JUMPI PUSH2 0x5FB PUSH2 0x5BC JUMP JUMPDEST JUMPDEST POP JUMP JUMPDEST PUSH1 0x0 DUP2 SWAP1 POP PUSH2 0x60D DUP3 PUSH2 0x5EB JUMP JUMPDEST SWAP2 SWAP1 POP JUMP JUMPDEST PUSH1 0x0 PUSH2 0x61D DUP3 PUSH2 0x5FF JUMP JUMPDEST SWAP1 POP SWAP2 SWAP1 POP JUMP JUMPDEST PUSH2 0x62D DUP2 PUSH2 0x612 JUMP JUMPDEST DUP3 MSTORE POP POP JUMP JUMPDEST PUSH1 0x0 PUSH1 0x80 DUP3 ADD SWAP1 POP PUSH2 0x648 PUSH1 0x0 DUP4 ADD DUP8 PUSH2 0x51D JUMP JUMPDEST DUP2 DUP2 SUB PUSH1 0x20 DUP4 ADD MSTORE PUSH2 0x65A DUP2 DUP7 PUSH2 0x583 JUMP JUMPDEST SWAP1 POP PUSH2 0x669 PUSH1 0x40 DUP4 ADD DUP6 PUSH2 0x624 JUMP JUMPDEST PUSH2 0x676 PUSH1 0x60 DUP4 ADD DUP5 PUSH2 0x51D JUMP JUMPDEST SWAP6 SWAP5 POP POP POP POP POP JUMP JUMPDEST PUSH1 0x0 PUSH1 0x20 DUP3 ADD SWAP1 POP DUP2 DUP2 SUB PUSH1 0x0 DUP4 ADD MSTORE PUSH2 0x699 DUP2 DUP5 PUSH2 0x583 JUMP JUMPDEST SWAP1 POP SWAP3 SWAP2 POP POP JUMP JUMPDEST PUSH1 0x0 DUP1 REVERT JUMPDEST PUSH1 0x0 DUP1 REVERT JUMPDEST PUSH32 0x4E487B7100000000000000000000000000000000000000000000000000000000 PUSH1 0x0 MSTORE PUSH1 0x41 PUSH1 0x4 MSTORE PUSH1 0x24 PUSH1 0x0 REVERT JUMPDEST PUSH2 0x6E3 DUP3 PUSH2 0x572 JUMP JUMPDEST DUP2 ADD DUP2 DUP2 LT PUSH8 0xFFFFFFFFFFFFFFFF DUP3 GT OR ISZERO PUSH2 0x702 JUMPI PUSH2 0x701 PUSH2 0x6AB JUMP JUMPDEST JUMPDEST DUP1 PUSH1 0x40 MSTORE POP POP POP JUMP JUMPDEST PUSH1 0x0 PUSH2 0x715 PUSH2 0x4A6 JUMP JUMPDEST SWAP1 POP PUSH2 0x721 DUP3 DUP3 PUSH2 0x6DA JUMP JUMPDEST SWAP2 SWAP1 POP JUMP JUMPDEST PUSH1 0x0 PUSH8 0xFFFFFFFFFFFFFFFF DUP3 GT ISZERO PUSH2 0x741 JUMPI PUSH2 0x740 PUSH2 0x6AB JUMP JUMPDEST JUMPDEST PUSH2 0x74A DUP3 PUSH2 0x572 JUMP JUMPDEST SWAP1 POP PUSH1 0x20 DUP2 ADD SWAP1 POP SWAP2 SWAP1 POP JUMP JUMPDEST DUP3 DUP2 DUP4 CALLDATACOPY PUSH1 0x0 DUP4 DUP4 ADD MSTORE POP POP POP JUMP JUMPDEST PUSH1 0x0 PUSH2 0x779 PUSH2 0x774 DUP5 PUSH2 0x726 JUMP JUMPDEST PUSH2 0x70B JUMP JUMPDEST SWAP1 POP DUP3 DUP2 MSTORE PUSH1 0x20 DUP2 ADD DUP5 DUP5 DUP5 ADD GT ISZERO PUSH2 0x795 JUMPI PUSH2 0x794 PUSH2 0x6A6 JUMP JUMPDEST JUMPDEST PUSH2 0x7A0 DUP5 DUP3 DUP6 PUSH2 0x757 JUMP JUMPDEST POP SWAP4 SWAP3 POP POP POP JUMP JUMPDEST PUSH1 0x0 DUP3 PUSH1 0x1F DUP4 ADD SLT PUSH2 0x7BD JUMPI PUSH2 0x7BC PUSH2 0x6A1 JUMP JUMPDEST JUMPDEST DUP2 CALLDATALOAD PUSH2 0x7CD DUP5 DUP3 PUSH1 0x20 DUP7 ADD PUSH2 0x766 JUMP JUMPDEST SWAP2 POP POP SWAP3 SWAP2 POP POP JUMP JUMPDEST PUSH1 0x3 DUP2 LT PUSH2 0x7E3 JUMPI PUSH1 0x0 DUP1 REVERT JUMPDEST POP JUMP JUMPDEST PUSH1 0x0 DUP2 CALLDATALOAD SWAP1 POP PUSH2 0x7F5 DUP2 PUSH2 0x7D6 JUMP JUMPDEST SWAP3 SWAP2 POP POP JUMP JUMPDEST PUSH1 0x0 DUP1 PUSH1 0x0 DUP1 PUSH1 0x80 DUP6 DUP8 SUB SLT ISZERO PUSH2 0x815 JUMPI PUSH2 0x814 PUSH2 0x4B0 JUMP JUMPDEST JUMPDEST PUSH1 0x0 PUSH2 0x823 DUP8 DUP3 DUP9 ADD PUSH2 0x4DB JUMP JUMPDEST SWAP5 POP POP PUSH1 0x20 DUP6 ADD CALLDATALOAD PUSH8 0xFFFFFFFFFFFFFFFF DUP2 GT ISZERO PUSH2 0x844 JUMPI PUSH2 0x843 PUSH2 0x4B5 JUMP JUMPDEST JUMPDEST PUSH2 0x850 DUP8 DUP3 DUP9 ADD PUSH2 0x7A8 JUMP JUMPDEST SWAP4 POP POP PUSH1 0x40 PUSH2 0x861 DUP8 DUP3 DUP9 ADD PUSH2 0x4DB JUMP JUMPDEST SWAP3 POP POP PUSH1 0x60 PUSH2 0x872 DUP8 DUP3 DUP9 ADD PUSH2 0x7E6 JUMP JUMPDEST SWAP2 POP POP SWAP3 SWAP6 SWAP2 SWAP5 POP SWAP3 POP JUMP JUMPDEST PUSH32 0x4E487B7100000000000000000000000000000000000000000000000000000000 PUSH1 0x0 MSTORE PUSH1 0x22 PUSH1 0x4 MSTORE PUSH1 0x24 PUSH1 0x0 REVERT JUMPDEST PUSH1 0x0 PUSH1 0x2 DUP3 DIV SWAP1 POP PUSH1 0x1 DUP3 AND DUP1 PUSH2 0x8C5 JUMPI PUSH1 0x7F DUP3 AND SWAP2 POP JUMPDEST PUSH1 0x20 DUP3 LT DUP2 SUB PUSH2 0x8D8 JUMPI PUSH2 0x8D7 PUSH2 0x87E JUMP JUMPDEST JUMPDEST POP SWAP2 SWAP1 POP JUMP JUMPDEST PUSH32 0x4E487B7100000000000000000000000000000000000000000000000000000000 PUSH1 0x0 MSTORE PUSH1 0x32 PUSH1 0x4 MSTORE PUSH1 0x24 PUSH1 0x0 REVERT JUMPDEST PUSH1 0x0 DUP2 SWAP1 POP DUP2 PUSH1 0x0 MSTORE PUSH1 0x20 PUSH1 0x0 KECCAK256 SWAP1 POP SWAP2 SWAP1 POP JUMP JUMPDEST PUSH1 0x0 PUSH1 0x20 PUSH1 0x1F DUP4 ADD DIV SWAP1 POP SWAP2 SWAP1 POP JUMP JUMPDEST PUSH1 0x0 DUP3 DUP3 SHL SWAP1 POP SWAP3 SWAP2 POP POP JUMP JUMPDEST PUSH1 0x0 PUSH1 0x8 DUP4 MUL PUSH2 0x96F PUSH32 0xFFFFFFFFFFFFFFFFFFFFFFFFFFFFFFFFFFFFFFFFFFFFFFFFFFFFFFFFFFFFFFFF DUP3 PUSH2 0x932 JUMP JUMPDEST PUSH2 0x979 DUP7 DUP4 PUSH2 0x932 JUMP JUMPDEST SWAP6 POP DUP1 NOT DUP5 AND SWAP4 POP DUP1 DUP7 AND DUP5 OR SWAP3 POP POP POP SWAP4 SWAP3 POP POP POP JUMP JUMPDEST PUSH1 0x0 DUP2 SWAP1 POP SWAP2 SWAP1 POP JUMP JUMPDEST PUSH1 0x0 PUSH2 0x9B6 PUSH2 0x9B1 PUSH2 0x9AC DUP5 PUSH2 0x4BA JUMP JUMPDEST PUSH2 0x991 JUMP JUMPDEST PUSH2 0x4BA JUMP JUMPDEST SWAP1 POP SWAP2 SWAP1 POP JUMP JUMPDEST PUSH1 0x0 DUP2 SWAP1 POP SWAP2 SWAP1 POP JUMP JUMPDEST PUSH2 0x9D0 DUP4 PUSH2 0x99B JUMP JUMPDEST PUSH2 0x9E4 PUSH2 0x9DC DUP3 PUSH2 0x9BD JUMP JUMPDEST DUP5 DUP5 SLOAD PUSH2 0x93F JUMP JUMPDEST DUP3 SSTORE POP POP POP POP JUMP JUMPDEST PUSH1 0x0 SWAP1 JUMP JUMPDEST PUSH2 0x9F9 PUSH2 0x9EC JUMP JUMPDEST PUSH2 0xA04 DUP2 DUP5 DUP5 PUSH2 0x9C7 JUMP JUMPDEST POP POP POP JUMP JUMPDEST JUMPDEST DUP2 DUP2 LT ISZERO PUSH2 0xA28 JUMPI PUSH2 0xA1D PUSH1 0x0 DUP3 PUSH2 0x9F1 JUMP JUMPDEST PUSH1 0x1 DUP2 ADD SWAP1 POP PUSH2 0xA0A JUMP JUMPDEST POP POP JUMP JUMPDEST PUSH1 0x1F DUP3 GT ISZERO PUSH2 0xA6D JUMPI PUSH2 0xA3E DUP2 PUSH2 0x90D JUMP JUMPDEST PUSH2 0xA47 DUP5 PUSH2 0x922 JUMP JUMPDEST DUP2 ADD PUSH1 0x20 DUP6 LT ISZERO PUSH2 0xA56 JUMPI DUP2 SWAP1 POP JUMPDEST PUSH2 0xA6A PUSH2 0xA62 DUP6 PUSH2 0x922 JUMP JUMPDEST DUP4 ADD DUP3 PUSH2 0xA09 JUMP JUMPDEST POP POP JUMPDEST POP POP POP JUMP JUMPDEST PUSH1 0x0 DUP3 DUP3 SHR SWAP1 POP SWAP3 SWAP2 POP POP JUMP JUMPDEST PUSH1 0x0 PUSH2 0xA90 PUSH1 0x0 NOT DUP5 PUSH1 0x8 MUL PUSH2 0xA72 JUMP JUMPDEST NOT DUP1 DUP4 AND SWAP2 POP POP SWAP3 SWAP2 POP POP JUMP JUMPDEST PUSH1 0x0 PUSH2 0xAA9 DUP4 DUP4 PUSH2 0xA7F JUMP JUMPDEST SWAP2 POP DUP3 PUSH1 0x2 MUL DUP3 OR SWAP1 POP SWAP3 SWAP2 POP POP JUMP JUMPDEST PUSH2 0xAC2 DUP3 PUSH2 0x52C JUMP JUMPDEST PUSH8 0xFFFFFFFFFFFFFFFF DUP2 GT ISZERO PUSH2 0xADB JUMPI PUSH2 0xADA PUSH2 0x6AB JUMP JUMPDEST JUMPDEST PUSH2 0xAE5 DUP3 SLOAD PUSH2 0x8AD JUMP JUMPDEST PUSH2 0xAF0 DUP3 DUP3 DUP6 PUSH2 0xA2C JUMP JUMPDEST PUSH1 0x0 PUSH1 0x20 SWAP1 POP PUSH1 0x1F DUP4 GT PUSH1 0x1 DUP2 EQ PUSH2 0xB23 JUMPI PUSH1 0x0 DUP5 ISZERO PUSH2 0xB11 JUMPI DUP3 DUP8 ADD MLOAD SWAP1 POP JUMPDEST PUSH2 0xB1B DUP6 DUP3 PUSH2 0xA9D JUMP JUMPDEST DUP7 SSTORE POP PUSH2 0xB83 JUMP JUMPDEST PUSH1 0x1F NOT DUP5 AND PUSH2 0xB31 DUP7 PUSH2 0x90D JUMP JUMPDEST PUSH1 0x0 JUMPDEST DUP3 DUP2 LT ISZERO PUSH2 0xB59 JUMPI DUP5 DUP10 ADD MLOAD DUP3 SSTORE PUSH1 0x1 DUP3 ADD SWAP2 POP PUSH1 0x20 DUP6 ADD SWAP5 POP PUSH1 0x20 DUP2 ADD SWAP1 POP PUSH2 0xB34 JUMP JUMPDEST DUP7 DUP4 LT ISZERO PUSH2 0xB76 JUMPI DUP5 DUP10 ADD MLOAD PUSH2 0xB72 PUSH1 0x1F DUP10 AND DUP3 PUSH2 0xA7F JUMP JUMPDEST DUP4 SSTORE POP JUMPDEST PUSH1 0x1 PUSH1 0x2 DUP9 MUL ADD DUP9 SSTORE POP POP POP JUMPDEST POP POP POP POP POP POP JUMP INVALID LOG2 PUSH5 0x6970667358 0x22 SLT KECCAK256 MSTORE8 POP PUSH27 0x71963A80A715BC5FDE6442A185725E422443B5D75EA497BAFA3080 BALANCE 0xD7 PUSH5 0x736F6C6343 STOP ADDMOD SLT STOP CALLER "
				},
				"gasEstimates": {
					"creation": {
						"codeDepositCost": "601800",
						"executionCost": "infinite",
						"totalCost": "infinite"
					},
					"external": {
						"addStudent(uint256,string,uint256,uint8)": "infinite",
						"memUpdate()": "infinite",
						"quota(uint256)": "infinite",
						"storeUpdate()": "infinite",
						"students(uint256)": "infinite"
					}
				},
				"methodIdentifiers": {
					"addStudent(uint256,string,uint256,uint8)": "e6b46445",
					"memUpdate()": "e5e11a7f",
					"quota(uint256)": "a162b0a2",
					"storeUpdate()": "5652d682",
					"students(uint256)": "06ead22e"
				}
			},
			"storageLayout": {
				"storage": [
					{
						"astId": 20,
						"contract": "contracts/Struct.sol:Struct",
						"label": "students",
						"offset": 0,
						"slot": "0",
						"type": "t_mapping(t_uint256,t_struct(Student)15_storage)"
					},
					{
						"astId": 27,
						"contract": "contracts/Struct.sol:Struct",
						"label": "quota",
						"offset": 0,
						"slot": "1",
						"type": "t_array(t_string_storage)dyn_storage"
					}
				],
				"types": {
					"t_array(t_string_storage)dyn_storage": {
						"base": "t_string_storage",
						"encoding": "dynamic_array",
						"label": "string[]",
						"numberOfBytes": "32"
					},
					"t_enum(StudentType)5": {
						"encoding": "inplace",
						"label": "enum StudentType",
						"numberOfBytes": "1"
					},
					"t_mapping(t_uint256,t_struct(Student)15_storage)": {
						"encoding": "mapping",
						"key": "t_uint256",
						"label": "mapping(uint256 => struct Student)",
						"numberOfBytes": "32",
						"value": "t_struct(Student)15_storage"
					},
					"t_string_storage": {
						"encoding": "bytes",
						"label": "string",
						"numberOfBytes": "32"
					},
					"t_struct(Student)15_storage": {
						"encoding": "inplace",
						"label": "struct Student",
						"members": [
							{
								"astId": 7,
								"contract": "contracts/Struct.sol:Struct",
								"label": "id",
								"offset": 0,
								"slot": "0",
								"type": "t_uint256"
							},
							{
								"astId": 9,
								"contract": "contracts/Struct.sol:Struct",
								"label": "name",
								"offset": 0,
								"slot": "1",
								"type": "t_string_storage"
							},
							{
								"astId": 12,
								"contract": "contracts/Struct.sol:Struct",
								"label": "stype",
								"offset": 0,
								"slot": "2",
								"type": "t_enum(StudentType)5"
							},
							{
								"astId": 14,
								"contract": "contracts/Struct.sol:Struct",
								"label": "rank",
								"offset": 0,
								"slot": "3",
								"type": "t_uint256"
							}
						],
						"numberOfBytes": "128"
					},
					"t_uint256": {
						"encoding": "inplace",
						"label": "uint256",
						"numberOfBytes": "32"
					}
				}
			},
			"userdoc": {
				"kind": "user",
				"methods": {},
				"version": 1
			}
		}
	}
}