{
	"contracts/Visibility.sol": {
		"Visibility": {
			"abi": [
				{
					"inputs": [],
					"name": "externalF",
					"outputs": [
						{
							"internalType": "uint256",
							"name": "",
							"type": "uint256"
						}
					],
					"stateMutability": "pure",
					"type": "function"
				},
				{
					"inputs": [],
					"name": "publicF",
					"outputs": [
						{
							"internalType": "uint256",
							"name": "",
							"type": "uint256"
						}
					],
					"stateMutability": "pure",
					"type": "function"
				}
			],
			"devdoc": {
				"kind": "dev",
				"methods": {},
				"version": 1
			},
			"evm": {
				"assembly": "    /* \"contracts/Visibility.sol\":126:479  contract Visibility{... */\n  mstore(0x40, 0x80)\n  callvalue\n  dup1\n  iszero\n  tag_1\n  jumpi\n  0x00\n  dup1\n  revert\ntag_1:\n  pop\n  dataSize(sub_0)\n  dup1\n  dataOffset(sub_0)\n  0x00\n  codecopy\n  0x00\n  return\nstop\n\nsub_0: assembly {\n        /* \"contracts/Visibility.sol\":126:479  contract Visibility{... */\n      mstore(0x40, 0x80)\n      callvalue\n      dup1\n      iszero\n      tag_1\n      jumpi\n      0x00\n      dup1\n      revert\n    tag_1:\n      pop\n      jumpi(tag_2, lt(calldatasize, 0x04))\n      shr(0xe0, calldataload(0x00))\n      dup1\n      0x6b4ffb58\n      eq\n      tag_3\n      jumpi\n      dup1\n      0xf5045550\n      eq\n      tag_4\n      jumpi\n    tag_2:\n      0x00\n      dup1\n      revert\n        /* \"contracts/Visibility.sol\":400:476  function externalF() external pure returns (uint){... */\n    tag_3:\n      tag_5\n      tag_6\n      jump\t// in\n    tag_5:\n      mload(0x40)\n      tag_7\n      swap2\n      swap1\n      tag_8\n      jump\t// in\n    tag_7:\n      mload(0x40)\n      dup1\n      swap2\n      sub\n      swap1\n      return\n        /* \"contracts/Visibility.sol\":154:226  function publicF() public pure returns (uint){... */\n    tag_4:\n      tag_9\n      tag_10\n      jump\t// in\n    tag_9:\n      mload(0x40)\n      tag_11\n      swap2\n      swap1\n      tag_8\n      jump\t// in\n    tag_11:\n      mload(0x40)\n      dup1\n      swap2\n      sub\n      swap1\n      return\n        /* \"contracts/Visibility.sol\":400:476  function externalF() external pure returns (uint){... */\n    tag_6:\n        /* \"contracts/Visibility.sol\":444:448  uint */\n      0x00\n        /* \"contracts/Visibility.sol\":467:468  4 */\n      0x04\n        /* \"contracts/Visibility.sol\":460:468  return 4 */\n      swap1\n      pop\n        /* \"contracts/Visibility.sol\":400:476  function externalF() external pure returns (uint){... */\n      swap1\n      jump\t// out\n        /* \"contracts/Visibility.sol\":154:226  function publicF() public pure returns (uint){... */\n    tag_10:\n        /* \"contracts/Visibility.sol\":194:198  uint */\n      0x00\n        /* \"contracts/Visibility.sol\":217:218  1 */\n      0x01\n        /* \"contracts/Visibility.sol\":210:218  return 1 */\n      swap1\n      pop\n        /* \"contracts/Visibility.sol\":154:226  function publicF() public pure returns (uint){... */\n      swap1\n      jump\t// out\n        /* \"#utility.yul\":7:84   */\n    tag_14:\n        /* \"#utility.yul\":44:51   */\n      0x00\n        /* \"#utility.yul\":73:78   */\n      dup2\n        /* \"#utility.yul\":62:78   */\n      swap1\n      pop\n        /* \"#utility.yul\":7:84   */\n      swap2\n      swap1\n      pop\n      jump\t// out\n        /* \"#utility.yul\":90:208   */\n    tag_15:\n        /* \"#utility.yul\":177:201   */\n      tag_19\n        /* \"#utility.yul\":195:200   */\n      dup2\n        /* \"#utility.yul\":177:201   */\n      tag_14\n      jump\t// in\n    tag_19:\n        /* \"#utility.yul\":172:175   */\n      dup3\n        /* \"#utility.yul\":165:202   */\n      mstore\n        /* \"#utility.yul\":90:208   */\n      pop\n      pop\n      jump\t// out\n        /* \"#utility.yul\":214:436   */\n    tag_8:\n        /* \"#utility.yul\":307:311   */\n      0x00\n        /* \"#utility.yul\":345:347   */\n      0x20\n        /* \"#utility.yul\":334:343   */\n      dup3\n        /* \"#utility.yul\":330:348   */\n      add\n        /* \"#utility.yul\":322:348   */\n      swap1\n      pop\n        /* \"#utility.yul\":358:429   */\n      tag_21\n        /* \"#utility.yul\":426:427   */\n      0x00\n        /* \"#utility.yul\":415:424   */\n      dup4\n        /* \"#utility.yul\":411:428   */\n      add\n        /* \"#utility.yul\":402:408   */\n      dup5\n        /* \"#utility.yul\":358:429   */\n      tag_15\n      jump\t// in\n    tag_21:\n        /* \"#utility.yul\":214:436   */\n      swap3\n      swap2\n      pop\n      pop\n      jump\t// out\n\n    auxdata: 0xa2646970667358221220bb6ff76c2695f8c81fb1b87abc9119eff957dcb4b506483a2054c4b6c8b15df964736f6c63430008120033\n}\n",
				"bytecode": {
					"linkReferences": {},
					"object": "608060405234801561001057600080fd5b5060e38061001f6000396000f3fe6080604052348015600f57600080fd5b506004361060325760003560e01c80636b4ffb58146037578063f5045550146051575b600080fd5b603d606b565b604051604891906094565b60405180910390f35b60576074565b604051606291906094565b60405180910390f35b60006004905090565b60006001905090565b6000819050919050565b608e81607d565b82525050565b600060208201905060a760008301846087565b9291505056fea2646970667358221220bb6ff76c2695f8c81fb1b87abc9119eff957dcb4b506483a2054c4b6c8b15df964736f6c63430008120033",
					"opcodes": "PUSH1 0x80 PUSH1 0x40 MSTORE CALLVALUE DUP1 ISZERO PUSH2 0x10 JUMPI PUSH1 0x0 DUP1 REVERT JUMPDEST POP PUSH1 0xE3 DUP1 PUSH2 0x1F PUSH1 0x0 CODECOPY PUSH1 0x0 RETURN INVALID PUSH1 0x80 PUSH1 0x40 MSTORE CALLVALUE DUP1 ISZERO PUSH1 0xF JUMPI PUSH1 0x0 DUP1 REVERT JUMPDEST POP PUSH1 0x4 CALLDATASIZE LT PUSH1 0x32 JUMPI PUSH1 0x0 CALLDATALOAD PUSH1 0xE0 SHR DUP1 PUSH4 0x6B4FFB58 EQ PUSH1 0x37 JUMPI DUP1 PUSH4 0xF5045550 EQ PUSH1 0x51 JUMPI JUMPDEST PUSH1 0x0 DUP1 REVERT JUMPDEST PUSH1 0x3D PUSH1 0x6B JUMP JUMPDEST PUSH1 0x40 MLOAD PUSH1 0x48 SWAP2 SWAP1 PUSH1 0x94 JUMP JUMPDEST PUSH1 0x40 MLOAD DUP1 SWAP2 SUB SWAP1 RETURN JUMPDEST PUSH1 0x57 PUSH1 0x74 JUMP JUMPDEST PUSH1 0x40 MLOAD PUSH1 0x62 SWAP2 SWAP1 PUSH1 0x94 JUMP JUMPDEST PUSH1 0x40 MLOAD DUP1 SWAP2 SUB SWAP1 RETURN JUMPDEST PUSH1 0x0 PUSH1 0x4 SWAP1 POP SWAP1 JUMP JUMPDEST PUSH1 0x0 PUSH1 0x1 SWAP1 POP SWAP1 JUMP JUMPDEST PUSH1 0x0 DUP2 SWAP1 POP SWAP2 SWAP1 POP JUMP JUMPDEST PUSH1 0x8E DUP2 PUSH1 0x7D JUMP JUMPDEST DUP3 MSTORE POP POP JUMP JUMPDEST PUSH1 0x0 PUSH1 0x20 DUP3 ADD SWAP1 POP PUSH1 0xA7 PUSH1 0x0 DUP4 ADD DUP5 PUSH1 0x87 JUMP JUMPDEST SWAP3 SWAP2 POP POP JUMP INVALID LOG2 PUSH5 0x6970667358 0x22 SLT KECCAK256 0xBB PUSH16 0xF76C2695F8C81FB1B87ABC9119EFF957 0xDC 0xB4 0xB5 MOD BASEFEE GASPRICE KECCAK256 SLOAD 0xC4 0xB6 0xC8 0xB1 0x5D 0xF9 PUSH5 0x736F6C6343 STOP ADDMOD SLT STOP CALLER "
				},
				"gasEstimates": {
					"creation": {
						"codeDepositCost": "45400",
						"executionCost": "99",
						"totalCost": "45499"
					},
					"external": {
						"externalF()": "315",
						"publicF()": "337"
					},
					"internal": {
						"internalF()": "infinite",
						"privateF()": "infinite"
					}
				},
				"methodIdentifiers": {
					"externalF()": "6b4ffb58",
					"publicF()": "f5045550"
				}
			},
			"storageLayout": {
				"storage": [],
				"types": null
			},
			"userdoc": {
				"kind": "user",
				"methods": {},
				"version": 1
			}
		}
	}
}