{
	"data": {
		"bytecode": {
			"linkReferences": {},
			"object": "608060405260405180608001604052806040518060400160405280600881526020017f4e657744656c686900000000000000000000000000000000000000000000000081525081526020016040518060400160405280600781526020017f4368656e6e61690000000000000000000000000000000000000000000000000081525081526020016040518060400160405280600981526020017f42616e67616c6f7265000000000000000000000000000000000000000000000081525081526020016040518060400160405280600681526020017f4d756d626169000000000000000000000000000000000000000000000000000081525081525060029060046200010b9291906200022c565b5034801562000118575f80fd5b50600a5f819055506040518060400160405280600881526020017f457468657265756d000000000000000000000000000000000000000000000000815250600190816200016691906200056a565b507f626300000000000000000000000000000000000000000000000000000000000060075f6101000a81548161ffff021916908360f01c02179055507f78797a0000000000000000000000000000000000000000000000000000000000600760026101000a81548162ffffff021916908360e81c02179055506040518060400160405280601781526020017f426c6f636b20436861696e20646576656c6f706d656e7400000000000000000081525060089081620002259190620006b0565b5062000794565b82600481019282156200026c579160200282015b828111156200026b5782518290816200025a91906200056a565b509160200191906001019062000240565b5b5090506200027b91906200027f565b5090565b5b80821115620002a2575f8181620002989190620002a6565b5060010162000280565b5090565b508054620002b4906200036a565b5f825580601f10620002c75750620002e6565b601f0160209004905f5260205f2090810190620002e59190620002e9565b5b50565b5b8082111562000302575f815f905550600101620002ea565b5090565b5f81519050919050565b7f4e487b71000000000000000000000000000000000000000000000000000000005f52604160045260245ffd5b7f4e487b71000000000000000000000000000000000000000000000000000000005f52602260045260245ffd5b5f60028204905060018216806200038257607f821691505b6020821081036200039857620003976200033d565b5b50919050565b5f819050815f5260205f209050919050565b5f6020601f8301049050919050565b5f82821b905092915050565b5f60088302620003fc7fffffffffffffffffffffffffffffffffffffffffffffffffffffffffffffffff82620003bf565b620004088683620003bf565b95508019841693508086168417925050509392505050565b5f819050919050565b5f819050919050565b5f620004526200044c620004468462000420565b62000429565b62000420565b9050919050565b5f819050919050565b6200046d8362000432565b620004856200047c8262000459565b848454620003cb565b825550505050565b5f90565b6200049b6200048d565b620004a881848462000462565b505050565b5b81811015620004cf57620004c35f8262000491565b600181019050620004ae565b5050565b601f8211156200051e57620004e8816200039e565b620004f384620003b0565b8101602085101562000503578190505b6200051b6200051285620003b0565b830182620004ad565b50505b505050565b5f82821c905092915050565b5f620005405f198460080262000523565b1980831691505092915050565b5f6200055a83836200052f565b9150826002028217905092915050565b620005758262000306565b67ffffffffffffffff81111562000591576200059062000310565b5b6200059d82546200036a565b620005aa828285620004d3565b5f60209050601f831160018114620005e0575f8415620005cb578287015190505b620005d785826200054d565b86555062000646565b601f198416620005f0866200039e565b5f5b828110156200061957848901518255600182019150602085019450602081019050620005f2565b8683101562000639578489015162000635601f8916826200052f565b8355505b6001600288020188555050505b505050505050565b5f819050815f5260205f209050919050565b601f821115620006ab5762000675816200064e565b6200068084620003b0565b8101602085101562000690578190505b620006a86200069f85620003b0565b830182620004ad565b50505b505050565b620006bb8262000306565b67ffffffffffffffff811115620006d757620006d662000310565b5b620006e382546200036a565b620006f082828562000660565b5f60209050601f83116001811462000726575f841562000711578287015190505b6200071d85826200054d565b8655506200078c565b601f19841662000736866200064e565b5f5b828110156200075f5784890151825560018201915060208501945060208101905062000738565b868310156200077f57848901516200077b601f8916826200052f565b8355505b6001600288020188555050505b505050505050565b610f2780620007a25f395ff3fe608060405234801561000f575f80fd5b50600436106100e8575f3560e01c8063437648041161008a5780636a51b918116100645780636a51b91814610226578063d8bb7b7414610256578063e1d0ba6f14610274578063e9b619091461027e576100e8565b806343764804146101cc5780634df7e3d0146101ea578063620fe10014610208576100e8565b80631d8f7892116100c65780631d8f78921461016a57806324a297a614610188578063262a9dff146101925780632a34ede1146101b0576100e8565b8063017a9105146100ec5780630add6ef21461011c5780631bb77b191461013a575b5f80fd5b61010660048036038101906101019190610785565b61029c565b604051610113919061083a565b60405180910390f35b610124610342565b6040516101319190610894565b60405180910390f35b610154600480360381019061014f9190610785565b610354565b60405161016191906108e7565b60405180910390f35b6101726103bc565b60405161017f919061083a565b60405180910390f35b610190610413565b005b61019a6104ce565b6040516101a7919061090f565b60405180910390f35b6101ca60048036038101906101c59190610a54565b6104d3565b005b6101d4610508565b6040516101e1919061083a565b60405180910390f35b6101f261055f565b6040516101ff9190610aed565b60405180910390f35b6102106105eb565b60405161021d919061090f565b60405180910390f35b610240600480360381019061023b9190610785565b6105f3565b60405161024d919061083a565b60405180910390f35b61025e610692565b60405161026b919061090f565b60405180910390f35b61027c6106a7565b005b6102866106d6565b6040516102939190610b47565b60405180910390f35b600681815481106102ab575f80fd5b905f5260205f20015f9150905080546102c390610b8d565b80601f01602080910402602001604051908101604052809291908181526020018280546102ef90610b8d565b801561033a5780601f106103115761010080835404028352916020019161033a565b820191905f5260205f20905b81548152906001019060200180831161031d57829003601f168201915b505050505081565b60075f9054906101000a900460f01b81565b5f600882815461036390610b8d565b811061037257610371610bbd565b5b81546001161561038f57905f5260205f2090602091828204019190065b9054901a7f0100000000000000000000000000000000000000000000000000000000000000029050919050565b60605f6040518060400160405280600381526020017f4a616e000000000000000000000000000000000000000000000000000000000081525090505f60649050600a816104099190610c17565b9050819250505090565b60088080548061042290610b8d565b80601f810361043f57835f5260205f2060ff1984168155603f9350505b5060028201835560018101925050506001900381546001161561046f57905f5260205f2090602091828204019190065b7f610000000000000000000000000000000000000000000000000000000000000090919091601f036101000a81548160ff021916907f010000000000000000000000000000000000000000000000000000000000000084040217905550565b5f5481565b600681908060018154018082558091505060019003905f5260205f20015f9091909190915090816105049190610df5565b5050565b60605f6040518060400160405280600381526020017f4a616e000000000000000000000000000000000000000000000000000000000081525090505f606490505f54816105559190610c17565b9050819250505090565b6008805461056c90610b8d565b80601f016020809104026020016040519081016040528092919081815260200182805461059890610b8d565b80156105e35780601f106105ba576101008083540402835291602001916105e3565b820191905f5260205f20905b8154815290600101906020018083116105c657829003601f168201915b505050505081565b5f6004905090565b60028160048110610602575f80fd5b015f91509050805461061390610b8d565b80601f016020809104026020016040519081016040528092919081815260200182805461063f90610b8d565b801561068a5780601f106106615761010080835404028352916020019161068a565b820191905f5260205f20905b81548152906001019060200180831161066d57829003601f168201915b505050505081565b5f600880546106a090610b8d565b9050905090565b60068054806106b9576106b8610ec4565b5b600190038181905f5260205f20015f6106d291906106e9565b9055565b600760029054906101000a900460e81b81565b5080546106f590610b8d565b5f825580601f106107065750610723565b601f0160209004905f5260205f20908101906107229190610726565b5b50565b5b8082111561073d575f815f905550600101610727565b5090565b5f604051905090565b5f80fd5b5f80fd5b5f819050919050565b61076481610752565b811461076e575f80fd5b50565b5f8135905061077f8161075b565b92915050565b5f6020828403121561079a5761079961074a565b5b5f6107a784828501610771565b91505092915050565b5f81519050919050565b5f82825260208201905092915050565b5f5b838110156107e75780820151818401526020810190506107cc565b5f8484015250505050565b5f601f19601f8301169050919050565b5f61080c826107b0565b61081681856107ba565b93506108268185602086016107ca565b61082f816107f2565b840191505092915050565b5f6020820190508181035f8301526108528184610802565b905092915050565b5f7fffff00000000000000000000000000000000000000000000000000000000000082169050919050565b61088e8161085a565b82525050565b5f6020820190506108a75f830184610885565b92915050565b5f7fff0000000000000000000000000000000000000000000000000000000000000082169050919050565b6108e1816108ad565b82525050565b5f6020820190506108fa5f8301846108d8565b92915050565b61090981610752565b82525050565b5f6020820190506109225f830184610900565b92915050565b5f80fd5b5f80fd5b7f4e487b71000000000000000000000000000000000000000000000000000000005f52604160045260245ffd5b610966826107f2565b810181811067ffffffffffffffff8211171561098557610984610930565b5b80604052505050565b5f610997610741565b90506109a3828261095d565b919050565b5f67ffffffffffffffff8211156109c2576109c1610930565b5b6109cb826107f2565b9050602081019050919050565b828183375f83830152505050565b5f6109f86109f3846109a8565b61098e565b905082815260208101848484011115610a1457610a1361092c565b5b610a1f8482856109d8565b509392505050565b5f82601f830112610a3b57610a3a610928565b5b8135610a4b8482602086016109e6565b91505092915050565b5f60208284031215610a6957610a6861074a565b5b5f82013567ffffffffffffffff811115610a8657610a8561074e565b5b610a9284828501610a27565b91505092915050565b5f81519050919050565b5f82825260208201905092915050565b5f610abf82610a9b565b610ac98185610aa5565b9350610ad98185602086016107ca565b610ae2816107f2565b840191505092915050565b5f6020820190508181035f830152610b058184610ab5565b905092915050565b5f7fffffff000000000000000000000000000000000000000000000000000000000082169050919050565b610b4181610b0d565b82525050565b5f602082019050610b5a5f830184610b38565b92915050565b7f4e487b71000000000000000000000000000000000000000000000000000000005f52602260045260245ffd5b5f6002820490506001821680610ba457607f821691505b602082108103610bb757610bb6610b60565b5b50919050565b7f4e487b71000000000000000000000000000000000000000000000000000000005f52603260045260245ffd5b7f4e487b71000000000000000000000000000000000000000000000000000000005f52601160045260245ffd5b5f610c2182610752565b9150610c2c83610752565b9250828202610c3a81610752565b91508282048414831517610c5157610c50610bea565b5b5092915050565b5f819050815f5260205f209050919050565b5f6020601f8301049050919050565b5f82821b905092915050565b5f60088302610cb47fffffffffffffffffffffffffffffffffffffffffffffffffffffffffffffffff82610c79565b610cbe8683610c79565b95508019841693508086168417925050509392505050565b5f819050919050565b5f610cf9610cf4610cef84610752565b610cd6565b610752565b9050919050565b5f819050919050565b610d1283610cdf565b610d26610d1e82610d00565b848454610c85565b825550505050565b5f90565b610d3a610d2e565b610d45818484610d09565b505050565b5b81811015610d6857610d5d5f82610d32565b600181019050610d4b565b5050565b601f821115610dad57610d7e81610c58565b610d8784610c6a565b81016020851015610d96578190505b610daa610da285610c6a565b830182610d4a565b50505b505050565b5f82821c905092915050565b5f610dcd5f1984600802610db2565b1980831691505092915050565b5f610de58383610dbe565b9150826002028217905092915050565b610dfe826107b0565b67ffffffffffffffff811115610e1757610e16610930565b5b610e218254610b8d565b610e2c828285610d6c565b5f60209050601f831160018114610e5d575f8415610e4b578287015190505b610e558582610dda565b865550610ebc565b601f198416610e6b86610c58565b5f5b82811015610e9257848901518255600182019150602085019450602081019050610e6d565b86831015610eaf5784890151610eab601f891682610dbe565b8355505b6001600288020188555050505b505050505050565b7f4e487b71000000000000000000000000000000000000000000000000000000005f52603160045260245ffdfea26469706673582212206f56b4b0cc1d00d4770ff25baa98dd491c199d178b90922d19ace08ca480184564736f6c63430008150033",
			"opcodes": "PUSH1 0x80 PUSH1 0x40 MSTORE PUSH1 0x40 MLOAD DUP1 PUSH1 0x80 ADD PUSH1 0x40 MSTORE DUP1 PUSH1 0x40 MLOAD DUP1 PUSH1 0x40 ADD PUSH1 0x40 MSTORE DUP1 PUSH1 0x8 DUP2 MSTORE PUSH1 0x20 ADD PUSH32 0x4E657744656C6869000000000000000000000000000000000000000000000000 DUP2 MSTORE POP DUP2 MSTORE PUSH1 0x20 ADD PUSH1 0x40 MLOAD DUP1 PUSH1 0x40 ADD PUSH1 0x40 MSTORE DUP1 PUSH1 0x7 DUP2 MSTORE PUSH1 0x20 ADD PUSH32 0x4368656E6E616900000000000000000000000000000000000000000000000000 DUP2 MSTORE POP DUP2 MSTORE PUSH1 0x20 ADD PUSH1 0x40 MLOAD DUP1 PUSH1 0x40 ADD PUSH1 0x40 MSTORE DUP1 PUSH1 0x9 DUP2 MSTORE PUSH1 0x20 ADD PUSH32 0x42616E67616C6F72650000000000000000000000000000000000000000000000 DUP2 MSTORE POP DUP2 MSTORE PUSH1 0x20 ADD PUSH1 0x40 MLOAD DUP1 PUSH1 0x40 ADD PUSH1 0x40 MSTORE DUP1 PUSH1 0x6 DUP2 MSTORE PUSH1 0x20 ADD PUSH32 0x4D756D6261690000000000000000000000000000000000000000000000000000 DUP2 MSTORE POP DUP2 MSTORE POP PUSH1 0x2 SWAP1 PUSH1 0x4 PUSH3 0x10B SWAP3 SWAP2 SWAP1 PUSH3 0x22C JUMP JUMPDEST POP CALLVALUE DUP1 ISZERO PUSH3 0x118 JUMPI PUSH0 DUP1 REVERT JUMPDEST POP PUSH1 0xA PUSH0 DUP2 SWAP1 SSTORE POP PUSH1 0x40 MLOAD DUP1 PUSH1 0x40 ADD PUSH1 0x40 MSTORE DUP1 PUSH1 0x8 DUP2 MSTORE PUSH1 0x20 ADD PUSH32 0x457468657265756D000000000000000000000000000000000000000000000000 DUP2 MSTORE POP PUSH1 0x1 SWAP1 DUP2 PUSH3 0x166 SWAP2 SWAP1 PUSH3 0x56A JUMP JUMPDEST POP PUSH32 0x6263000000000000000000000000000000000000000000000000000000000000 PUSH1 0x7 PUSH0 PUSH2 0x100 EXP DUP2 SLOAD DUP2 PUSH2 0xFFFF MUL NOT AND SWAP1 DUP4 PUSH1 0xF0 SHR MUL OR SWAP1 SSTORE POP PUSH32 0x78797A0000000000000000000000000000000000000000000000000000000000 PUSH1 0x7 PUSH1 0x2 PUSH2 0x100 EXP DUP2 SLOAD DUP2 PUSH3 0xFFFFFF MUL NOT AND SWAP1 DUP4 PUSH1 0xE8 SHR MUL OR SWAP1 SSTORE POP PUSH1 0x40 MLOAD DUP1 PUSH1 0x40 ADD PUSH1 0x40 MSTORE DUP1 PUSH1 0x17 DUP2 MSTORE PUSH1 0x20 ADD PUSH32 0x426C6F636B20436861696E20646576656C6F706D656E74000000000000000000 DUP2 MSTORE POP PUSH1 0x8 SWAP1 DUP2 PUSH3 0x225 SWAP2 SWAP1 PUSH3 0x6B0 JUMP JUMPDEST POP PUSH3 0x794 JUMP JUMPDEST DUP3 PUSH1 0x4 DUP2 ADD SWAP3 DUP3 ISZERO PUSH3 0x26C JUMPI SWAP2 PUSH1 0x20 MUL DUP3 ADD JUMPDEST DUP3 DUP2 GT ISZERO PUSH3 0x26B JUMPI DUP3 MLOAD DUP3 SWAP1 DUP2 PUSH3 0x25A SWAP2 SWAP1 PUSH3 0x56A JUMP JUMPDEST POP SWAP2 PUSH1 0x20 ADD SWAP2 SWAP1 PUSH1 0x1 ADD SWAP1 PUSH3 0x240 JUMP JUMPDEST JUMPDEST POP SWAP1 POP PUSH3 0x27B SWAP2 SWAP1 PUSH3 0x27F JUMP JUMPDEST POP SWAP1 JUMP JUMPDEST JUMPDEST DUP1 DUP3 GT ISZERO PUSH3 0x2A2 JUMPI PUSH0 DUP2 DUP2 PUSH3 0x298 SWAP2 SWAP1 PUSH3 0x2A6 JUMP JUMPDEST POP PUSH1 0x1 ADD PUSH3 0x280 JUMP JUMPDEST POP SWAP1 JUMP JUMPDEST POP DUP1 SLOAD PUSH3 0x2B4 SWAP1 PUSH3 0x36A JUMP JUMPDEST PUSH0 DUP3 SSTORE DUP1 PUSH1 0x1F LT PUSH3 0x2C7 JUMPI POP PUSH3 0x2E6 JUMP JUMPDEST PUSH1 0x1F ADD PUSH1 0x20 SWAP1 DIV SWAP1 PUSH0 MSTORE PUSH1 0x20 PUSH0 KECCAK256 SWAP1 DUP2 ADD SWAP1 PUSH3 0x2E5 SWAP2 SWAP1 PUSH3 0x2E9 JUMP JUMPDEST JUMPDEST POP JUMP JUMPDEST JUMPDEST DUP1 DUP3 GT ISZERO PUSH3 0x302 JUMPI PUSH0 DUP2 PUSH0 SWAP1 SSTORE POP PUSH1 0x1 ADD PUSH3 0x2EA JUMP JUMPDEST POP SWAP1 JUMP JUMPDEST PUSH0 DUP2 MLOAD SWAP1 POP SWAP2 SWAP1 POP JUMP JUMPDEST PUSH32 0x4E487B7100000000000000000000000000000000000000000000000000000000 PUSH0 MSTORE PUSH1 0x41 PUSH1 0x4 MSTORE PUSH1 0x24 PUSH0 REVERT JUMPDEST PUSH32 0x4E487B7100000000000000000000000000000000000000000000000000000000 PUSH0 MSTORE PUSH1 0x22 PUSH1 0x4 MSTORE PUSH1 0x24 PUSH0 REVERT JUMPDEST PUSH0 PUSH1 0x2 DUP3 DIV SWAP1 POP PUSH1 0x1 DUP3 AND DUP1 PUSH3 0x382 JUMPI PUSH1 0x7F DUP3 AND SWAP2 POP JUMPDEST PUSH1 0x20 DUP3 LT DUP2 SUB PUSH3 0x398 JUMPI PUSH3 0x397 PUSH3 0x33D JUMP JUMPDEST JUMPDEST POP SWAP2 SWAP1 POP JUMP JUMPDEST PUSH0 DUP2 SWAP1 POP DUP2 PUSH0 MSTORE PUSH1 0x20 PUSH0 KECCAK256 SWAP1 POP SWAP2 SWAP1 POP JUMP JUMPDEST PUSH0 PUSH1 0x20 PUSH1 0x1F DUP4 ADD DIV SWAP1 POP SWAP2 SWAP1 POP JUMP JUMPDEST PUSH0 DUP3 DUP3 SHL SWAP1 POP SWAP3 SWAP2 POP POP JUMP JUMPDEST PUSH0 PUSH1 0x8 DUP4 MUL PUSH3 0x3FC PUSH32 0xFFFFFFFFFFFFFFFFFFFFFFFFFFFFFFFFFFFFFFFFFFFFFFFFFFFFFFFFFFFFFFFF DUP3 PUSH3 0x3BF JUMP JUMPDEST PUSH3 0x408 DUP7 DUP4 PUSH3 0x3BF JUMP JUMPDEST SWAP6 POP DUP1 NOT DUP5 AND SWAP4 POP DUP1 DUP7 AND DUP5 OR SWAP3 POP POP POP SWAP4 SWAP3 POP POP POP JUMP JUMPDEST PUSH0 DUP2 SWAP1 POP SWAP2 SWAP1 POP JUMP JUMPDEST PUSH0 DUP2 SWAP1 POP SWAP2 SWAP1 POP JUMP JUMPDEST PUSH0 PUSH3 0x452 PUSH3 0x44C PUSH3 0x446 DUP5 PUSH3 0x420 JUMP JUMPDEST PUSH3 0x429 JUMP JUMPDEST PUSH3 0x420 JUMP JUMPDEST SWAP1 POP SWAP2 SWAP1 POP JUMP JUMPDEST PUSH0 DUP2 SWAP1 POP SWAP2 SWAP1 POP JUMP JUMPDEST PUSH3 0x46D DUP4 PUSH3 0x432 JUMP JUMPDEST PUSH3 0x485 PUSH3 0x47C DUP3 PUSH3 0x459 JUMP JUMPDEST DUP5 DUP5 SLOAD PUSH3 0x3CB JUMP JUMPDEST DUP3 SSTORE POP POP POP POP JUMP JUMPDEST PUSH0 SWAP1 JUMP JUMPDEST PUSH3 0x49B PUSH3 0x48D JUMP JUMPDEST PUSH3 0x4A8 DUP2 DUP5 DUP5 PUSH3 0x462 JUMP JUMPDEST POP POP POP JUMP JUMPDEST JUMPDEST DUP2 DUP2 LT ISZERO PUSH3 0x4CF JUMPI PUSH3 0x4C3 PUSH0 DUP3 PUSH3 0x491 JUMP JUMPDEST PUSH1 0x1 DUP2 ADD SWAP1 POP PUSH3 0x4AE JUMP JUMPDEST POP POP JUMP JUMPDEST PUSH1 0x1F DUP3 GT ISZERO PUSH3 0x51E JUMPI PUSH3 0x4E8 DUP2 PUSH3 0x39E JUMP JUMPDEST PUSH3 0x4F3 DUP5 PUSH3 0x3B0 JUMP JUMPDEST DUP2 ADD PUSH1 0x20 DUP6 LT ISZERO PUSH3 0x503 JUMPI DUP2 SWAP1 POP JUMPDEST PUSH3 0x51B PUSH3 0x512 DUP6 PUSH3 0x3B0 JUMP JUMPDEST DUP4 ADD DUP3 PUSH3 0x4AD JUMP JUMPDEST POP POP JUMPDEST POP POP POP JUMP JUMPDEST PUSH0 DUP3 DUP3 SHR SWAP1 POP SWAP3 SWAP2 POP POP JUMP JUMPDEST PUSH0 PUSH3 0x540 PUSH0 NOT DUP5 PUSH1 0x8 MUL PUSH3 0x523 JUMP JUMPDEST NOT DUP1 DUP4 AND SWAP2 POP POP SWAP3 SWAP2 POP POP JUMP JUMPDEST PUSH0 PUSH3 0x55A DUP4 DUP4 PUSH3 0x52F JUMP JUMPDEST SWAP2 POP DUP3 PUSH1 0x2 MUL DUP3 OR SWAP1 POP SWAP3 SWAP2 POP POP JUMP JUMPDEST PUSH3 0x575 DUP3 PUSH3 0x306 JUMP JUMPDEST PUSH8 0xFFFFFFFFFFFFFFFF DUP2 GT ISZERO PUSH3 0x591 JUMPI PUSH3 0x590 PUSH3 0x310 JUMP JUMPDEST JUMPDEST PUSH3 0x59D DUP3 SLOAD PUSH3 0x36A JUMP JUMPDEST PUSH3 0x5AA DUP3 DUP3 DUP6 PUSH3 0x4D3 JUMP JUMPDEST PUSH0 PUSH1 0x20 SWAP1 POP PUSH1 0x1F DUP4 GT PUSH1 0x1 DUP2 EQ PUSH3 0x5E0 JUMPI PUSH0 DUP5 ISZERO PUSH3 0x5CB JUMPI DUP3 DUP8 ADD MLOAD SWAP1 POP JUMPDEST PUSH3 0x5D7 DUP6 DUP3 PUSH3 0x54D JUMP JUMPDEST DUP7 SSTORE POP PUSH3 0x646 JUMP JUMPDEST PUSH1 0x1F NOT DUP5 AND PUSH3 0x5F0 DUP7 PUSH3 0x39E JUMP JUMPDEST PUSH0 JUMPDEST DUP3 DUP2 LT ISZERO PUSH3 0x619 JUMPI DUP5 DUP10 ADD MLOAD DUP3 SSTORE PUSH1 0x1 DUP3 ADD SWAP2 POP PUSH1 0x20 DUP6 ADD SWAP5 POP PUSH1 0x20 DUP2 ADD SWAP1 POP PUSH3 0x5F2 JUMP JUMPDEST DUP7 DUP4 LT ISZERO PUSH3 0x639 JUMPI DUP5 DUP10 ADD MLOAD PUSH3 0x635 PUSH1 0x1F DUP10 AND DUP3 PUSH3 0x52F JUMP JUMPDEST DUP4 SSTORE POP JUMPDEST PUSH1 0x1 PUSH1 0x2 DUP9 MUL ADD DUP9 SSTORE POP POP POP JUMPDEST POP POP POP POP POP POP JUMP JUMPDEST PUSH0 DUP2 SWAP1 POP DUP2 PUSH0 MSTORE PUSH1 0x20 PUSH0 KECCAK256 SWAP1 POP SWAP2 SWAP1 POP JUMP JUMPDEST PUSH1 0x1F DUP3 GT ISZERO PUSH3 0x6AB JUMPI PUSH3 0x675 DUP2 PUSH3 0x64E JUMP JUMPDEST PUSH3 0x680 DUP5 PUSH3 0x3B0 JUMP JUMPDEST DUP2 ADD PUSH1 0x20 DUP6 LT ISZERO PUSH3 0x690 JUMPI DUP2 SWAP1 POP JUMPDEST PUSH3 0x6A8 PUSH3 0x69F DUP6 PUSH3 0x3B0 JUMP JUMPDEST DUP4 ADD DUP3 PUSH3 0x4AD JUMP JUMPDEST POP POP JUMPDEST POP POP POP JUMP JUMPDEST PUSH3 0x6BB DUP3 PUSH3 0x306 JUMP JUMPDEST PUSH8 0xFFFFFFFFFFFFFFFF DUP2 GT ISZERO PUSH3 0x6D7 JUMPI PUSH3 0x6D6 PUSH3 0x310 JUMP JUMPDEST JUMPDEST PUSH3 0x6E3 DUP3 SLOAD PUSH3 0x36A JUMP JUMPDEST PUSH3 0x6F0 DUP3 DUP3 DUP6 PUSH3 0x660 JUMP JUMPDEST PUSH0 PUSH1 0x20 SWAP1 POP PUSH1 0x1F DUP4 GT PUSH1 0x1 DUP2 EQ PUSH3 0x726 JUMPI PUSH0 DUP5 ISZERO PUSH3 0x711 JUMPI DUP3 DUP8 ADD MLOAD SWAP1 POP JUMPDEST PUSH3 0x71D DUP6 DUP3 PUSH3 0x54D JUMP JUMPDEST DUP7 SSTORE POP PUSH3 0x78C JUMP JUMPDEST PUSH1 0x1F NOT DUP5 AND PUSH3 0x736 DUP7 PUSH3 0x64E JUMP JUMPDEST PUSH0 JUMPDEST DUP3 DUP2 LT ISZERO PUSH3 0x75F JUMPI DUP5 DUP10 ADD MLOAD DUP3 SSTORE PUSH1 0x1 DUP3 ADD SWAP2 POP PUSH1 0x20 DUP6 ADD SWAP5 POP PUSH1 0x20 DUP2 ADD SWAP1 POP PUSH3 0x738 JUMP JUMPDEST DUP7 DUP4 LT ISZERO PUSH3 0x77F JUMPI DUP5 DUP10 ADD MLOAD PUSH3 0x77B PUSH1 0x1F DUP10 AND DUP3 PUSH3 0x52F JUMP JUMPDEST DUP4 SSTORE POP JUMPDEST PUSH1 0x1 PUSH1 0x2 DUP9 MUL ADD DUP9 SSTORE POP POP POP JUMPDEST POP POP POP POP POP POP JUMP JUMPDEST PUSH2 0xF27 DUP1 PUSH3 0x7A2 PUSH0 CODECOPY PUSH0 RETURN INVALID PUSH1 0x80 PUSH1 0x40 MSTORE CALLVALUE DUP1 ISZERO PUSH2 0xF JUMPI PUSH0 DUP1 REVERT JUMPDEST POP PUSH1 0x4 CALLDATASIZE LT PUSH2 0xE8 JUMPI PUSH0 CALLDATALOAD PUSH1 0xE0 SHR DUP1 PUSH4 0x43764804 GT PUSH2 0x8A JUMPI DUP1 PUSH4 0x6A51B918 GT PUSH2 0x64 JUMPI DUP1 PUSH4 0x6A51B918 EQ PUSH2 0x226 JUMPI DUP1 PUSH4 0xD8BB7B74 EQ PUSH2 0x256 JUMPI DUP1 PUSH4 0xE1D0BA6F EQ PUSH2 0x274 JUMPI DUP1 PUSH4 0xE9B61909 EQ PUSH2 0x27E JUMPI PUSH2 0xE8 JUMP JUMPDEST DUP1 PUSH4 0x43764804 EQ PUSH2 0x1CC JUMPI DUP1 PUSH4 0x4DF7E3D0 EQ PUSH2 0x1EA JUMPI DUP1 PUSH4 0x620FE100 EQ PUSH2 0x208 JUMPI PUSH2 0xE8 JUMP JUMPDEST DUP1 PUSH4 0x1D8F7892 GT PUSH2 0xC6 JUMPI DUP1 PUSH4 0x1D8F7892 EQ PUSH2 0x16A JUMPI DUP1 PUSH4 0x24A297A6 EQ PUSH2 0x188 JUMPI DUP1 PUSH4 0x262A9DFF EQ PUSH2 0x192 JUMPI DUP1 PUSH4 0x2A34EDE1 EQ PUSH2 0x1B0 JUMPI PUSH2 0xE8 JUMP JUMPDEST DUP1 PUSH4 0x17A9105 EQ PUSH2 0xEC JUMPI DUP1 PUSH4 0xADD6EF2 EQ PUSH2 0x11C JUMPI DUP1 PUSH4 0x1BB77B19 EQ PUSH2 0x13A JUMPI JUMPDEST PUSH0 DUP1 REVERT JUMPDEST PUSH2 0x106 PUSH1 0x4 DUP1 CALLDATASIZE SUB DUP2 ADD SWAP1 PUSH2 0x101 SWAP2 SWAP1 PUSH2 0x785 JUMP JUMPDEST PUSH2 0x29C JUMP JUMPDEST PUSH1 0x40 MLOAD PUSH2 0x113 SWAP2 SWAP1 PUSH2 0x83A JUMP JUMPDEST PUSH1 0x40 MLOAD DUP1 SWAP2 SUB SWAP1 RETURN JUMPDEST PUSH2 0x124 PUSH2 0x342 JUMP JUMPDEST PUSH1 0x40 MLOAD PUSH2 0x131 SWAP2 SWAP1 PUSH2 0x894 JUMP JUMPDEST PUSH1 0x40 MLOAD DUP1 SWAP2 SUB SWAP1 RETURN JUMPDEST PUSH2 0x154 PUSH1 0x4 DUP1 CALLDATASIZE SUB DUP2 ADD SWAP1 PUSH2 0x14F SWAP2 SWAP1 PUSH2 0x785 JUMP JUMPDEST PUSH2 0x354 JUMP JUMPDEST PUSH1 0x40 MLOAD PUSH2 0x161 SWAP2 SWAP1 PUSH2 0x8E7 JUMP JUMPDEST PUSH1 0x40 MLOAD DUP1 SWAP2 SUB SWAP1 RETURN JUMPDEST PUSH2 0x172 PUSH2 0x3BC JUMP JUMPDEST PUSH1 0x40 MLOAD PUSH2 0x17F SWAP2 SWAP1 PUSH2 0x83A JUMP JUMPDEST PUSH1 0x40 MLOAD DUP1 SWAP2 SUB SWAP1 RETURN JUMPDEST PUSH2 0x190 PUSH2 0x413 JUMP JUMPDEST STOP JUMPDEST PUSH2 0x19A PUSH2 0x4CE JUMP JUMPDEST PUSH1 0x40 MLOAD PUSH2 0x1A7 SWAP2 SWAP1 PUSH2 0x90F JUMP JUMPDEST PUSH1 0x40 MLOAD DUP1 SWAP2 SUB SWAP1 RETURN JUMPDEST PUSH2 0x1CA PUSH1 0x4 DUP1 CALLDATASIZE SUB DUP2 ADD SWAP1 PUSH2 0x1C5 SWAP2 SWAP1 PUSH2 0xA54 JUMP JUMPDEST PUSH2 0x4D3 JUMP JUMPDEST STOP JUMPDEST PUSH2 0x1D4 PUSH2 0x508 JUMP JUMPDEST PUSH1 0x40 MLOAD PUSH2 0x1E1 SWAP2 SWAP1 PUSH2 0x83A JUMP JUMPDEST PUSH1 0x40 MLOAD DUP1 SWAP2 SUB SWAP1 RETURN JUMPDEST PUSH2 0x1F2 PUSH2 0x55F JUMP JUMPDEST PUSH1 0x40 MLOAD PUSH2 0x1FF SWAP2 SWAP1 PUSH2 0xAED JUMP JUMPDEST PUSH1 0x40 MLOAD DUP1 SWAP2 SUB SWAP1 RETURN JUMPDEST PUSH2 0x210 PUSH2 0x5EB JUMP JUMPDEST PUSH1 0x40 MLOAD PUSH2 0x21D SWAP2 SWAP1 PUSH2 0x90F JUMP JUMPDEST PUSH1 0x40 MLOAD DUP1 SWAP2 SUB SWAP1 RETURN JUMPDEST PUSH2 0x240 PUSH1 0x4 DUP1 CALLDATASIZE SUB DUP2 ADD SWAP1 PUSH2 0x23B SWAP2 SWAP1 PUSH2 0x785 JUMP JUMPDEST PUSH2 0x5F3 JUMP JUMPDEST PUSH1 0x40 MLOAD PUSH2 0x24D SWAP2 SWAP1 PUSH2 0x83A JUMP JUMPDEST PUSH1 0x40 MLOAD DUP1 SWAP2 SUB SWAP1 RETURN JUMPDEST PUSH2 0x25E PUSH2 0x692 JUMP JUMPDEST PUSH1 0x40 MLOAD PUSH2 0x26B SWAP2 SWAP1 PUSH2 0x90F JUMP JUMPDEST PUSH1 0x40 MLOAD DUP1 SWAP2 SUB SWAP1 RETURN JUMPDEST PUSH2 0x27C PUSH2 0x6A7 JUMP JUMPDEST STOP JUMPDEST PUSH2 0x286 PUSH2 0x6D6 JUMP JUMPDEST PUSH1 0x40 MLOAD PUSH2 0x293 SWAP2 SWAP1 PUSH2 0xB47 JUMP JUMPDEST PUSH1 0x40 MLOAD DUP1 SWAP2 SUB SWAP1 RETURN JUMPDEST PUSH1 0x6 DUP2 DUP2 SLOAD DUP2 LT PUSH2 0x2AB JUMPI PUSH0 DUP1 REVERT JUMPDEST SWAP1 PUSH0 MSTORE PUSH1 0x20 PUSH0 KECCAK256 ADD PUSH0 SWAP2 POP SWAP1 POP DUP1 SLOAD PUSH2 0x2C3 SWAP1 PUSH2 0xB8D JUMP JUMPDEST DUP1 PUSH1 0x1F ADD PUSH1 0x20 DUP1 SWAP2 DIV MUL PUSH1 0x20 ADD PUSH1 0x40 MLOAD SWAP1 DUP2 ADD PUSH1 0x40 MSTORE DUP1 SWAP3 SWAP2 SWAP1 DUP2 DUP2 MSTORE PUSH1 0x20 ADD DUP3 DUP1 SLOAD PUSH2 0x2EF SWAP1 PUSH2 0xB8D JUMP JUMPDEST DUP1 ISZERO PUSH2 0x33A JUMPI DUP1 PUSH1 0x1F LT PUSH2 0x311 JUMPI PUSH2 0x100 DUP1 DUP4 SLOAD DIV MUL DUP4 MSTORE SWAP2 PUSH1 0x20 ADD SWAP2 PUSH2 0x33A JUMP JUMPDEST DUP3 ADD SWAP2 SWAP1 PUSH0 MSTORE PUSH1 0x20 PUSH0 KECCAK256 SWAP1 JUMPDEST DUP2 SLOAD DUP2 MSTORE SWAP1 PUSH1 0x1 ADD SWAP1 PUSH1 0x20 ADD DUP1 DUP4 GT PUSH2 0x31D JUMPI DUP3 SWAP1 SUB PUSH1 0x1F AND DUP3 ADD SWAP2 JUMPDEST POP POP POP POP POP DUP2 JUMP JUMPDEST PUSH1 0x7 PUSH0 SWAP1 SLOAD SWAP1 PUSH2 0x100 EXP SWAP1 DIV PUSH1 0xF0 SHL DUP2 JUMP JUMPDEST PUSH0 PUSH1 0x8 DUP3 DUP2 SLOAD PUSH2 0x363 SWAP1 PUSH2 0xB8D JUMP JUMPDEST DUP2 LT PUSH2 0x372 JUMPI PUSH2 0x371 PUSH2 0xBBD JUMP JUMPDEST JUMPDEST DUP2 SLOAD PUSH1 0x1 AND ISZERO PUSH2 0x38F JUMPI SWAP1 PUSH0 MSTORE PUSH1 0x20 PUSH0 KECCAK256 SWAP1 PUSH1 0x20 SWAP2 DUP3 DUP3 DIV ADD SWAP2 SWAP1 MOD JUMPDEST SWAP1 SLOAD SWAP1 BYTE PUSH32 0x100000000000000000000000000000000000000000000000000000000000000 MUL SWAP1 POP SWAP2 SWAP1 POP JUMP JUMPDEST PUSH1 0x60 PUSH0 PUSH1 0x40 MLOAD DUP1 PUSH1 0x40 ADD PUSH1 0x40 MSTORE DUP1 PUSH1 0x3 DUP2 MSTORE PUSH1 0x20 ADD PUSH32 0x4A616E0000000000000000000000000000000000000000000000000000000000 DUP2 MSTORE POP SWAP1 POP PUSH0 PUSH1 0x64 SWAP1 POP PUSH1 0xA DUP2 PUSH2 0x409 SWAP2 SWAP1 PUSH2 0xC17 JUMP JUMPDEST SWAP1 POP DUP2 SWAP3 POP POP POP SWAP1 JUMP JUMPDEST PUSH1 0x8 DUP1 DUP1 SLOAD DUP1 PUSH2 0x422 SWAP1 PUSH2 0xB8D JUMP JUMPDEST DUP1 PUSH1 0x1F DUP2 SUB PUSH2 0x43F JUMPI DUP4 PUSH0 MSTORE PUSH1 0x20 PUSH0 KECCAK256 PUSH1 0xFF NOT DUP5 AND DUP2 SSTORE PUSH1 0x3F SWAP4 POP POP JUMPDEST POP PUSH1 0x2 DUP3 ADD DUP4 SSTORE PUSH1 0x1 DUP2 ADD SWAP3 POP POP POP PUSH1 0x1 SWAP1 SUB DUP2 SLOAD PUSH1 0x1 AND ISZERO PUSH2 0x46F JUMPI SWAP1 PUSH0 MSTORE PUSH1 0x20 PUSH0 KECCAK256 SWAP1 PUSH1 0x20 SWAP2 DUP3 DUP3 DIV ADD SWAP2 SWAP1 MOD JUMPDEST PUSH32 0x6100000000000000000000000000000000000000000000000000000000000000 SWAP1 SWAP2 SWAP1 SWAP2 PUSH1 0x1F SUB PUSH2 0x100 EXP DUP2 SLOAD DUP2 PUSH1 0xFF MUL NOT AND SWAP1 PUSH32 0x100000000000000000000000000000000000000000000000000000000000000 DUP5 DIV MUL OR SWAP1 SSTORE POP JUMP JUMPDEST PUSH0 SLOAD DUP2 JUMP JUMPDEST PUSH1 0x6 DUP2 SWAP1 DUP1 PUSH1 0x1 DUP2 SLOAD ADD DUP1 DUP3 SSTORE DUP1 SWAP2 POP POP PUSH1 0x1 SWAP1 SUB SWAP1 PUSH0 MSTORE PUSH1 0x20 PUSH0 KECCAK256 ADD PUSH0 SWAP1 SWAP2 SWAP1 SWAP2 SWAP1 SWAP2 POP SWAP1 DUP2 PUSH2 0x504 SWAP2 SWAP1 PUSH2 0xDF5 JUMP JUMPDEST POP POP JUMP JUMPDEST PUSH1 0x60 PUSH0 PUSH1 0x40 MLOAD DUP1 PUSH1 0x40 ADD PUSH1 0x40 MSTORE DUP1 PUSH1 0x3 DUP2 MSTORE PUSH1 0x20 ADD PUSH32 0x4A616E0000000000000000000000000000000000000000000000000000000000 DUP2 MSTORE POP SWAP1 POP PUSH0 PUSH1 0x64 SWAP1 POP PUSH0 SLOAD DUP2 PUSH2 0x555 SWAP2 SWAP1 PUSH2 0xC17 JUMP JUMPDEST SWAP1 POP DUP2 SWAP3 POP POP POP SWAP1 JUMP JUMPDEST PUSH1 0x8 DUP1 SLOAD PUSH2 0x56C SWAP1 PUSH2 0xB8D JUMP JUMPDEST DUP1 PUSH1 0x1F ADD PUSH1 0x20 DUP1 SWAP2 DIV MUL PUSH1 0x20 ADD PUSH1 0x40 MLOAD SWAP1 DUP2 ADD PUSH1 0x40 MSTORE DUP1 SWAP3 SWAP2 SWAP1 DUP2 DUP2 MSTORE PUSH1 0x20 ADD DUP3 DUP1 SLOAD PUSH2 0x598 SWAP1 PUSH2 0xB8D JUMP JUMPDEST DUP1 ISZERO PUSH2 0x5E3 JUMPI DUP1 PUSH1 0x1F LT PUSH2 0x5BA JUMPI PUSH2 0x100 DUP1 DUP4 SLOAD DIV MUL DUP4 MSTORE SWAP2 PUSH1 0x20 ADD SWAP2 PUSH2 0x5E3 JUMP JUMPDEST DUP3 ADD SWAP2 SWAP1 PUSH0 MSTORE PUSH1 0x20 PUSH0 KECCAK256 SWAP1 JUMPDEST DUP2 SLOAD DUP2 MSTORE SWAP1 PUSH1 0x1 ADD SWAP1 PUSH1 0x20 ADD DUP1 DUP4 GT PUSH2 0x5C6 JUMPI DUP3 SWAP1 SUB PUSH1 0x1F AND DUP3 ADD SWAP2 JUMPDEST POP POP POP POP POP DUP2 JUMP JUMPDEST PUSH0 PUSH1 0x4 SWAP1 POP SWAP1 JUMP JUMPDEST PUSH1 0x2 DUP2 PUSH1 0x4 DUP2 LT PUSH2 0x602 JUMPI PUSH0 DUP1 REVERT JUMPDEST ADD PUSH0 SWAP2 POP SWAP1 POP DUP1 SLOAD PUSH2 0x613 SWAP1 PUSH2 0xB8D JUMP JUMPDEST DUP1 PUSH1 0x1F ADD PUSH1 0x20 DUP1 SWAP2 DIV MUL PUSH1 0x20 ADD PUSH1 0x40 MLOAD SWAP1 DUP2 ADD PUSH1 0x40 MSTORE DUP1 SWAP3 SWAP2 SWAP1 DUP2 DUP2 MSTORE PUSH1 0x20 ADD DUP3 DUP1 SLOAD PUSH2 0x63F SWAP1 PUSH2 0xB8D JUMP JUMPDEST DUP1 ISZERO PUSH2 0x68A JUMPI DUP1 PUSH1 0x1F LT PUSH2 0x661 JUMPI PUSH2 0x100 DUP1 DUP4 SLOAD DIV MUL DUP4 MSTORE SWAP2 PUSH1 0x20 ADD SWAP2 PUSH2 0x68A JUMP JUMPDEST DUP3 ADD SWAP2 SWAP1 PUSH0 MSTORE PUSH1 0x20 PUSH0 KECCAK256 SWAP1 JUMPDEST DUP2 SLOAD DUP2 MSTORE SWAP1 PUSH1 0x1 ADD SWAP1 PUSH1 0x20 ADD DUP1 DUP4 GT PUSH2 0x66D JUMPI DUP3 SWAP1 SUB PUSH1 0x1F AND DUP3 ADD SWAP2 JUMPDEST POP POP POP POP POP DUP2 JUMP JUMPDEST PUSH0 PUSH1 0x8 DUP1 SLOAD PUSH2 0x6A0 SWAP1 PUSH2 0xB8D JUMP JUMPDEST SWAP1 POP SWAP1 POP SWAP1 JUMP JUMPDEST PUSH1 0x6 DUP1 SLOAD DUP1 PUSH2 0x6B9 JUMPI PUSH2 0x6B8 PUSH2 0xEC4 JUMP JUMPDEST JUMPDEST PUSH1 0x1 SWAP1 SUB DUP2 DUP2 SWAP1 PUSH0 MSTORE PUSH1 0x20 PUSH0 KECCAK256 ADD PUSH0 PUSH2 0x6D2 SWAP2 SWAP1 PUSH2 0x6E9 JUMP JUMPDEST SWAP1 SSTORE JUMP JUMPDEST PUSH1 0x7 PUSH1 0x2 SWAP1 SLOAD SWAP1 PUSH2 0x100 EXP SWAP1 DIV PUSH1 0xE8 SHL DUP2 JUMP JUMPDEST POP DUP1 SLOAD PUSH2 0x6F5 SWAP1 PUSH2 0xB8D JUMP JUMPDEST PUSH0 DUP3 SSTORE DUP1 PUSH1 0x1F LT PUSH2 0x706 JUMPI POP PUSH2 0x723 JUMP JUMPDEST PUSH1 0x1F ADD PUSH1 0x20 SWAP1 DIV SWAP1 PUSH0 MSTORE PUSH1 0x20 PUSH0 KECCAK256 SWAP1 DUP2 ADD SWAP1 PUSH2 0x722 SWAP2 SWAP1 PUSH2 0x726 JUMP JUMPDEST JUMPDEST POP JUMP JUMPDEST JUMPDEST DUP1 DUP3 GT ISZERO PUSH2 0x73D JUMPI PUSH0 DUP2 PUSH0 SWAP1 SSTORE POP PUSH1 0x1 ADD PUSH2 0x727 JUMP JUMPDEST POP SWAP1 JUMP JUMPDEST PUSH0 PUSH1 0x40 MLOAD SWAP1 POP SWAP1 JUMP JUMPDEST PUSH0 DUP1 REVERT JUMPDEST PUSH0 DUP1 REVERT JUMPDEST PUSH0 DUP2 SWAP1 POP SWAP2 SWAP1 POP JUMP JUMPDEST PUSH2 0x764 DUP2 PUSH2 0x752 JUMP JUMPDEST DUP2 EQ PUSH2 0x76E JUMPI PUSH0 DUP1 REVERT JUMPDEST POP JUMP JUMPDEST PUSH0 DUP2 CALLDATALOAD SWAP1 POP PUSH2 0x77F DUP2 PUSH2 0x75B JUMP JUMPDEST SWAP3 SWAP2 POP POP JUMP JUMPDEST PUSH0 PUSH1 0x20 DUP3 DUP5 SUB SLT ISZERO PUSH2 0x79A JUMPI PUSH2 0x799 PUSH2 0x74A JUMP JUMPDEST JUMPDEST PUSH0 PUSH2 0x7A7 DUP5 DUP3 DUP6 ADD PUSH2 0x771 JUMP JUMPDEST SWAP2 POP POP SWAP3 SWAP2 POP POP JUMP JUMPDEST PUSH0 DUP2 MLOAD SWAP1 POP SWAP2 SWAP1 POP JUMP JUMPDEST PUSH0 DUP3 DUP3 MSTORE PUSH1 0x20 DUP3 ADD SWAP1 POP SWAP3 SWAP2 POP POP JUMP JUMPDEST PUSH0 JUMPDEST DUP4 DUP2 LT ISZERO PUSH2 0x7E7 JUMPI DUP1 DUP3 ADD MLOAD DUP2 DUP5 ADD MSTORE PUSH1 0x20 DUP2 ADD SWAP1 POP PUSH2 0x7CC JUMP JUMPDEST PUSH0 DUP5 DUP5 ADD MSTORE POP POP POP POP JUMP JUMPDEST PUSH0 PUSH1 0x1F NOT PUSH1 0x1F DUP4 ADD AND SWAP1 POP SWAP2 SWAP1 POP JUMP JUMPDEST PUSH0 PUSH2 0x80C DUP3 PUSH2 0x7B0 JUMP JUMPDEST PUSH2 0x816 DUP2 DUP6 PUSH2 0x7BA JUMP JUMPDEST SWAP4 POP PUSH2 0x826 DUP2 DUP6 PUSH1 0x20 DUP7 ADD PUSH2 0x7CA JUMP JUMPDEST PUSH2 0x82F DUP2 PUSH2 0x7F2 JUMP JUMPDEST DUP5 ADD SWAP2 POP POP SWAP3 SWAP2 POP POP JUMP JUMPDEST PUSH0 PUSH1 0x20 DUP3 ADD SWAP1 POP DUP2 DUP2 SUB PUSH0 DUP4 ADD MSTORE PUSH2 0x852 DUP2 DUP5 PUSH2 0x802 JUMP JUMPDEST SWAP1 POP SWAP3 SWAP2 POP POP JUMP JUMPDEST PUSH0 PUSH32 0xFFFF000000000000000000000000000000000000000000000000000000000000 DUP3 AND SWAP1 POP SWAP2 SWAP1 POP JUMP JUMPDEST PUSH2 0x88E DUP2 PUSH2 0x85A JUMP JUMPDEST DUP3 MSTORE POP POP JUMP JUMPDEST PUSH0 PUSH1 0x20 DUP3 ADD SWAP1 POP PUSH2 0x8A7 PUSH0 DUP4 ADD DUP5 PUSH2 0x885 JUMP JUMPDEST SWAP3 SWAP2 POP POP JUMP JUMPDEST PUSH0 PUSH32 0xFF00000000000000000000000000000000000000000000000000000000000000 DUP3 AND SWAP1 POP SWAP2 SWAP1 POP JUMP JUMPDEST PUSH2 0x8E1 DUP2 PUSH2 0x8AD JUMP JUMPDEST DUP3 MSTORE POP POP JUMP JUMPDEST PUSH0 PUSH1 0x20 DUP3 ADD SWAP1 POP PUSH2 0x8FA PUSH0 DUP4 ADD DUP5 PUSH2 0x8D8 JUMP JUMPDEST SWAP3 SWAP2 POP POP JUMP JUMPDEST PUSH2 0x909 DUP2 PUSH2 0x752 JUMP JUMPDEST DUP3 MSTORE POP POP JUMP JUMPDEST PUSH0 PUSH1 0x20 DUP3 ADD SWAP1 POP PUSH2 0x922 PUSH0 DUP4 ADD DUP5 PUSH2 0x900 JUMP JUMPDEST SWAP3 SWAP2 POP POP JUMP JUMPDEST PUSH0 DUP1 REVERT JUMPDEST PUSH0 DUP1 REVERT JUMPDEST PUSH32 0x4E487B7100000000000000000000000000000000000000000000000000000000 PUSH0 MSTORE PUSH1 0x41 PUSH1 0x4 MSTORE PUSH1 0x24 PUSH0 REVERT JUMPDEST PUSH2 0x966 DUP3 PUSH2 0x7F2 JUMP JUMPDEST DUP2 ADD DUP2 DUP2 LT PUSH8 0xFFFFFFFFFFFFFFFF DUP3 GT OR ISZERO PUSH2 0x985 JUMPI PUSH2 0x984 PUSH2 0x930 JUMP JUMPDEST JUMPDEST DUP1 PUSH1 0x40 MSTORE POP POP POP JUMP JUMPDEST PUSH0 PUSH2 0x997 PUSH2 0x741 JUMP JUMPDEST SWAP1 POP PUSH2 0x9A3 DUP3 DUP3 PUSH2 0x95D JUMP JUMPDEST SWAP2 SWAP1 POP JUMP JUMPDEST PUSH0 PUSH8 0xFFFFFFFFFFFFFFFF DUP3 GT ISZERO PUSH2 0x9C2 JUMPI PUSH2 0x9C1 PUSH2 0x930 JUMP JUMPDEST JUMPDEST PUSH2 0x9CB DUP3 PUSH2 0x7F2 JUMP JUMPDEST SWAP1 POP PUSH1 0x20 DUP2 ADD SWAP1 POP SWAP2 SWAP1 POP JUMP JUMPDEST DUP3 DUP2 DUP4 CALLDATACOPY PUSH0 DUP4 DUP4 ADD MSTORE POP POP POP JUMP JUMPDEST PUSH0 PUSH2 0x9F8 PUSH2 0x9F3 DUP5 PUSH2 0x9A8 JUMP JUMPDEST PUSH2 0x98E JUMP JUMPDEST SWAP1 POP DUP3 DUP2 MSTORE PUSH1 0x20 DUP2 ADD DUP5 DUP5 DUP5 ADD GT ISZERO PUSH2 0xA14 JUMPI PUSH2 0xA13 PUSH2 0x92C JUMP JUMPDEST JUMPDEST PUSH2 0xA1F DUP5 DUP3 DUP6 PUSH2 0x9D8 JUMP JUMPDEST POP SWAP4 SWAP3 POP POP POP JUMP JUMPDEST PUSH0 DUP3 PUSH1 0x1F DUP4 ADD SLT PUSH2 0xA3B JUMPI PUSH2 0xA3A PUSH2 0x928 JUMP JUMPDEST JUMPDEST DUP2 CALLDATALOAD PUSH2 0xA4B DUP5 DUP3 PUSH1 0x20 DUP7 ADD PUSH2 0x9E6 JUMP JUMPDEST SWAP2 POP POP SWAP3 SWAP2 POP POP JUMP JUMPDEST PUSH0 PUSH1 0x20 DUP3 DUP5 SUB SLT ISZERO PUSH2 0xA69 JUMPI PUSH2 0xA68 PUSH2 0x74A JUMP JUMPDEST JUMPDEST PUSH0 DUP3 ADD CALLDATALOAD PUSH8 0xFFFFFFFFFFFFFFFF DUP2 GT ISZERO PUSH2 0xA86 JUMPI PUSH2 0xA85 PUSH2 0x74E JUMP JUMPDEST JUMPDEST PUSH2 0xA92 DUP5 DUP3 DUP6 ADD PUSH2 0xA27 JUMP JUMPDEST SWAP2 POP POP SWAP3 SWAP2 POP POP JUMP JUMPDEST PUSH0 DUP2 MLOAD SWAP1 POP SWAP2 SWAP1 POP JUMP JUMPDEST PUSH0 DUP3 DUP3 MSTORE PUSH1 0x20 DUP3 ADD SWAP1 POP SWAP3 SWAP2 POP POP JUMP JUMPDEST PUSH0 PUSH2 0xABF DUP3 PUSH2 0xA9B JUMP JUMPDEST PUSH2 0xAC9 DUP2 DUP6 PUSH2 0xAA5 JUMP JUMPDEST SWAP4 POP PUSH2 0xAD9 DUP2 DUP6 PUSH1 0x20 DUP7 ADD PUSH2 0x7CA JUMP JUMPDEST PUSH2 0xAE2 DUP2 PUSH2 0x7F2 JUMP JUMPDEST DUP5 ADD SWAP2 POP POP SWAP3 SWAP2 POP POP JUMP JUMPDEST PUSH0 PUSH1 0x20 DUP3 ADD SWAP1 POP DUP2 DUP2 SUB PUSH0 DUP4 ADD MSTORE PUSH2 0xB05 DUP2 DUP5 PUSH2 0xAB5 JUMP JUMPDEST SWAP1 POP SWAP3 SWAP2 POP POP JUMP JUMPDEST PUSH0 PUSH32 0xFFFFFF0000000000000000000000000000000000000000000000000000000000 DUP3 AND SWAP1 POP SWAP2 SWAP1 POP JUMP JUMPDEST PUSH2 0xB41 DUP2 PUSH2 0xB0D JUMP JUMPDEST DUP3 MSTORE POP POP JUMP JUMPDEST PUSH0 PUSH1 0x20 DUP3 ADD SWAP1 POP PUSH2 0xB5A PUSH0 DUP4 ADD DUP5 PUSH2 0xB38 JUMP JUMPDEST SWAP3 SWAP2 POP POP JUMP JUMPDEST PUSH32 0x4E487B7100000000000000000000000000000000000000000000000000000000 PUSH0 MSTORE PUSH1 0x22 PUSH1 0x4 MSTORE PUSH1 0x24 PUSH0 REVERT JUMPDEST PUSH0 PUSH1 0x2 DUP3 DIV SWAP1 POP PUSH1 0x1 DUP3 AND DUP1 PUSH2 0xBA4 JUMPI PUSH1 0x7F DUP3 AND SWAP2 POP JUMPDEST PUSH1 0x20 DUP3 LT DUP2 SUB PUSH2 0xBB7 JUMPI PUSH2 0xBB6 PUSH2 0xB60 JUMP JUMPDEST JUMPDEST POP SWAP2 SWAP1 POP JUMP JUMPDEST PUSH32 0x4E487B7100000000000000000000000000000000000000000000000000000000 PUSH0 MSTORE PUSH1 0x32 PUSH1 0x4 MSTORE PUSH1 0x24 PUSH0 REVERT JUMPDEST PUSH32 0x4E487B7100000000000000000000000000000000000000000000000000000000 PUSH0 MSTORE PUSH1 0x11 PUSH1 0x4 MSTORE PUSH1 0x24 PUSH0 REVERT JUMPDEST PUSH0 PUSH2 0xC21 DUP3 PUSH2 0x752 JUMP JUMPDEST SWAP2 POP PUSH2 0xC2C DUP4 PUSH2 0x752 JUMP JUMPDEST SWAP3 POP DUP3 DUP3 MUL PUSH2 0xC3A DUP2 PUSH2 0x752 JUMP JUMPDEST SWAP2 POP DUP3 DUP3 DIV DUP5 EQ DUP4 ISZERO OR PUSH2 0xC51 JUMPI PUSH2 0xC50 PUSH2 0xBEA JUMP JUMPDEST JUMPDEST POP SWAP3 SWAP2 POP POP JUMP JUMPDEST PUSH0 DUP2 SWAP1 POP DUP2 PUSH0 MSTORE PUSH1 0x20 PUSH0 KECCAK256 SWAP1 POP SWAP2 SWAP1 POP JUMP JUMPDEST PUSH0 PUSH1 0x20 PUSH1 0x1F DUP4 ADD DIV SWAP1 POP SWAP2 SWAP1 POP JUMP JUMPDEST PUSH0 DUP3 DUP3 SHL SWAP1 POP SWAP3 SWAP2 POP POP JUMP JUMPDEST PUSH0 PUSH1 0x8 DUP4 MUL PUSH2 0xCB4 PUSH32 0xFFFFFFFFFFFFFFFFFFFFFFFFFFFFFFFFFFFFFFFFFFFFFFFFFFFFFFFFFFFFFFFF DUP3 PUSH2 0xC79 JUMP JUMPDEST PUSH2 0xCBE DUP7 DUP4 PUSH2 0xC79 JUMP JUMPDEST SWAP6 POP DUP1 NOT DUP5 AND SWAP4 POP DUP1 DUP7 AND DUP5 OR SWAP3 POP POP POP SWAP4 SWAP3 POP POP POP JUMP JUMPDEST PUSH0 DUP2 SWAP1 POP SWAP2 SWAP1 POP JUMP JUMPDEST PUSH0 PUSH2 0xCF9 PUSH2 0xCF4 PUSH2 0xCEF DUP5 PUSH2 0x752 JUMP JUMPDEST PUSH2 0xCD6 JUMP JUMPDEST PUSH2 0x752 JUMP JUMPDEST SWAP1 POP SWAP2 SWAP1 POP JUMP JUMPDEST PUSH0 DUP2 SWAP1 POP SWAP2 SWAP1 POP JUMP JUMPDEST PUSH2 0xD12 DUP4 PUSH2 0xCDF JUMP JUMPDEST PUSH2 0xD26 PUSH2 0xD1E DUP3 PUSH2 0xD00 JUMP JUMPDEST DUP5 DUP5 SLOAD PUSH2 0xC85 JUMP JUMPDEST DUP3 SSTORE POP POP POP POP JUMP JUMPDEST PUSH0 SWAP1 JUMP JUMPDEST PUSH2 0xD3A PUSH2 0xD2E JUMP JUMPDEST PUSH2 0xD45 DUP2 DUP5 DUP5 PUSH2 0xD09 JUMP JUMPDEST POP POP POP JUMP JUMPDEST JUMPDEST DUP2 DUP2 LT ISZERO PUSH2 0xD68 JUMPI PUSH2 0xD5D PUSH0 DUP3 PUSH2 0xD32 JUMP JUMPDEST PUSH1 0x1 DUP2 ADD SWAP1 POP PUSH2 0xD4B JUMP JUMPDEST POP POP JUMP JUMPDEST PUSH1 0x1F DUP3 GT ISZERO PUSH2 0xDAD JUMPI PUSH2 0xD7E DUP2 PUSH2 0xC58 JUMP JUMPDEST PUSH2 0xD87 DUP5 PUSH2 0xC6A JUMP JUMPDEST DUP2 ADD PUSH1 0x20 DUP6 LT ISZERO PUSH2 0xD96 JUMPI DUP2 SWAP1 POP JUMPDEST PUSH2 0xDAA PUSH2 0xDA2 DUP6 PUSH2 0xC6A JUMP JUMPDEST DUP4 ADD DUP3 PUSH2 0xD4A JUMP JUMPDEST POP POP JUMPDEST POP POP POP JUMP JUMPDEST PUSH0 DUP3 DUP3 SHR SWAP1 POP SWAP3 SWAP2 POP POP JUMP JUMPDEST PUSH0 PUSH2 0xDCD PUSH0 NOT DUP5 PUSH1 0x8 MUL PUSH2 0xDB2 JUMP JUMPDEST NOT DUP1 DUP4 AND SWAP2 POP POP SWAP3 SWAP2 POP POP JUMP JUMPDEST PUSH0 PUSH2 0xDE5 DUP4 DUP4 PUSH2 0xDBE JUMP JUMPDEST SWAP2 POP DUP3 PUSH1 0x2 MUL DUP3 OR SWAP1 POP SWAP3 SWAP2 POP POP JUMP JUMPDEST PUSH2 0xDFE DUP3 PUSH2 0x7B0 JUMP JUMPDEST PUSH8 0xFFFFFFFFFFFFFFFF DUP2 GT ISZERO PUSH2 0xE17 JUMPI PUSH2 0xE16 PUSH2 0x930 JUMP JUMPDEST JUMPDEST PUSH2 0xE21 DUP3 SLOAD PUSH2 0xB8D JUMP JUMPDEST PUSH2 0xE2C DUP3 DUP3 DUP6 PUSH2 0xD6C JUMP JUMPDEST PUSH0 PUSH1 0x20 SWAP1 POP PUSH1 0x1F DUP4 GT PUSH1 0x1 DUP2 EQ PUSH2 0xE5D JUMPI PUSH0 DUP5 ISZERO PUSH2 0xE4B JUMPI DUP3 DUP8 ADD MLOAD SWAP1 POP JUMPDEST PUSH2 0xE55 DUP6 DUP3 PUSH2 0xDDA JUMP JUMPDEST DUP7 SSTORE POP PUSH2 0xEBC JUMP JUMPDEST PUSH1 0x1F NOT DUP5 AND PUSH2 0xE6B DUP7 PUSH2 0xC58 JUMP JUMPDEST PUSH0 JUMPDEST DUP3 DUP2 LT ISZERO PUSH2 0xE92 JUMPI DUP5 DUP10 ADD MLOAD DUP3 SSTORE PUSH1 0x1 DUP3 ADD SWAP2 POP PUSH1 0x20 DUP6 ADD SWAP5 POP PUSH1 0x20 DUP2 ADD SWAP1 POP PUSH2 0xE6D JUMP JUMPDEST DUP7 DUP4 LT ISZERO PUSH2 0xEAF JUMPI DUP5 DUP10 ADD MLOAD PUSH2 0xEAB PUSH1 0x1F DUP10 AND DUP3 PUSH2 0xDBE JUMP JUMPDEST DUP4 SSTORE POP JUMPDEST PUSH1 0x1 PUSH1 0x2 DUP9 MUL ADD DUP9 SSTORE POP POP POP JUMPDEST POP POP POP POP POP POP JUMP JUMPDEST PUSH32 0x4E487B7100000000000000000000000000000000000000000000000000000000 PUSH0 MSTORE PUSH1 0x31 PUSH1 0x4 MSTORE PUSH1 0x24 PUSH0 REVERT INVALID LOG2 PUSH5 0x6970667358 0x22 SLT KECCAK256 PUSH16 0x56B4B0CC1D00D4770FF25BAA98DD491C NOT SWAP14 OR DUP12 SWAP1 SWAP3 0x2D NOT 0xAC 0xE0 DUP13 LOG4 DUP1 XOR GASLIMIT PUSH5 0x736F6C6343 STOP ADDMOD ISZERO STOP CALLER "
		},
		"gasEstimates": {
			"creation": {
				"codeDepositCost": "775800",
				"executionCost": "infinite",
				"totalCost": "infinite"
			},
			"external": {
				"addState(string)": "infinite",
				"age()": "2491",
				"b()": "infinite",
				"b2()": "2512",
				"b3()": "2605",
				"cities(uint256)": "infinite",
				"getByteElAt(uint256)": "7243",
				"getByteLength()": "2608",
				"getLenth()": "399",
				"getMonth()": "infinite",
				"getMonth1()": "infinite",
				"pushElToByte()": "74855",
				"removeState()": "infinite",
				"states(uint256)": "infinite"
			}
		},
		"methodIdentifiers": {
			"addState(string)": "2a34ede1",
			"age()": "262a9dff",
			"b()": "4df7e3d0",
			"b2()": "0add6ef2",
			"b3()": "e9b61909",
			"cities(uint256)": "6a51b918",
			"getByteElAt(uint256)": "1bb77b19",
			"getByteLength()": "d8bb7b74",
			"getLenth()": "620fe100",
			"getMonth()": "1d8f7892",
			"getMonth1()": "43764804",
			"pushElToByte()": "24a297a6",
			"removeState()": "e1d0ba6f",
			"states(uint256)": "017a9105"
		}
	},
	"abi": [
		{
			"inputs": [],
			"stateMutability": "nonpayable",
			"type": "constructor"
		},
		{
			"inputs": [
				{
					"internalType": "string",
					"name": "state",
					"type": "string"
				}
			],
			"name": "addState",
			"outputs": [],
			"stateMutability": "nonpayable",
			"type": "function"
		},
		{
			"inputs": [],
			"name": "age",
			"outputs": [
				{
					"internalType": "uint256",
					"name": "",
					"type": "uint256"
				}
			],
			"stateMutability": "view",
			"type": "function"
		},
		{
			"inputs": [],
			"name": "b",
			"outputs": [
				{
					"internalType": "bytes",
					"name": "",
					"type": "bytes"
				}
			],
			"stateMutability": "view",
			"type": "function"
		},
		{
			"inputs": [],
			"name": "b2",
			"outputs": [
				{
					"internalType": "bytes2",
					"name": "",
					"type": "bytes2"
				}
			],
			"stateMutability": "view",
			"type": "function"
		},
		{
			"inputs": [],
			"name": "b3",
			"outputs": [
				{
					"internalType": "bytes3",
					"name": "",
					"type": "bytes3"
				}
			],
			"stateMutability": "view",
			"type": "function"
		},
		{
			"inputs": [
				{
					"internalType": "uint256",
					"name": "",
					"type": "uint256"
				}
			],
			"name": "cities",
			"outputs": [
				{
					"internalType": "string",
					"name": "",
					"type": "string"
				}
			],
			"stateMutability": "view",
			"type": "function"
		},
		{
			"inputs": [
				{
					"internalType": "uint256",
					"name": "index",
					"type": "uint256"
				}
			],
			"name": "getByteElAt",
			"outputs": [
				{
					"internalType": "bytes1",
					"name": "",
					"type": "bytes1"
				}
			],
			"stateMutability": "view",
			"type": "function"
		},
		{
			"inputs": [],
			"name": "getByteLength",
			"outputs": [
				{
					"internalType": "uint256",
					"name": "",
					"type": "uint256"
				}
			],
			"stateMutability": "view",
			"type": "function"
		},
		{
			"inputs": [],
			"name": "getLenth",
			"outputs": [
				{
					"internalType": "uint256",
					"name": "",
					"type": "uint256"
				}
			],
			"stateMutability": "view",
			"type": "function"
		},
		{
			"inputs": [],
			"name": "getMonth",
			"outputs": [
				{
					"internalType": "string",
					"name": "",
					"type": "string"
				}
			],
			"stateMutability": "pure",
			"type": "function"
		},
		{
			"inputs": [],
			"name": "getMonth1",
			"outputs": [
				{
					"internalType": "string",
					"name": "",
					"type": "string"
				}
			],
			"stateMutability": "view",
			"type": "function"
		},
		{
			"inputs": [],
			"name": "pushElToByte",
			"outputs": [],
			"stateMutability": "nonpayable",
			"type": "function"
		},
		{
			"inputs": [],
			"name": "removeState",
			"outputs": [],
			"stateMutability": "nonpayable",
			"type": "function"
		},
		{
			"inputs": [
				{
					"internalType": "uint256",
					"name": "",
					"type": "uint256"
				}
			],
			"name": "states",
			"outputs": [
				{
					"internalType": "string",
					"name": "",
					"type": "string"
				}
			],
			"stateMutability": "view",
			"type": "function"
		}
	]
}